{
  "_format": "hh-sol-artifact-1",
  "contractName": "TPv1",
  "sourceName": "contracts/TPv1.sol",
  "abi": [
    {
      "inputs": [],
      "stateMutability": "nonpayable",
      "type": "constructor"
    },
    {
      "anonymous": false,
      "inputs": [
        {
          "indexed": false,
          "internalType": "string",
          "name": "symbol_",
          "type": "string"
        },
        {
          "indexed": false,
          "internalType": "address",
          "name": "from_",
          "type": "address"
        },
        {
          "indexed": false,
          "internalType": "address",
          "name": "to_",
          "type": "address"
        }
      ],
      "name": "Assign",
      "type": "event"
    },
    {
      "anonymous": false,
      "inputs": [
        {
          "indexed": false,
          "internalType": "address",
          "name": "account_",
          "type": "address"
        },
        {
          "indexed": false,
          "internalType": "address",
          "name": "token_",
          "type": "address"
        },
        {
          "indexed": false,
          "internalType": "uint256",
          "name": "amount_",
          "type": "uint256"
        }
      ],
      "name": "Deposit",
      "type": "event"
    },
    {
      "anonymous": false,
      "inputs": [
        {
          "indexed": false,
          "internalType": "string",
          "name": "symbol_",
          "type": "string"
        },
        {
          "indexed": false,
          "internalType": "address",
          "name": "token_",
          "type": "address"
        },
        {
          "indexed": false,
          "internalType": "uint256",
          "name": "amount_",
          "type": "uint256"
        }
      ],
      "name": "Drain",
      "type": "event"
    },
    {
      "anonymous": false,
      "inputs": [
        {
          "indexed": false,
          "internalType": "string",
          "name": "symbol_",
          "type": "string"
        },
        {
          "indexed": false,
          "internalType": "address",
          "name": "token_",
          "type": "address"
        },
        {
          "indexed": false,
          "internalType": "uint256",
          "name": "amount_",
          "type": "uint256"
        }
      ],
      "name": "Fill",
      "type": "event"
    },
    {
      "anonymous": false,
      "inputs": [
        {
          "indexed": false,
          "internalType": "string",
          "name": "symbol_",
          "type": "string"
        },
        {
          "indexed": false,
          "internalType": "address",
          "name": "account_",
          "type": "address"
        }
      ],
      "name": "Mint",
      "type": "event"
    },
    {
      "anonymous": false,
      "inputs": [
        {
          "indexed": true,
          "internalType": "address",
          "name": "previousOwner",
          "type": "address"
        },
        {
          "indexed": true,
          "internalType": "address",
          "name": "newOwner",
          "type": "address"
        }
      ],
      "name": "OwnershipTransferred",
      "type": "event"
    },
    {
      "anonymous": false,
      "inputs": [
        {
          "indexed": false,
          "internalType": "address",
          "name": "token_",
          "type": "address"
        },
        {
          "indexed": false,
          "internalType": "address",
          "name": "from_",
          "type": "address"
        },
        {
          "indexed": false,
          "internalType": "address",
          "name": "to_",
          "type": "address"
        },
        {
          "indexed": false,
          "internalType": "uint256",
          "name": "amount_",
          "type": "uint256"
        }
      ],
      "name": "Transfer",
      "type": "event"
    },
    {
      "anonymous": false,
      "inputs": [
        {
          "indexed": false,
          "internalType": "address",
          "name": "account_",
          "type": "address"
        },
        {
          "indexed": false,
          "internalType": "address",
          "name": "token_",
          "type": "address"
        },
        {
          "indexed": false,
          "internalType": "uint256",
          "name": "amount_",
          "type": "uint256"
        }
      ],
      "name": "Withdrawal",
      "type": "event"
    },
    {
      "inputs": [
        {
          "internalType": "string",
          "name": "_symbol",
          "type": "string"
        },
        {
          "internalType": "address",
          "name": "_to",
          "type": "address"
        }
      ],
      "name": "assign",
      "outputs": [],
      "stateMutability": "nonpayable",
      "type": "function"
    },
    {
      "inputs": [
        {
          "internalType": "address",
          "name": "_token",
          "type": "address"
        },
        {
          "internalType": "uint256",
          "name": "_amount",
          "type": "uint256"
        }
      ],
      "name": "deposit",
      "outputs": [],
      "stateMutability": "nonpayable",
      "type": "function"
    },
    {
      "inputs": [
        {
          "internalType": "string",
          "name": "_symbol",
          "type": "string"
        },
        {
          "internalType": "address",
          "name": "_token",
          "type": "address"
        },
        {
          "internalType": "uint256",
          "name": "_amount",
          "type": "uint256"
        }
      ],
      "name": "drain",
      "outputs": [],
      "stateMutability": "nonpayable",
      "type": "function"
    },
    {
      "inputs": [],
      "name": "feeRecipient",
      "outputs": [
        {
          "internalType": "address",
          "name": "",
          "type": "address"
        }
      ],
      "stateMutability": "view",
      "type": "function"
    },
    {
      "inputs": [],
      "name": "feeRecipientSetter",
      "outputs": [
        {
          "internalType": "address",
          "name": "",
          "type": "address"
        }
      ],
      "stateMutability": "view",
      "type": "function"
    },
    {
      "inputs": [
        {
          "internalType": "string",
          "name": "_symbol",
          "type": "string"
        },
        {
          "internalType": "address",
          "name": "_token",
          "type": "address"
        },
        {
          "internalType": "uint256",
          "name": "_amount",
          "type": "uint256"
        }
      ],
      "name": "fill",
      "outputs": [],
      "stateMutability": "nonpayable",
      "type": "function"
    },
    {
      "inputs": [
        {
          "internalType": "address",
          "name": "",
          "type": "address"
        },
        {
          "internalType": "address",
          "name": "",
          "type": "address"
        }
      ],
      "name": "getBook",
      "outputs": [
        {
          "internalType": "uint256",
          "name": "",
          "type": "uint256"
        }
      ],
      "stateMutability": "view",
      "type": "function"
    },
    {
      "inputs": [
        {
          "internalType": "address",
          "name": "",
          "type": "address"
        },
        {
          "internalType": "string",
          "name": "",
          "type": "string"
        },
        {
          "internalType": "uint256",
          "name": "",
          "type": "uint256"
        }
      ],
      "name": "getOffers",
      "outputs": [
        {
          "internalType": "address",
          "name": "account",
          "type": "address"
        },
        {
          "internalType": "uint256",
          "name": "amount",
          "type": "uint256"
        }
      ],
      "stateMutability": "view",
      "type": "function"
    },
    {
      "inputs": [
        {
          "internalType": "address",
          "name": "",
          "type": "address"
        },
        {
          "internalType": "uint256",
          "name": "",
          "type": "uint256"
        }
      ],
      "name": "getOwnerTps",
      "outputs": [
        {
          "internalType": "string",
          "name": "",
          "type": "string"
        }
      ],
      "stateMutability": "view",
      "type": "function"
    },
    {
      "inputs": [
        {
          "internalType": "string",
          "name": "",
          "type": "string"
        },
        {
          "internalType": "address",
          "name": "",
          "type": "address"
        }
      ],
      "name": "getTp",
      "outputs": [
        {
          "internalType": "uint256",
          "name": "",
          "type": "uint256"
        }
      ],
      "stateMutability": "view",
      "type": "function"
    },
    {
      "inputs": [
        {
          "internalType": "string",
          "name": "",
          "type": "string"
        }
      ],
      "name": "getTpOwner",
      "outputs": [
        {
          "internalType": "address",
          "name": "",
          "type": "address"
        }
      ],
      "stateMutability": "view",
      "type": "function"
    },
    {
      "inputs": [
        {
          "internalType": "string",
          "name": "_symbol",
          "type": "string"
        }
      ],
      "name": "mint",
      "outputs": [],
      "stateMutability": "nonpayable",
      "type": "function"
    },
    {
      "inputs": [],
      "name": "owner",
      "outputs": [
        {
          "internalType": "address",
          "name": "",
          "type": "address"
        }
      ],
      "stateMutability": "view",
      "type": "function"
    },
    {
      "inputs": [],
      "name": "renounceOwnership",
      "outputs": [],
      "stateMutability": "nonpayable",
      "type": "function"
    },
    {
      "inputs": [
        {
          "internalType": "address",
          "name": "_feeRecipient",
          "type": "address"
        }
      ],
      "name": "setFeeRecipient",
      "outputs": [],
      "stateMutability": "nonpayable",
      "type": "function"
    },
    {
      "inputs": [
        {
          "internalType": "address",
          "name": "_feeRecipientSetter",
          "type": "address"
        }
      ],
      "name": "setFeeRecipientSetter",
      "outputs": [],
      "stateMutability": "nonpayable",
      "type": "function"
    },
    {
      "inputs": [
        {
          "internalType": "uint256",
          "name": "",
          "type": "uint256"
        }
      ],
      "name": "tpList",
      "outputs": [
        {
          "internalType": "string",
          "name": "",
          "type": "string"
        }
      ],
      "stateMutability": "view",
      "type": "function"
    },
    {
      "inputs": [
        {
          "internalType": "address",
          "name": "_token",
          "type": "address"
        },
        {
          "internalType": "address",
          "name": "_to",
          "type": "address"
        },
        {
          "internalType": "uint256",
          "name": "_amount",
          "type": "uint256"
        }
      ],
      "name": "transfer",
      "outputs": [],
      "stateMutability": "nonpayable",
      "type": "function"
    },
    {
      "inputs": [
        {
          "internalType": "address",
          "name": "newOwner",
          "type": "address"
        }
      ],
      "name": "transferOwnership",
      "outputs": [],
      "stateMutability": "nonpayable",
      "type": "function"
    },
    {
      "inputs": [
        {
          "internalType": "address",
          "name": "_token",
          "type": "address"
        },
        {
          "internalType": "uint256",
          "name": "_amount",
          "type": "uint256"
        }
      ],
      "name": "withdraw",
      "outputs": [],
      "stateMutability": "nonpayable",
      "type": "function"
    }
  ],
  "bytecode": "0x60806040523480156200001157600080fd5b5060006200001e620000ac565b600080546001600160a01b0319166001600160a01b0383169081178255604051929350917f8be0079c531659141344cd1fd0a4f28419497f9722a3daafe3b4186f6b6457e0908290a350620000a66040518060400160405280601081526020016f2a283b189031b7b739ba393ab1ba37b960811b815250620000b060201b62001be61760201c565b62000184565b3390565b62000160816040516024018080602001828103825283818151815260200191508051906020019080838360005b83811015620000f7578181015183820152602001620000dd565b50505050905090810190601f168015620001255780820380516001836020036101000a031916815260200191505b5060408051601f198184030181529190526020810180516001600160e01b0390811663104c13eb60e21b179091529093506200016316915050565b50565b80516a636f6e736f6c652e6c6f67602083016000808483855afa5050505050565b611eb880620001946000396000f3fe608060405234801561001057600080fd5b506004361061012c5760003560e01c8063beabacc8116100ad578063dc7cce5b11610071578063dc7cce5b14610650578063e74b981b14610586578063f1bb7f5114610729578063f2fde38b146107d8578063f3fef3a3146107fe5761012c565b8063beabacc814610496578063c062b35b146104cc578063c97fdae11461057e578063d6c3c03414610586578063d85d3d27146105ac5761012c565b8063715018a6116100f4578063715018a61461031357806380f8c48b1461031b57806389b9620e146103385780638da5cb5b146103dc578063b795d28c146103e45761012c565b806330c7a451146101315780633293b61914610171578063469048401461021257806347e7ef241461023657806357bcc02014610264575b600080fd5b61015f6004803603604081101561014757600080fd5b506001600160a01b038135811691602001351661082a565b60408051918252519081900360200190f35b61019d6004803603604081101561018757600080fd5b506001600160a01b038135169060200135610847565b6040805160208082528351818301528351919283929083019185019080838360005b838110156101d75781810151838201526020016101bf565b50505050905090810190601f1680156102045780820380516001836020036101000a031916815260200191505b509250505060405180910390f35b61021a6108fe565b604080516001600160a01b039092168252519081900360200190f35b6102626004803603604081101561024c57600080fd5b506001600160a01b03813516906020013561090d565b005b61015f6004803603604081101561027a57600080fd5b810190602081018135600160201b81111561029457600080fd5b8201836020820111156102a657600080fd5b803590602001918460018302840111600160201b831117156102c757600080fd5b91908080601f016020809104026020016040519081016040528093929190818152602001838380828437600092019190915250929550505090356001600160a01b03169150610aa39050565b610262610ad0565b61019d6004803603602081101561033157600080fd5b5035610b8e565b61021a6004803603602081101561034e57600080fd5b810190602081018135600160201b81111561036857600080fd5b82018360208201111561037a57600080fd5b803590602001918460018302840111600160201b8311171561039b57600080fd5b91908080601f016020809104026020016040519081016040528093929190818152602001838380828437600092019190915250929550610c04945050505050565b61021a610c2a565b610262600480360360608110156103fa57600080fd5b810190602081018135600160201b81111561041457600080fd5b82018360208201111561042657600080fd5b803590602001918460018302840111600160201b8311171561044757600080fd5b91908080601f016020809104026020016040519081016040528093929190818152602001838380828437600092019190915250929550506001600160a01b038335169350505060200135610c39565b610262600480360360608110156104ac57600080fd5b506001600160a01b03813581169160208101359091169060400135610f7e565b610262600480360360608110156104e257600080fd5b810190602081018135600160201b8111156104fc57600080fd5b82018360208201111561050e57600080fd5b803590602001918460018302840111600160201b8311171561052f57600080fd5b91908080601f016020809104026020016040519081016040528093929190818152602001838380828437600092019190915250929550506001600160a01b038335169350505060200135610fdf565b61021a61129d565b6102626004803603602081101561059c57600080fd5b50356001600160a01b03166112ac565b610262600480360360208110156105c257600080fd5b810190602081018135600160201b8111156105dc57600080fd5b8201836020820111156105ee57600080fd5b803590602001918460018302840111600160201b8311171561060f57600080fd5b91908080601f01602080910402602001604051908101604052809392919081815260200183838082843760009201919091525092955061131f945050505050565b6107066004803603606081101561066657600080fd5b6001600160a01b038235169190810190604081016020820135600160201b81111561069057600080fd5b8201836020820111156106a257600080fd5b803590602001918460018302840111600160201b831117156106c357600080fd5b91908080601f0160208091040260200160405190810160405280939291908181526020018383808284376000920191909152509295505091359250611582915050565b604080516001600160a01b03909316835260208301919091528051918290030190f35b6102626004803603604081101561073f57600080fd5b810190602081018135600160201b81111561075957600080fd5b82018360208201111561076b57600080fd5b803590602001918460018302840111600160201b8311171561078c57600080fd5b91908080601f016020809104026020016040519081016040528093929190818152602001838380828437600092019190915250929550505090356001600160a01b031691506115e59050565b610262600480360360208110156107ee57600080fd5b50356001600160a01b031661196b565b6102626004803603604081101561081457600080fd5b506001600160a01b038135169060200135611a7f565b600360209081526000928352604080842090915290825290205481565b6006602052816000526040600020818154811061086357600080fd5b600091825260209182902001805460408051601f600260001961010060018716150201909416939093049283018590048502810185019091528181529450909250908301828280156108f65780601f106108cb576101008083540402835291602001916108f6565b820191906000526020600020905b8154815290600101906020018083116108d957829003601f168201915b505050505081565b6001546001600160a01b031681565b60008111610962576040805162461bcd60e51b815260206004820152601c60248201527f545076313a20494c4c4547414c204445504f53495420414d4f554e5400000000604482015290519081900360640190fd5b3360009081526003602090815260408083206001600160a01b0386168452909152812054156109b157503360009081526003602090815260408083206001600160a01b03861684529091529020545b604080516323b872dd60e01b815233600482015230602482015260448101849052905184916001600160a01b038316916323b872dd916064808201926020929091908290030181600087803b158015610a0957600080fd5b505af1158015610a1d573d6000803e3d6000fd5b505050506040513d6020811015610a3357600080fd5b50503360008181526003602090815260408083206001600160a01b038916808552908352928190208688019055805193845290830191909152818101859052517f5548c837ab068cf56a2c2479df0882a4922fd203edb7517321831d95078c5f629181900360600190a150505050565b81516020818401810180516004825292820194820194909420919093529091526000908152604090205481565b610ad8611c8f565b6001600160a01b0316610ae9610c2a565b6001600160a01b031614610b44576040805162461bcd60e51b815260206004820181905260248201527f4f776e61626c653a2063616c6c6572206973206e6f7420746865206f776e6572604482015290519081900360640190fd5b600080546040516001600160a01b03909116907f8be0079c531659141344cd1fd0a4f28419497f9722a3daafe3b4186f6b6457e0908390a3600080546001600160a01b0319169055565b60078181548110610b9e57600080fd5b600091825260209182902001805460408051601f60026000196101006001871615020190941693909304928301859004850281018501909152818152935090918301828280156108f65780601f106108cb576101008083540402835291602001916108f6565b80516020818301810180516005825292820191909301209152546001600160a01b031681565b6000546001600160a01b031690565b336001600160a01b03166005846040518082805190602001908083835b60208310610c755780518252601f199092019160209182019101610c56565b51815160209384036101000a60001901801990921691161790529201948552506040519384900301909220546001600160a01b0316929092149150610cf89050576040805162461bcd60e51b815260206004820152601260248201527115141d8c4e8815539055551213d49256915160721b604482015290519081900360640190fd5b60006004846040518082805190602001908083835b60208310610d2c5780518252601f199092019160209182019101610d0d565b51815160209384036101000a6000190180199092169116179052920194855250604080519485900382019094206001600160a01b0388166000908152915292909220549250505081811015610dc8576040805162461bcd60e51b815260206004820152601d60248201527f545076313a20494e53554646494349454e542054502042414c414e4345000000604482015290519081900360640190fd5b816004856040518082805190602001908083835b60208310610dfb5780518252601f199092019160209182019101610ddc565b51815160209384036101000a60001901801990921691161790529201948552506040805194859003820185206001600160a01b038a16600090815290835220548951959003946004948a9450925082918401908083835b60208310610e715780518252601f199092019160209182019101610e52565b51815160209384036101000a60001901801990921691161790529201948552506040805194859003820185206001600160a01b038a1660008181529184528282209790975533815260038352818120878252835281812080548a019055858301969096528401879052606080855289519085015288517f0bd2df912f4aa5f26366b1353a4e72d5b7988935634dcaf30a698385c41c0ca3958a958a95508994509283926080840192918801918190849084905b83811015610f3c578181015183820152602001610f24565b50505050905090810190601f168015610f695780820380516001836020036101000a031916815260200191505b5094505050505060405180910390a150505050565b610f8a83338484611c93565b604080516001600160a01b0380861682523360208301528416818301526060810183905290517fd1398bee19313d6bf672ccb116e51f4a1a947e91c757907f51fbb5b5e56c698f9181900360800190a1505050565b336001600160a01b03166005846040518082805190602001908083835b6020831061101b5780518252601f199092019160209182019101610ffc565b51815160209384036101000a60001901801990921691161790529201948552506040519384900301909220546001600160a01b031692909214915061109e9050576040805162461bcd60e51b815260206004820152601260248201527115141d8c4e8815539055551213d49256915160721b604482015290519081900360640190fd5b3360009081526003602090815260408083206001600160a01b038616845290915290205481811015611117576040805162461bcd60e51b815260206004820152601f60248201527f545076313a20494e53554646494349454e5420424f4f4b2042414c414e434500604482015290519081900360640190fd5b3360009081526003602090815260408083206001600160a01b038716845282529182902080548590039055905185518492600492889290918291908401908083835b602083106111785780518252601f199092019160209182019101611159565b51815160209384036101000a60001901801990921691161790529201948552506040805194859003820185206001600160a01b038a166000908152908352205489519501946004948a9450925082918401908083835b602083106111ed5780518252601f1990920191602091820191016111ce565b51815160209384036101000a60001901801990921691161790529201948552506040805194859003820185206001600160a01b038a16600081815291845282822097909755858301969096528401879052606080855289519085015288517f43e6f72b1076821a74d5e9628ec0044cb5bebc60c8be905a37382d310bbc0f9d958a958a95508994509283926080840192918801918190849084908315610f3c578181015183820152602001610f24565b6002546001600160a01b031681565b6001546001600160a01b031633146112fd576040805162461bcd60e51b815260206004820152600f60248201526e2a283b189d102327a92124a22222a760891b604482015290519081900360640190fd5b600180546001600160a01b0319166001600160a01b0392909216919091179055565b60006001600160a01b03166005826040518082805190602001908083835b6020831061135c5780518252601f19909201916020918201910161133d565b51815160209384036101000a60001901801990921691161790529201948552506040519384900301909220546001600160a01b03169290921491506113df9050576040805162461bcd60e51b8152602060048201526012602482015271545076313a20544f4b454e5f45584953545360701b604482015290519081900360640190fd5b336005826040518082805190602001908083835b602083106114125780518252601f1990920191602091820191016113f3565b51815160209384036101000a60001901801990921691161790529201948552506040805194859003820190942080546001600160a01b0319166001600160a01b039690961695909517909455505033600090815260068352908120805460018101825590825290829020835161149093919092019190840190611d7b565b506007805460018101825560009190915281516114d4917fa66cc928b5edb82af9bd49922954155ab7b0942694bea4ce44661d9a8736c68801906020840190611d7b565b507f79b04a02d84fec4f53dec01c843dee92deee8a6d7dc31a65ae8c2c6b60200cf381336040518080602001836001600160a01b03168152602001828103825284818151815260200191508051906020019080838360005b8381101561154457818101518382015260200161152c565b50505050905090810190601f1680156115715780820380516001836020036101000a031916815260200191505b50935050505060405180910390a150565b600860209081526000848152604090208351808501830180519281529083019285019290922091528054829081106115b957600080fd5b6000918252602090912060029091020180546001909101546001600160a01b0390911693509150839050565b336001600160a01b03166005836040518082805190602001908083835b602083106116215780518252601f199092019160209182019101611602565b51815160209384036101000a60001901801990921691161790529201948552506040519384900301909220546001600160a01b03169290921491506116a49050576040805162461bcd60e51b815260206004820152601260248201527115141d8c4e8815539055551213d49256915160721b604482015290519081900360640190fd5b60005b826040516020018082805190602001908083835b602083106116da5780518252601f1990920191602091820191016116bb565b6001836020036101000a0380198251168184511680821785525050505050509050019150506040516020818303038152906040528051906020012060066000336001600160a01b03166001600160a01b03168152602001908152602001600020828154811061174557fe5b9060005260206000200160405160200180828054600181600116156101000203166002900480156117ad5780601f1061178b5761010080835404028352918201916117ad565b820191906000526020600020905b815481529060010190602001808311611799575b505091505060405160208183030381529060405280519060200120146117d5576001016116a7565b3360009081526006602052604090208054829081106117f057fe5b9060005260206000200160006118069190611e07565b6001600160a01b038216600090815260066020908152604082208054600181018255908352918190208551611842939190910191860190611d7b565b50816005846040518082805190602001908083835b602083106118765780518252601f199092019160209182019101611857565b51815160209384036101000a600019018019909216911617905292019485525060408051948590038201852080546001600160a01b0319166001600160a01b039788161790553385830181905295881690850152606080855288519085015287517fe76375c57eef426276019091544847f973c885ebf3202e77e8430f0aa7ad6a1f958995909450889350918291608083019187019080838360005b8381101561192a578181015183820152602001611912565b50505050905090810190601f1680156119575780820380516001836020036101000a031916815260200191505b5094505050505060405180910390a1505050565b611973611c8f565b6001600160a01b0316611984610c2a565b6001600160a01b0316146119df576040805162461bcd60e51b815260206004820181905260248201527f4f776e61626c653a2063616c6c6572206973206e6f7420746865206f776e6572604482015290519081900360640190fd5b6001600160a01b038116611a245760405162461bcd60e51b8152600401808060200182810382526026815260200180611e5d6026913960400191505060405180910390fd5b600080546040516001600160a01b03808516939216917f8be0079c531659141344cd1fd0a4f28419497f9722a3daafe3b4186f6b6457e091a3600080546001600160a01b0319166001600160a01b0392909216919091179055565b3360009081526003602090815260408083206001600160a01b038616845290915290205481811015611af8576040805162461bcd60e51b815260206004820152601f60248201527f545076313a20494e53554646494349454e5420424f4f4b2042414c414e434500604482015290519081900360640190fd5b6040805163a9059cbb60e01b815233600482015260248101849052905184916001600160a01b0383169163a9059cbb916044808201926020929091908290030181600087803b158015611b4a57600080fd5b505af1158015611b5e573d6000803e3d6000fd5b505050506040513d6020811015611b7457600080fd5b50503360008181526003602090815260408083206001600160a01b0389168085529083529281902080548890039055805193845290830191909152818101859052517f2717ead6b9200dd235aad468c9809ea400fe33ac69b5bfaa6d3e90fc922b63989181900360600190a150505050565b611c8c816040516024018080602001828103825283818151815260200191508051906020019080838360005b83811015611c2a578181015183820152602001611c12565b50505050905090810190601f168015611c575780820380516001836020036101000a031916815260200191505b5060408051601f198184030181529190526020810180516001600160e01b031663104c13eb60e21b1790529250611d5a915050565b50565b3390565b6001600160a01b03808416600090815260036020908152604080832093881683529290522054811115611d0d576040805162461bcd60e51b815260206004820152601860248201527f545076313a20494e53554646494349454e542046554e44530000000000000000604482015290519081900360640190fd5b6001600160a01b0392831660009081526003602081815260408084209787168085529782528084208054869003905594909516825284528281209481529390925290912080549091019055565b80516a636f6e736f6c652e6c6f67602083016000808483855afa5050505050565b828054600181600116156101000203166002900490600052602060002090601f016020900481019282611db15760008555611df7565b82601f10611dca57805160ff1916838001178555611df7565b82800160010185558215611df7579182015b82811115611df7578251825591602001919060010190611ddc565b50611e03929150611e47565b5090565b50805460018160011615610100020316600290046000825580601f10611e2d5750611c8c565b601f016020900490600052602060002090810190611c8c91905b5b80821115611e035760008155600101611e4856fe4f776e61626c653a206e6577206f776e657220697320746865207a65726f2061646472657373a26469706673582212206bbdc281b7bc9151e371bf2688b915c74c796b9ce28d367e6c27a1c2ca06227c64736f6c63430007060033",
  "linkReferences": {},
  "deployedLinkReferences": {}
}