{
  "_format": "hh-sol-artifact-1",
  "contractName": "FullMathTest",
  "sourceName": "contracts/library/Uniswap/lib/contracts/test/FullMathTest.sol",
  "abi": [
    {
      "inputs": [
        {
          "internalType": "uint256",
          "name": "x",
          "type": "uint256"
        },
        {
          "internalType": "uint256",
          "name": "y",
          "type": "uint256"
        },
        {
          "internalType": "uint256",
          "name": "z",
          "type": "uint256"
        }
      ],
      "name": "mulDiv",
      "outputs": [
        {
          "internalType": "uint256",
          "name": "",
          "type": "uint256"
        }
      ],
      "stateMutability": "pure",
      "type": "function"
    },
    {
      "inputs": [
        {
          "internalType": "uint256",
          "name": "x",
          "type": "uint256"
        },
        {
          "internalType": "uint256",
          "name": "y",
          "type": "uint256"
        },
        {
          "internalType": "uint256",
          "name": "z",
          "type": "uint256"
        }
      ],
      "name": "mulDivRoundingUp",
      "outputs": [
        {
          "internalType": "uint256",
          "name": "",
          "type": "uint256"
        }
      ],
      "stateMutability": "pure",
      "type": "function"
    }
  ],
  "bytecode": "0x608060405234801561001057600080fd5b5061027c806100206000396000f3fe608060405234801561001057600080fd5b50600436106100365760003560e01c80630af8b27f1461003b578063aa9a091214610076575b600080fd5b6100646004803603606081101561005157600080fd5b508035906020810135906040013561009f565b60408051918252519081900360200190f35b6100646004803603606081101561008c57600080fd5b50803590602081013590604001356100db565b600080600083806100ac57fe5b858709119050806100be5760006100c1565b60015b60ff166100cf8686866100f0565b019150505b9392505050565b60006100e88484846100f0565b949350505050565b60008060006100ff86866101a9565b915091506000848061010d57fe5b868809905082811115610121576001820391505b91829003918161013f5784838161013457fe5b0493505050506100d4565b848210610193576040805162461bcd60e51b815260206004820152601a60248201527f46756c6c4d6174683a2046554c4c4449565f4f564552464c4f57000000000000604482015290519081900360640190fd5b61019e8383876101d6565b979650505050505050565b60008080600019848609905083850292508281039150828110156101ce576001820391505b509250929050565b600081810382168083816101e657fe5b0492508085816101f257fe5b04945080816000038161020157fe5b6002858103808702820302808702820302808702820302808702820302808702820302808702820302958602900390940293046001019390930293909301029291505056fea26469706673582212206ac6ed25c9050570ea65946e7bf6ec47b798c6f3b4e9e7a9db65e11096e2564764736f6c63430007060033",
  "linkReferences": {},
  "deployedLinkReferences": {}
}