{
  "_format": "hh-sol-artifact-1",
  "contractName": "DOXv1",
  "sourceName": "contracts/DOXv1.sol",
  "abi": [
    {
      "inputs": [
        {
          "internalType": "address",
          "name": "token0",
          "type": "address"
        },
        {
          "internalType": "address",
          "name": "token1",
          "type": "address"
        },
        {
          "internalType": "address",
          "name": "token2",
          "type": "address"
        }
      ],
      "stateMutability": "nonpayable",
      "type": "constructor"
    },
    {
      "anonymous": false,
      "inputs": [
        {
          "indexed": false,
          "internalType": "string",
          "name": "symbol_",
          "type": "string"
        },
        {
          "indexed": false,
          "internalType": "address",
          "name": "from_",
          "type": "address"
        },
        {
          "indexed": false,
          "internalType": "address",
          "name": "to_",
          "type": "address"
        }
      ],
      "name": "Assign",
      "type": "event"
    },
    {
      "anonymous": false,
      "inputs": [
        {
          "indexed": false,
          "internalType": "address",
          "name": "account_",
          "type": "address"
        },
        {
          "indexed": false,
          "internalType": "address",
          "name": "token_",
          "type": "address"
        },
        {
          "indexed": false,
          "internalType": "uint256",
          "name": "amount_",
          "type": "uint256"
        }
      ],
      "name": "Deposit",
      "type": "event"
    },
    {
      "anonymous": false,
      "inputs": [
        {
          "indexed": false,
          "internalType": "string",
          "name": "symbol_",
          "type": "string"
        },
        {
          "indexed": false,
          "internalType": "address",
          "name": "token_",
          "type": "address"
        },
        {
          "indexed": false,
          "internalType": "uint256",
          "name": "amount_",
          "type": "uint256"
        }
      ],
      "name": "Drain",
      "type": "event"
    },
    {
      "anonymous": false,
      "inputs": [
        {
          "indexed": false,
          "internalType": "string",
          "name": "symbol_",
          "type": "string"
        },
        {
          "indexed": false,
          "internalType": "address",
          "name": "token_",
          "type": "address"
        },
        {
          "indexed": false,
          "internalType": "uint256",
          "name": "amount_",
          "type": "uint256"
        }
      ],
      "name": "Fill",
      "type": "event"
    },
    {
      "anonymous": false,
      "inputs": [
        {
          "indexed": false,
          "internalType": "string",
          "name": "symbol_",
          "type": "string"
        },
        {
          "indexed": false,
          "internalType": "address",
          "name": "account_",
          "type": "address"
        }
      ],
      "name": "Mint",
      "type": "event"
    },
    {
      "anonymous": false,
      "inputs": [
        {
          "indexed": true,
          "internalType": "address",
          "name": "previousOwner",
          "type": "address"
        },
        {
          "indexed": true,
          "internalType": "address",
          "name": "newOwner",
          "type": "address"
        }
      ],
      "name": "OwnershipTransferred",
      "type": "event"
    },
    {
      "anonymous": false,
      "inputs": [
        {
          "indexed": false,
          "internalType": "address",
          "name": "account_",
          "type": "address"
        },
        {
          "indexed": false,
          "internalType": "address",
          "name": "tokenHave_",
          "type": "address"
        },
        {
          "indexed": false,
          "internalType": "address",
          "name": "tokenWant_",
          "type": "address"
        },
        {
          "indexed": false,
          "internalType": "uint256",
          "name": "input_",
          "type": "uint256"
        },
        {
          "indexed": false,
          "internalType": "uint256",
          "name": "output_",
          "type": "uint256"
        }
      ],
      "name": "Swap",
      "type": "event"
    },
    {
      "anonymous": false,
      "inputs": [
        {
          "indexed": false,
          "internalType": "address",
          "name": "token_",
          "type": "address"
        },
        {
          "indexed": false,
          "internalType": "address",
          "name": "from_",
          "type": "address"
        },
        {
          "indexed": false,
          "internalType": "address",
          "name": "to_",
          "type": "address"
        },
        {
          "indexed": false,
          "internalType": "uint256",
          "name": "amount_",
          "type": "uint256"
        }
      ],
      "name": "Transfer",
      "type": "event"
    },
    {
      "anonymous": false,
      "inputs": [
        {
          "indexed": false,
          "internalType": "address",
          "name": "account_",
          "type": "address"
        },
        {
          "indexed": false,
          "internalType": "address",
          "name": "token_",
          "type": "address"
        },
        {
          "indexed": false,
          "internalType": "uint256",
          "name": "amount_",
          "type": "uint256"
        }
      ],
      "name": "Withdrawal",
      "type": "event"
    },
    {
      "inputs": [
        {
          "internalType": "string",
          "name": "_symbol",
          "type": "string"
        },
        {
          "internalType": "address",
          "name": "_to",
          "type": "address"
        }
      ],
      "name": "assign",
      "outputs": [],
      "stateMutability": "nonpayable",
      "type": "function"
    },
    {
      "inputs": [
        {
          "internalType": "address",
          "name": "_token",
          "type": "address"
        },
        {
          "internalType": "uint256",
          "name": "_amount",
          "type": "uint256"
        }
      ],
      "name": "deposit",
      "outputs": [],
      "stateMutability": "nonpayable",
      "type": "function"
    },
    {
      "inputs": [
        {
          "internalType": "string",
          "name": "_symbol",
          "type": "string"
        },
        {
          "internalType": "address",
          "name": "_token",
          "type": "address"
        },
        {
          "internalType": "uint256",
          "name": "_amount",
          "type": "uint256"
        }
      ],
      "name": "drain",
      "outputs": [],
      "stateMutability": "nonpayable",
      "type": "function"
    },
    {
      "inputs": [],
      "name": "feeRecipient",
      "outputs": [
        {
          "internalType": "address",
          "name": "",
          "type": "address"
        }
      ],
      "stateMutability": "view",
      "type": "function"
    },
    {
      "inputs": [],
      "name": "feeRecipientSetter",
      "outputs": [
        {
          "internalType": "address",
          "name": "",
          "type": "address"
        }
      ],
      "stateMutability": "view",
      "type": "function"
    },
    {
      "inputs": [
        {
          "internalType": "string",
          "name": "_symbol",
          "type": "string"
        },
        {
          "internalType": "address",
          "name": "_token",
          "type": "address"
        },
        {
          "internalType": "uint256",
          "name": "_amount",
          "type": "uint256"
        }
      ],
      "name": "fill",
      "outputs": [],
      "stateMutability": "nonpayable",
      "type": "function"
    },
    {
      "inputs": [
        {
          "internalType": "address",
          "name": "",
          "type": "address"
        },
        {
          "internalType": "address",
          "name": "",
          "type": "address"
        }
      ],
      "name": "getBook",
      "outputs": [
        {
          "internalType": "uint256",
          "name": "",
          "type": "uint256"
        }
      ],
      "stateMutability": "view",
      "type": "function"
    },
    {
      "inputs": [
        {
          "internalType": "address",
          "name": "",
          "type": "address"
        },
        {
          "internalType": "address",
          "name": "",
          "type": "address"
        }
      ],
      "name": "getCPI",
      "outputs": [
        {
          "internalType": "uint256",
          "name": "x",
          "type": "uint256"
        },
        {
          "internalType": "uint256",
          "name": "y",
          "type": "uint256"
        },
        {
          "internalType": "uint256",
          "name": "k",
          "type": "uint256"
        }
      ],
      "stateMutability": "view",
      "type": "function"
    },
    {
      "inputs": [
        {
          "internalType": "address",
          "name": "",
          "type": "address"
        },
        {
          "internalType": "string",
          "name": "",
          "type": "string"
        },
        {
          "internalType": "uint256",
          "name": "",
          "type": "uint256"
        }
      ],
      "name": "getOffers",
      "outputs": [
        {
          "internalType": "address",
          "name": "account",
          "type": "address"
        },
        {
          "internalType": "uint256",
          "name": "amount",
          "type": "uint256"
        }
      ],
      "stateMutability": "view",
      "type": "function"
    },
    {
      "inputs": [
        {
          "internalType": "address",
          "name": "",
          "type": "address"
        },
        {
          "internalType": "uint256",
          "name": "",
          "type": "uint256"
        }
      ],
      "name": "getOwnerTps",
      "outputs": [
        {
          "internalType": "string",
          "name": "",
          "type": "string"
        }
      ],
      "stateMutability": "view",
      "type": "function"
    },
    {
      "inputs": [
        {
          "internalType": "string",
          "name": "",
          "type": "string"
        },
        {
          "internalType": "address",
          "name": "",
          "type": "address"
        }
      ],
      "name": "getTp",
      "outputs": [
        {
          "internalType": "uint256",
          "name": "",
          "type": "uint256"
        }
      ],
      "stateMutability": "view",
      "type": "function"
    },
    {
      "inputs": [
        {
          "internalType": "string",
          "name": "",
          "type": "string"
        }
      ],
      "name": "getTpOwner",
      "outputs": [
        {
          "internalType": "address",
          "name": "",
          "type": "address"
        }
      ],
      "stateMutability": "view",
      "type": "function"
    },
    {
      "inputs": [
        {
          "internalType": "string",
          "name": "_symbol",
          "type": "string"
        }
      ],
      "name": "mint",
      "outputs": [],
      "stateMutability": "nonpayable",
      "type": "function"
    },
    {
      "inputs": [],
      "name": "owner",
      "outputs": [
        {
          "internalType": "address",
          "name": "",
          "type": "address"
        }
      ],
      "stateMutability": "view",
      "type": "function"
    },
    {
      "inputs": [],
      "name": "renounceOwnership",
      "outputs": [],
      "stateMutability": "nonpayable",
      "type": "function"
    },
    {
      "inputs": [
        {
          "internalType": "address",
          "name": "_feeRecipient",
          "type": "address"
        }
      ],
      "name": "setFeeRecipient",
      "outputs": [],
      "stateMutability": "nonpayable",
      "type": "function"
    },
    {
      "inputs": [
        {
          "internalType": "address",
          "name": "_feeRecipientSetter",
          "type": "address"
        }
      ],
      "name": "setFeeRecipientSetter",
      "outputs": [],
      "stateMutability": "nonpayable",
      "type": "function"
    },
    {
      "inputs": [
        {
          "internalType": "address",
          "name": "_account",
          "type": "address"
        },
        {
          "internalType": "address",
          "name": "_token0",
          "type": "address"
        },
        {
          "internalType": "address",
          "name": "_token1",
          "type": "address"
        },
        {
          "internalType": "uint256",
          "name": "_give",
          "type": "uint256"
        }
      ],
      "name": "swap",
      "outputs": [],
      "stateMutability": "nonpayable",
      "type": "function"
    },
    {
      "inputs": [
        {
          "internalType": "uint256",
          "name": "",
          "type": "uint256"
        }
      ],
      "name": "tpList",
      "outputs": [
        {
          "internalType": "string",
          "name": "",
          "type": "string"
        }
      ],
      "stateMutability": "view",
      "type": "function"
    },
    {
      "inputs": [
        {
          "internalType": "address",
          "name": "_token",
          "type": "address"
        },
        {
          "internalType": "address",
          "name": "_to",
          "type": "address"
        },
        {
          "internalType": "uint256",
          "name": "_amount",
          "type": "uint256"
        }
      ],
      "name": "transfer",
      "outputs": [],
      "stateMutability": "nonpayable",
      "type": "function"
    },
    {
      "inputs": [
        {
          "internalType": "address",
          "name": "newOwner",
          "type": "address"
        }
      ],
      "name": "transferOwnership",
      "outputs": [],
      "stateMutability": "nonpayable",
      "type": "function"
    },
    {
      "inputs": [
        {
          "internalType": "address",
          "name": "_token",
          "type": "address"
        },
        {
          "internalType": "uint256",
          "name": "_amount",
          "type": "uint256"
        }
      ],
      "name": "withdraw",
      "outputs": [],
      "stateMutability": "nonpayable",
      "type": "function"
    }
  ],
  "bytecode": "0x608060405260016003553480156200001657600080fd5b5060405162002e6838038062002e68833981810160405260608110156200003c57600080fd5b508051602082015160409092015190919060006200005962000149565b600080546001600160a01b0319166001600160a01b0383169081178255604051929350917f8be0079c531659141344cd1fd0a4f28419497f9722a3daafe3b4186f6b6457e0908290a350620000e2604051806040016040528060118152602001702227ac3b189031b7b739ba393ab1ba37b960791b8152506200014d60201b6200207f1760201c565b620000ec62000366565b620f4240808252602082015264e8d4a5100060408201526200011084848362000200565b6200011a62000366565b620f4240808252602082015264e8d4a5100060408201526200013e84848362000200565b505050505062000387565b3390565b620001fd816040516024018080602001828103825283818151815260200191508051906020019080838360005b83811015620001945781810151838201526020016200017a565b50505050905090810190601f168015620001c25780820380516001836020036101000a031916815260200191505b5060408051601f198184030181529190526020810180516001600160e01b0390811663104c13eb60e21b179091529093506200034516915050565b50565b6001600160a01b038316158015906200022157506001600160a01b03821615155b6200025e5760405162461bcd60e51b815260040180806020018281038252602181526020018062002e476021913960400191505060405180910390fd5b6040810151620002b5576040805162461bcd60e51b815260206004820152601760248201527f444f5876313a20494e56414c4944204350492044415441000000000000000000604482015290519081900360640190fd5b6000826001600160a01b0316846001600160a01b031610620002d85782620002da565b835b90506000836001600160a01b0316856001600160a01b031610620002ff578462000301565b835b6001600160a01b039283166000908152600a602090815260408083209590931682529384528190208451815592840151600184015590920151600290910155505050565b80516a636f6e736f6c652e6c6f67602083016000808483855afa5050505050565b60405180606001604052806000815260200160008152602001600081525090565b612ab080620003976000396000f3fe608060405234801561001057600080fd5b50600436106101425760003560e01c8063b795d28c116100b8578063d85d3d271161007c578063d85d3d271461064a578063dc7cce5b146106ee578063e74b981b14610624578063f1bb7f51146107c7578063f2fde38b14610876578063f3fef3a31461089c57610142565b8063b795d28c14610482578063beabacc814610534578063c062b35b1461056a578063c97fdae11461061c578063d6c3c0341461062457610142565b806357bcc0201161010a57806357bcc020146102c6578063715018a61461037557806380f8c48b1461037d57806389b9620e1461039a5780638da5cb5b1461043e578063a9678a181461044657610142565b806310c3c6101461014757806330c7a451146101935780633293b619146101d3578063469048401461027457806347e7ef2414610298575b600080fd5b6101756004803603604081101561015d57600080fd5b506001600160a01b03813581169160200135166108c8565b60408051938452602084019290925282820152519081900360600190f35b6101c1600480360360408110156101a957600080fd5b506001600160a01b03813581169160200135166108f4565b60408051918252519081900360200190f35b6101ff600480360360408110156101e957600080fd5b506001600160a01b038135169060200135610911565b6040805160208082528351818301528351919283929083019185019080838360005b83811015610239578181015183820152602001610221565b50505050905090810190601f1680156102665780820380516001836020036101000a031916815260200191505b509250505060405180910390f35b61027c6109c8565b604080516001600160a01b039092168252519081900360200190f35b6102c4600480360360408110156102ae57600080fd5b506001600160a01b0381351690602001356109d7565b005b6101c1600480360360408110156102dc57600080fd5b810190602081018135600160201b8111156102f657600080fd5b82018360208201111561030857600080fd5b803590602001918460018302840111600160201b8311171561032957600080fd5b91908080601f016020809104026020016040519081016040528093929190818152602001838380828437600092019190915250929550505090356001600160a01b03169150610bc29050565b6102c4610bef565b6101ff6004803603602081101561039357600080fd5b5035610cad565b61027c600480360360208110156103b057600080fd5b810190602081018135600160201b8111156103ca57600080fd5b8201836020820111156103dc57600080fd5b803590602001918460018302840111600160201b831117156103fd57600080fd5b91908080601f016020809104026020016040519081016040528093929190818152602001838380828437600092019190915250929550610d23945050505050565b61027c610d49565b6102c46004803603608081101561045c57600080fd5b506001600160a01b03813581169160208101358216916040820135169060600135610d58565b6102c46004803603606081101561049857600080fd5b810190602081018135600160201b8111156104b257600080fd5b8201836020820111156104c457600080fd5b803590602001918460018302840111600160201b831117156104e557600080fd5b91908080601f016020809104026020016040519081016040528093929190818152602001838380828437600092019190915250929550506001600160a01b038335169350505060200135610e69565b6102c46004803603606081101561054a57600080fd5b506001600160a01b03813581169160208101359091169060400135611237565b6102c46004803603606081101561058057600080fd5b810190602081018135600160201b81111561059a57600080fd5b8201836020820111156105ac57600080fd5b803590602001918460018302840111600160201b831117156105cd57600080fd5b91908080601f016020809104026020016040519081016040528093929190818152602001838380828437600092019190915250929550506001600160a01b0383351693505050602001356112e9565b61027c611625565b6102c46004803603602081101561063a57600080fd5b50356001600160a01b0316611634565b6102c46004803603602081101561066057600080fd5b810190602081018135600160201b81111561067a57600080fd5b82018360208201111561068c57600080fd5b803590602001918460018302840111600160201b831117156106ad57600080fd5b91908080601f0160208091040260200160405190810160405280939291908181526020018383808284376000920191909152509295506116a8945050505050565b6107a46004803603606081101561070457600080fd5b6001600160a01b038235169190810190604081016020820135600160201b81111561072e57600080fd5b82018360208201111561074057600080fd5b803590602001918460018302840111600160201b8311171561076157600080fd5b91908080601f0160208091040260200160405190810160405280939291908181526020018383808284376000920191909152509295505091359250611956915050565b604080516001600160a01b03909316835260208301919091528051918290030190f35b6102c4600480360360408110156107dd57600080fd5b810190602081018135600160201b8111156107f757600080fd5b82018360208201111561080957600080fd5b803590602001918460018302840111600160201b8311171561082a57600080fd5b91908080601f016020809104026020016040519081016040528093929190818152602001838380828437600092019190915250929550505090356001600160a01b031691506119b99050565b6102c46004803603602081101561088c57600080fd5b50356001600160a01b0316611d8c565b6102c4600480360360408110156108b257600080fd5b506001600160a01b038135169060200135611ea0565b600a60209081526000928352604080842090915290825290208054600182015460029092015490919083565b600460209081526000928352604080842090915290825290205481565b6007602052816000526040600020818154811061092d57600080fd5b600091825260209182902001805460408051601f600260001961010060018716150201909416939093049283018590048502810185019091528181529450909250908301828280156109c05780601f10610995576101008083540402835291602001916109c0565b820191906000526020600020905b8154815290600101906020018083116109a357829003601f168201915b505050505081565b6001546001600160a01b031681565b600354600114610a1e576040805162461bcd60e51b815260206004820152600d60248201526c1113d61d8c4e881313d0d2d151609a1b604482015290519081900360640190fd5b600060035580610a75576040805162461bcd60e51b815260206004820152601d60248201527f444f5876313a20494c4c4547414c204445504f53495420414d4f554e54000000604482015290519081900360640190fd5b3360009081526004602090815260408083206001600160a01b038616845290915281205415610ac457503360009081526004602090815260408083206001600160a01b03861684529091529020545b604080516323b872dd60e01b815233600482015230602482015260448101849052905184916001600160a01b038316916323b872dd916064808201926020929091908290030181600087803b158015610b1c57600080fd5b505af1158015610b30573d6000803e3d6000fd5b505050506040513d6020811015610b4657600080fd5b50610b5390508284612128565b3360008181526004602090815260408083206001600160a01b038a168085529083529281902094909455835192835282015280820185905290517f5548c837ab068cf56a2c2479df0882a4922fd203edb7517321831d95078c5f629181900360600190a1505060016003555050565b81516020818401810180516005825292820194820194909420919093529091526000908152604090205481565b610bf7612189565b6001600160a01b0316610c08610d49565b6001600160a01b031614610c63576040805162461bcd60e51b815260206004820181905260248201527f4f776e61626c653a2063616c6c6572206973206e6f7420746865206f776e6572604482015290519081900360640190fd5b600080546040516001600160a01b03909116907f8be0079c531659141344cd1fd0a4f28419497f9722a3daafe3b4186f6b6457e0908390a3600080546001600160a01b0319169055565b60088181548110610cbd57600080fd5b600091825260209182902001805460408051601f60026000196101006001871615020190941693909304928301859004850281018501909152818152935090918301828280156109c05780601f10610995576101008083540402835291602001916109c0565b80516020818301810180516006825292820191909301209152546001600160a01b031681565b6000546001600160a01b031690565b600354600114610d9f576040805162461bcd60e51b815260206004820152600d60248201526c1113d61d8c4e881313d0d2d151609a1b604482015290519081900360640190fd5b600060035580610df2576040805162461bcd60e51b81526020600482015260196024820152781113d61d8c4e881253131151d0530814d5d054081253941555603a1b604482015290519081900360640190fd5b6000610e008585858561218d565b604080516001600160a01b0380891682528088166020830152861681830152606081018590526080810183905290519192507fcd3829a3813dc3cdd188fd3d01dcf3268c16be2fdd2dd21d0665418816e46062919081900360a00190a150506001600355505050565b600354600114610eb0576040805162461bcd60e51b815260206004820152600d60248201526c1113d61d8c4e881313d0d2d151609a1b604482015290519081900360640190fd5b600060035560405183513391600691869190819060208401908083835b60208310610eec5780518252601f199092019160209182019101610ecd565b51815160209384036101000a60001901801990921691161790529201948552506040519384900301909220546001600160a01b0316929092149150610f709050576040805162461bcd60e51b81526020600482015260136024820152721113d61d8c4e8815539055551213d492569151606a1b604482015290519081900360640190fd5b60006005846040518082805190602001908083835b60208310610fa45780518252601f199092019160209182019101610f85565b51815160209384036101000a6000190180199092169116179052920194855250604080519485900382019094206001600160a01b0388166000908152915292909220549250505081811015611040576040805162461bcd60e51b815260206004820152601e60248201527f444f5876313a20494e53554646494349454e542054502042414c414e43450000604482015290519081900360640190fd5b6110c3826005866040518082805190602001908083835b602083106110765780518252601f199092019160209182019101611057565b51815160209384036101000a6000190180199092169116179052920194855250604080519485900382019094206001600160a01b038a166000908152915292909220549291506122e69050565b6005856040518082805190602001908083835b602083106110f55780518252601f1990920191602091820191016110d6565b51815160209384036101000a6000190180199092169116179052920194855250604080519485900382019094206001600160a01b03891660008181529183528582209690965533815260048252848120958152949052505090205461115a9083612128565b3360009081526004602090815260408083206001600160a01b038816808552908352818420949094558051808301949094528301859052606080845287519084015286517f0bd2df912f4aa5f26366b1353a4e72d5b7988935634dcaf30a698385c41c0ca39388938893889383926080840192880191908190849084905b838110156111f05781810151838201526020016111d8565b50505050905090810190601f16801561121d5780820380516001836020036101000a031916815260200191505b5094505050505060405180910390a1505060016003555050565b60035460011461127e576040805162461bcd60e51b815260206004820152600d60248201526c1113d61d8c4e881313d0d2d151609a1b604482015290519081900360640190fd5b600060035561128f83338484612343565b604080516001600160a01b0380861682523360208301528416818301526060810183905290517fd1398bee19313d6bf672ccb116e51f4a1a947e91c757907f51fbb5b5e56c698f9181900360800190a15050600160035550565b600354600114611330576040805162461bcd60e51b815260206004820152600d60248201526c1113d61d8c4e881313d0d2d151609a1b604482015290519081900360640190fd5b600060035560405183513391600691869190819060208401908083835b6020831061136c5780518252601f19909201916020918201910161134d565b51815160209384036101000a60001901801990921691161790529201948552506040519384900301909220546001600160a01b03169290921491506113f09050576040805162461bcd60e51b81526020600482015260136024820152721113d61d8c4e8815539055551213d492569151606a1b604482015290519081900360640190fd5b3360009081526004602090815260408083206001600160a01b038616845290915290205481811015611469576040805162461bcd60e51b815260206004820181905260248201527f444f5876313a20494e53554646494349454e5420424f4f4b2042414c414e4345604482015290519081900360640190fd5b3360009081526004602090815260408083206001600160a01b038716845290915290205461149790836122e6565b3360009081526004602090815260408083206001600160a01b03881684528252918290209290925551855161154392859260059289928291908401908083835b602083106114f65780518252601f1990920191602091820191016114d7565b51815160209384036101000a6000190180199092169116179052920194855250604080519485900382019094206001600160a01b038a166000908152915292909220549291506121289050565b6005856040518082805190602001908083835b602083106115755780518252601f199092019160209182019101611556565b51815160209384036101000a60001901801990921691161790529201948552506040805194859003820185206001600160a01b038a16600081815291845282822097909755858301969096528401879052606080855289519085015288517f43e6f72b1076821a74d5e9628ec0044cb5bebc60c8be905a37382d310bbc0f9d958a958a955089945092839260808401929188019181908490849083156111f05781810151838201526020016111d8565b6002546001600160a01b031681565b6001546001600160a01b03163314611686576040805162461bcd60e51b815260206004820152601060248201526f2227ac3b189d102327a92124a22222a760811b604482015290519081900360640190fd5b600180546001600160a01b0319166001600160a01b0392909216919091179055565b6003546001146116ef576040805162461bcd60e51b815260206004820152600d60248201526c1113d61d8c4e881313d0d2d151609a1b604482015290519081900360640190fd5b6000600381905560405182516006918491819060208401908083835b6020831061172a5780518252601f19909201916020918201910161170b565b51815160209384036101000a60001901801990921691161790529201948552506040519384900301909220546001600160a01b03169290921491506117ae9050576040805162461bcd60e51b8152602060048201526013602482015272444f5876313a20544f4b454e5f45584953545360681b604482015290519081900360640190fd5b336006826040518082805190602001908083835b602083106117e15780518252601f1990920191602091820191016117c2565b51815160209384036101000a60001901801990921691161790529201948552506040805194859003820190942080546001600160a01b0319166001600160a01b039690961695909517909455505033600090815260078352908120805460018101825590825290829020835161185f9391909201919084019061292d565b506008805460018101825560009190915281516118a3917ff3f7a9fe364faab93b216da50a3214154f22a0a2b415b23a84c8169e8b636ee30190602084019061292d565b507f79b04a02d84fec4f53dec01c843dee92deee8a6d7dc31a65ae8c2c6b60200cf381336040518080602001836001600160a01b03168152602001828103825284818151815260200191508051906020019080838360005b838110156119135781810151838201526020016118fb565b50505050905090810190601f1680156119405780820380516001836020036101000a031916815260200191505b50935050505060405180910390a1506001600355565b6009602090815260008481526040902083518085018301805192815290830192850192909220915280548290811061198d57600080fd5b6000918252602090912060029091020180546001909101546001600160a01b0390911693509150839050565b600354600114611a00576040805162461bcd60e51b815260206004820152600d60248201526c1113d61d8c4e881313d0d2d151609a1b604482015290519081900360640190fd5b600060035560405182513391600691859190819060208401908083835b60208310611a3c5780518252601f199092019160209182019101611a1d565b51815160209384036101000a60001901801990921691161790529201948552506040519384900301909220546001600160a01b0316929092149150611ac09050576040805162461bcd60e51b81526020600482015260136024820152721113d61d8c4e8815539055551213d492569151606a1b604482015290519081900360640190fd5b60005b826040516020018082805190602001908083835b60208310611af65780518252601f199092019160209182019101611ad7565b6001836020036101000a0380198251168184511680821785525050505050509050019150506040516020818303038152906040528051906020012060076000336001600160a01b03166001600160a01b031681526020019081526020016000208281548110611b6157fe5b906000526020600020016040516020018082805460018160011615610100020316600290048015611bc95780601f10611ba7576101008083540402835291820191611bc9565b820191906000526020600020905b815481529060010190602001808311611bb5575b50509150506040516020818303038152906040528051906020012014611bf157600101611ac3565b336000908152600760205260409020805482908110611c0c57fe5b906000526020600020016000611c2291906129b9565b6001600160a01b038216600090815260076020908152604082208054600181018255908352918190208551611c5e93919091019186019061292d565b50816006846040518082805190602001908083835b60208310611c925780518252601f199092019160209182019101611c73565b51815160209384036101000a600019018019909216911617905292019485525060408051948590038201852080546001600160a01b0319166001600160a01b039788161790553385830181905295881690850152606080855288519085015287517fe76375c57eef426276019091544847f973c885ebf3202e77e8430f0aa7ad6a1f958995909450889350918291608083019187019080838360005b83811015611d46578181015183820152602001611d2e565b50505050905090810190601f168015611d735780820380516001836020036101000a031916815260200191505b5094505050505060405180910390a15050600160035550565b611d94612189565b6001600160a01b0316611da5610d49565b6001600160a01b031614611e00576040805162461bcd60e51b815260206004820181905260248201527f4f776e61626c653a2063616c6c6572206973206e6f7420746865206f776e6572604482015290519081900360640190fd5b6001600160a01b038116611e455760405162461bcd60e51b8152600401808060200182810382526026815260200180612a346026913960400191505060405180910390fd5b600080546040516001600160a01b03808516939216917f8be0079c531659141344cd1fd0a4f28419497f9722a3daafe3b4186f6b6457e091a3600080546001600160a01b0319166001600160a01b0392909216919091179055565b600354600114611ee7576040805162461bcd60e51b815260206004820152600d60248201526c1113d61d8c4e881313d0d2d151609a1b604482015290519081900360640190fd5b600060038190553381526004602090815260408083206001600160a01b038616845290915290205481811015611f64576040805162461bcd60e51b815260206004820181905260248201527f444f5876313a20494e53554646494349454e5420424f4f4b2042414c414e4345604482015290519081900360640190fd5b6040805163a9059cbb60e01b815233600482015260248101849052905184916001600160a01b0383169163a9059cbb916044808201926020929091908290030181600087803b158015611fb657600080fd5b505af1158015611fca573d6000803e3d6000fd5b505050506040513d6020811015611fe057600080fd5b50503360009081526004602090815260408083206001600160a01b038816845290915290205461201090846122e6565b3360008181526004602090815260408083206001600160a01b038a168085529083529281902094909455835192835282015280820185905290517f2717ead6b9200dd235aad468c9809ea400fe33ac69b5bfaa6d3e90fc922b63989181900360600190a1505060016003555050565b612125816040516024018080602001828103825283818151815260200191508051906020019080838360005b838110156120c35781810151838201526020016120ab565b50505050905090810190601f1680156120f05780820380516001836020036101000a031916815260200191505b5060408051601f198184030181529190526020810180516001600160e01b031663104c13eb60e21b1790529250612467915050565b50565b600082820183811015612182576040805162461bcd60e51b815260206004820152601b60248201527f536166654d6174683a206164646974696f6e206f766572666c6f770000000000604482015290519081900360640190fd5b9392505050565b3390565b60008082116121df576040805162461bcd60e51b81526020600482015260196024820152781113d61d8c4e881253131151d0530814d5d054081253941555603a1b604482015290519081900360640190fd5b6000806121ec8686612488565b9150915081604001516000141561224a576040805162461bcd60e51b815260206004820152601b60248201527f444f5876313a20544f4b454e2050414952204e4f5420464f554e440000000000604482015290519081900360640190fd5b60008161225b57826020015161225e565b82515b905060008261226e578351612274565b83602001515b90506122986122916122868489612128565b6040870151906125af565b82906122e6565b94506122a48287612128565b84526122b081866122e6565b60208501526122c0888886612616565b6122cd8989600089612753565b6122da8988876000612753565b50505050949350505050565b60008282111561233d576040805162461bcd60e51b815260206004820152601e60248201527f536166654d6174683a207375627472616374696f6e206f766572666c6f770000604482015290519081900360640190fd5b50900390565b6001600160a01b038084166000908152600460209081526040808320938816835292905220548111156123bd576040805162461bcd60e51b815260206004820152601960248201527f444f5876313a20494e53554646494349454e542046554e445300000000000000604482015290519081900360640190fd5b6001600160a01b038084166000908152600460209081526040808320938816835292905220546123ed90826122e6565b6001600160a01b0380851660009081526004602081815260408084208a8616808652908352818520969096559387168352908152828220938252929092529020546124389082612128565b6001600160a01b0392831660009081526004602090815260408083209790951682529590955291909320555050565b80516a636f6e736f6c652e6c6f67602083016000808483855afa5050505050565b6124906129fd565b60006001600160a01b038416158015906124b257506001600160a01b03831615155b6124ed5760405162461bcd60e51b8152600401808060200182810382526021815260200180612a5a6021913960400191505060405180910390fd5b6000836001600160a01b0316856001600160a01b03161061250e5783612510565b845b90506000846001600160a01b0316866001600160a01b0316106125335785612535565b845b9050856001600160a01b0316826001600160a01b03161461255757600061255a565b60015b6001600160a01b039283166000908152600a6020908152604080832094909516825292835283902083516060810185528154815260018201549381019390935260020154928201929092529590945092505050565b6000808211612605576040805162461bcd60e51b815260206004820152601a60248201527f536166654d6174683a206469766973696f6e206279207a65726f000000000000604482015290519081900360640190fd5b81838161260e57fe5b049392505050565b6001600160a01b0383161580159061263657506001600160a01b03821615155b6126715760405162461bcd60e51b8152600401808060200182810382526021815260200180612a5a6021913960400191505060405180910390fd5b60408101516126c7576040805162461bcd60e51b815260206004820152601760248201527f444f5876313a20494e56414c4944204350492044415441000000000000000000604482015290519081900360640190fd5b6000826001600160a01b0316846001600160a01b0316106126e857826126ea565b835b90506000836001600160a01b0316856001600160a01b03161061270d578461270f565b835b6001600160a01b039283166000908152600a602090815260408083209590931682529384528190208451815592840151600184015590920151600290910155505050565b6001600160a01b0384161580159061277357506001600160a01b03831615155b6127c4576040805162461bcd60e51b815260206004820152601c60248201527f444f5876313a20414e204144445245535320495320494e56414c494400000000604482015290519081900360640190fd5b6001600160a01b038085166000908152600460209081526040808320938716835292815290829020548251808401909352601183527002fb9b0b332aab83230ba32a137b7b59d1607d1b918301919091529061282290828585612869565b612836826128308386612128565b906122e6565b6001600160a01b039586166000908152600460209081526040808320979098168252959095529490932093909355505050565b612927848484846040516024018080602001858152602001848152602001838152602001828103825286818151815260200191508051906020019080838360005b838110156128c25781810151838201526020016128aa565b50505050905090810190601f1680156128ef5780820380516001836020036101000a031916815260200191505b5060408051601f198184030181529190526020810180516001600160e01b03166304772b3360e11b1790529550612467945050505050565b50505050565b828054600181600116156101000203166002900490600052602060002090601f01602090048101928261296357600085556129a9565b82601f1061297c57805160ff19168380011785556129a9565b828001600101855582156129a9579182015b828111156129a957825182559160200191906001019061298e565b506129b5929150612a1e565b5090565b50805460018160011615610100020316600290046000825580601f106129df5750612125565b601f0160209004906000526020600020908101906121259190612a1e565b60405180606001604052806000815260200160008152602001600081525090565b5b808211156129b55760008155600101612a1f56fe4f776e61626c653a206e6577206f776e657220697320746865207a65726f2061646472657373444f5876313a204120544f4b454e204144445245535320495320494e56414c4944a2646970667358221220a2dba23ee340d2e2f489daecb8566d015a795fa44b58e446f3506fd73cbd56de64736f6c63430007060033444f5876313a204120544f4b454e204144445245535320495320494e56414c4944",
  "linkReferences": {},
  "deployedLinkReferences": {}
}