{
  "_format": "hh-sol-artifact-1",
  "contractName": "BabylonianEchidnaTest",
  "sourceName": "contracts/library/Uniswap/lib/contracts/test/BabylonianEchidnaTest.sol",
  "abi": [
    {
      "inputs": [
        {
          "internalType": "uint8",
          "name": "index",
          "type": "uint8"
        }
      ],
      "name": "checkMaxForIndex",
      "outputs": [],
      "stateMutability": "pure",
      "type": "function"
    },
    {
      "inputs": [
        {
          "internalType": "uint256",
          "name": "input",
          "type": "uint256"
        }
      ],
      "name": "checkSqrt",
      "outputs": [],
      "stateMutability": "pure",
      "type": "function"
    }
  ],
  "bytecode": "0x608060405234801561001057600080fd5b50610275806100206000396000f3fe608060405234801561001057600080fd5b50600436106100365760003560e01c8063922ab1e21461003b578063e4134de51461005a575b600080fd5b6100586004803603602081101561005157600080fd5b503561007a565b005b6100586004803603602081101561007057600080fd5b503560ff166100ce565b6000610085826100f7565b9050600160801b811061009457fe5b816002820a11156100a157fe5b816002826001010a11806100c457506fffffffffffffffffffffffffffffffff81145b6100ca57fe5b5050565b6100f48160ff1660ff146100eb578160010160ff1660020a6100ef565b6000195b61007a565b50565b6000816101065750600061023a565b816001600160801b821061011f5760809190911c9060401b5b68010000000000000000821061013a5760409190911c9060201b5b64010000000082106101515760209190911c9060101b5b6201000082106101665760109190911c9060081b5b610100821061017a5760089190911c9060041b5b6010821061018d5760049190911c9060021b5b600882106101995760011b5b60018185816101a457fe5b048201901c905060018185816101b657fe5b048201901c905060018185816101c857fe5b048201901c905060018185816101da57fe5b048201901c905060018185816101ec57fe5b048201901c905060018185816101fe57fe5b048201901c9050600181858161021057fe5b048201901c9050600081858161022257fe5b0490508082106102325780610234565b815b93505050505b91905056fea264697066735822122052eaad782f5486ad3887e015c1c4eaad445a84e6bb7e7716bf7ac0414ffff58664736f6c63430007060033",
  "linkReferences": {},
  "deployedLinkReferences": {}
}