{
  "_format": "hh-sol-artifact-1",
  "contractName": "FullMathEchidnaTest",
  "sourceName": "contracts/library/Uniswap/lib/contracts/test/FullMathEchidnaTest.sol",
  "abi": [
    {
      "inputs": [
        {
          "internalType": "uint256",
          "name": "x",
          "type": "uint256"
        },
        {
          "internalType": "uint256",
          "name": "y",
          "type": "uint256"
        }
      ],
      "name": "checkH",
      "outputs": [],
      "stateMutability": "pure",
      "type": "function"
    }
  ],
  "bytecode": "0x608060405234801561001057600080fd5b5060e48061001f6000396000f3fe6080604052348015600f57600080fd5b506004361060285760003560e01c80632a254e8e14602d575b600080fd5b604d60048036036040811015604157600080fd5b5080359060200135604f565b005b81158060645750808282840281606157fe5b04145b15607e576000607283836082565b9150508015607c57fe5b505b5050565b600080806000198486099050838502925082810391508281101560a6576001820391505b50925092905056fea2646970667358221220942830bb1abc87ce20d11e27135df284d760da2eb159531b1662104ed368d13e64736f6c63430007060033",
  "linkReferences": {},
  "deployedLinkReferences": {}
}