{
  "_format": "hh-sol-artifact-1",
  "contractName": "OBv1",
  "sourceName": "contracts/OBv1.sol",
  "abi": [
    {
      "inputs": [
        {
          "internalType": "address",
          "name": "_feeRecipientSetter",
          "type": "address"
        }
      ],
      "stateMutability": "nonpayable",
      "type": "constructor"
    },
    {
      "anonymous": false,
      "inputs": [
        {
          "indexed": false,
          "internalType": "address",
          "name": "address_",
          "type": "address"
        },
        {
          "indexed": false,
          "internalType": "uint256",
          "name": "amount_",
          "type": "uint256"
        }
      ],
      "name": "NewDeposit",
      "type": "event"
    },
    {
      "anonymous": false,
      "inputs": [
        {
          "indexed": true,
          "internalType": "address",
          "name": "previousOwner",
          "type": "address"
        },
        {
          "indexed": true,
          "internalType": "address",
          "name": "newOwner",
          "type": "address"
        }
      ],
      "name": "OwnershipTransferred",
      "type": "event"
    },
    {
      "inputs": [
        {
          "internalType": "address",
          "name": "_token",
          "type": "address"
        },
        {
          "internalType": "uint256",
          "name": "_amount",
          "type": "uint256"
        }
      ],
      "name": "deposit",
      "outputs": [],
      "stateMutability": "nonpayable",
      "type": "function"
    },
    {
      "inputs": [],
      "name": "feeRecipient",
      "outputs": [
        {
          "internalType": "address",
          "name": "",
          "type": "address"
        }
      ],
      "stateMutability": "view",
      "type": "function"
    },
    {
      "inputs": [],
      "name": "feeRecipientSetter",
      "outputs": [
        {
          "internalType": "address",
          "name": "",
          "type": "address"
        }
      ],
      "stateMutability": "view",
      "type": "function"
    },
    {
      "inputs": [
        {
          "internalType": "address",
          "name": "",
          "type": "address"
        },
        {
          "internalType": "address",
          "name": "",
          "type": "address"
        }
      ],
      "name": "getBook",
      "outputs": [
        {
          "internalType": "uint256",
          "name": "",
          "type": "uint256"
        }
      ],
      "stateMutability": "view",
      "type": "function"
    },
    {
      "inputs": [
        {
          "internalType": "address",
          "name": "",
          "type": "address"
        },
        {
          "internalType": "uint256",
          "name": "",
          "type": "uint256"
        }
      ],
      "name": "getBuys",
      "outputs": [
        {
          "internalType": "address",
          "name": "account",
          "type": "address"
        },
        {
          "internalType": "uint256",
          "name": "limit",
          "type": "uint256"
        },
        {
          "internalType": "uint256",
          "name": "amount",
          "type": "uint256"
        }
      ],
      "stateMutability": "view",
      "type": "function"
    },
    {
      "inputs": [
        {
          "internalType": "address",
          "name": "",
          "type": "address"
        },
        {
          "internalType": "uint256",
          "name": "",
          "type": "uint256"
        }
      ],
      "name": "getSells",
      "outputs": [
        {
          "internalType": "address",
          "name": "account",
          "type": "address"
        },
        {
          "internalType": "uint256",
          "name": "limit",
          "type": "uint256"
        },
        {
          "internalType": "uint256",
          "name": "amount",
          "type": "uint256"
        }
      ],
      "stateMutability": "view",
      "type": "function"
    },
    {
      "inputs": [
        {
          "internalType": "address",
          "name": "_token",
          "type": "address"
        },
        {
          "internalType": "uint256",
          "name": "_limit",
          "type": "uint256"
        },
        {
          "internalType": "uint256",
          "name": "_amount",
          "type": "uint256"
        }
      ],
      "name": "limitOrderBuy",
      "outputs": [],
      "stateMutability": "nonpayable",
      "type": "function"
    },
    {
      "inputs": [
        {
          "internalType": "address",
          "name": "_token",
          "type": "address"
        },
        {
          "internalType": "uint256",
          "name": "_limit",
          "type": "uint256"
        },
        {
          "internalType": "uint256",
          "name": "_amount",
          "type": "uint256"
        }
      ],
      "name": "limitOrderSell",
      "outputs": [],
      "stateMutability": "nonpayable",
      "type": "function"
    },
    {
      "inputs": [],
      "name": "owner",
      "outputs": [
        {
          "internalType": "address",
          "name": "",
          "type": "address"
        }
      ],
      "stateMutability": "view",
      "type": "function"
    },
    {
      "inputs": [],
      "name": "renounceOwnership",
      "outputs": [],
      "stateMutability": "nonpayable",
      "type": "function"
    },
    {
      "inputs": [
        {
          "internalType": "address",
          "name": "_feeRecipient",
          "type": "address"
        }
      ],
      "name": "setFeeRecipient",
      "outputs": [],
      "stateMutability": "nonpayable",
      "type": "function"
    },
    {
      "inputs": [
        {
          "internalType": "address",
          "name": "_feeRecipientSetter",
          "type": "address"
        }
      ],
      "name": "setFeeRecipientSetter",
      "outputs": [],
      "stateMutability": "nonpayable",
      "type": "function"
    },
    {
      "inputs": [
        {
          "internalType": "address",
          "name": "_token",
          "type": "address"
        },
        {
          "internalType": "address",
          "name": "_to",
          "type": "address"
        },
        {
          "internalType": "uint256",
          "name": "_amount",
          "type": "uint256"
        }
      ],
      "name": "transfer",
      "outputs": [],
      "stateMutability": "nonpayable",
      "type": "function"
    },
    {
      "inputs": [
        {
          "internalType": "address",
          "name": "newOwner",
          "type": "address"
        }
      ],
      "name": "transferOwnership",
      "outputs": [],
      "stateMutability": "nonpayable",
      "type": "function"
    }
  ],
  "bytecode": "0x608060405234801561001057600080fd5b50604051610a5a380380610a5a8339818101604052602081101561003357600080fd5b5051600061003f6100ae565b600080546001600160a01b0319166001600160a01b0383169081178255604051929350917f8be0079c531659141344cd1fd0a4f28419497f9722a3daafe3b4186f6b6457e0908290a350600280546001600160a01b0319166001600160a01b03929092169190911790556100b2565b3390565b610999806100c16000396000f3fe608060405234801561001057600080fd5b50600436106100ea5760003560e01c8063a0360ac81161008c578063c97fdae111610066578063c97fdae1146102ab578063d6c3c034146102b3578063e74b981b146102b3578063f2fde38b146102d9576100ea565b8063a0360ac814610217578063bbb2ec8114610249578063beabacc814610275576100ea565b806348f79b24116100c857806348f79b2414610181578063715018a6146101b35780638da5cb5b146101bb57806397f69436146101c3576100ea565b806330c7a451146100ef578063469048401461012f57806347e7ef2414610153575b600080fd5b61011d6004803603604081101561010557600080fd5b506001600160a01b03813581169160200135166102ff565b60408051918252519081900360200190f35b61013761031c565b604080516001600160a01b039092168252519081900360200190f35b61017f6004803603604081101561016957600080fd5b506001600160a01b03813516906020013561032b565b005b61017f6004803603606081101561019757600080fd5b506001600160a01b0381351690602081013590604001356103d1565b61017f6104a3565b61013761054f565b6101ef600480360360408110156101d957600080fd5b506001600160a01b03813516906020013561055e565b604080516001600160a01b039094168452602084019290925282820152519081900360600190f35b61017f6004803603606081101561022d57600080fd5b506001600160a01b0381351690602081013590604001356105aa565b6101ef6004803603604081101561025f57600080fd5b506001600160a01b03813516906020013561067c565b61017f6004803603606081101561028b57600080fd5b506001600160a01b03813581169160208101359091169060400135610698565b6101376106a9565b61017f600480360360208110156102c957600080fd5b50356001600160a01b03166106b8565b61017f600480360360208110156102ef57600080fd5b50356001600160a01b031661072b565b600360209081526000928352604080842090915290825290205481565b6001546001600160a01b031681565b6000811161036a5760405162461bcd60e51b815260040180806020018281038252602581526020018061093f6025913960400191505060405180910390fd5b6001600160a01b03821660009081526003602090815260408083203380855290835292819020805485019055805192835290820183905280517f2cb77763bc1e8490c1a904905c4d74b4269919aca114464f4bb4d911e60de3649281900390910190a15050565b6103d961082d565b6001600160a01b03166103ea61054f565b6001600160a01b031614610433576040805162461bcd60e51b8152602060048201819052602482015260008051602061091f833981519152604482015290519081900360640190fd5b6001600160a01b039283166000908152600460209081526040808320815160608101835233815280840196875291820194855280546001808201835591855292909320905160039092020180546001600160a01b0319169190951617845591519183019190915551600290910155565b6104ab61082d565b6001600160a01b03166104bc61054f565b6001600160a01b031614610505576040805162461bcd60e51b8152602060048201819052602482015260008051602061091f833981519152604482015290519081900360640190fd5b600080546040516001600160a01b03909116907f8be0079c531659141344cd1fd0a4f28419497f9722a3daafe3b4186f6b6457e0908390a3600080546001600160a01b0319169055565b6000546001600160a01b031690565b6005602052816000526040600020818154811061057a57600080fd5b60009182526020909120600390910201805460018201546002909201546001600160a01b03909116935090915083565b6105b261082d565b6001600160a01b03166105c361054f565b6001600160a01b03161461060c576040805162461bcd60e51b8152602060048201819052602482015260008051602061091f833981519152604482015290519081900360640190fd5b6001600160a01b039283166000908152600560209081526040808320815160608101835233815280840196875291820194855280546001808201835591855292909320905160039092020180546001600160a01b0319169190951617845591519183019190915551600290910155565b6004602052816000526040600020818154811061057a57600080fd5b6106a483338484610831565b505050565b6002546001600160a01b031681565b6001546001600160a01b03163314610709576040805162461bcd60e51b815260206004820152600f60248201526e2a283b189d102327a92124a22222a760891b604482015290519081900360640190fd5b600180546001600160a01b0319166001600160a01b0392909216919091179055565b61073361082d565b6001600160a01b031661074461054f565b6001600160a01b03161461078d576040805162461bcd60e51b8152602060048201819052602482015260008051602061091f833981519152604482015290519081900360640190fd5b6001600160a01b0381166107d25760405162461bcd60e51b81526004018080602001828103825260268152602001806108f96026913960400191505060405180910390fd5b600080546040516001600160a01b03808516939216917f8be0079c531659141344cd1fd0a4f28419497f9722a3daafe3b4186f6b6457e091a3600080546001600160a01b0319166001600160a01b0392909216919091179055565b3390565b6001600160a01b038084166000908152600360209081526040808320938816835292905220548111156108ab576040805162461bcd60e51b815260206004820152601860248201527f545076313a20494e53554646494349454e542046554e44530000000000000000604482015290519081900360640190fd5b6001600160a01b039283166000908152600360208181526040808420978716808552978252808420805486900390559490951682528452828120948152939092529091208054909101905556fe4f776e61626c653a206e6577206f776e657220697320746865207a65726f20616464726573734f776e61626c653a2063616c6c6572206973206e6f7420746865206f776e6572545076313a20494c4c4547414c204e45474154495645204445504f53495420414d4f554e54a2646970667358221220fa01b80d17be9bd76c575b4ce59a0c36d925062cd5e659400f6f7e10da0e073564736f6c63430007060033",
  "linkReferences": {},
  "deployedLinkReferences": {}
}