{
  "_format": "hh-sol-artifact-1",
  "contractName": "GasCosts",
  "sourceName": "contracts/GasCosts.sol",
  "abi": [
    {
      "inputs": [],
      "name": "CreateReport",
      "outputs": [],
      "stateMutability": "nonpayable",
      "type": "function"
    },
    {
      "inputs": [],
      "name": "testnum",
      "outputs": [
        {
          "internalType": "bytes32",
          "name": "",
          "type": "bytes32"
        }
      ],
      "stateMutability": "view",
      "type": "function"
    },
    {
      "inputs": [],
      "name": "testset",
      "outputs": [],
      "stateMutability": "nonpayable",
      "type": "function"
    }
  ],
  "bytecode": "0x608060405234801561001057600080fd5b506102f7806100206000396000f3fe608060405234801561001057600080fd5b50600436106100415760003560e01c80634b82d596146100465780639fa879d914610050578063e78b03011461006a575b600080fd5b61004e610072565b005b61005861007e565b60408051918252519081900360200190f35b61004e610084565b6230783160e81b600055565b60005481565b6100b26040518060400160405280600a815260200169020b134a2b731b7b232960b51b8152506100e06101c4565b6100de6040518060400160405280600881526020016703a32b9ba29b2ba160c51b8152506100726101c4565b565b6040805180820182526001808252600360fc1b602080840191825284518086018652928352603160f81b8382015293518351939492938593859392019182918083835b602083106101425780518252601f199092019160209182019101610123565b51815160209384036101000a600019018019909216911617905285519190930192850191508083835b6020831061018a5780518252601f19909201916020918201910161016b565b6001836020036101000a03801982511681845116808217855250505050505090500192505050604051602081830303815290604052505050565b60005a90506101d58263ffffffff16565b60005a90508082036101e785826101ee565b5050505050565b61029c82826040516024018080602001838152602001828103825284818151815260200191508051906020019080838360005b83811015610239578181015183820152602001610221565b50505050905090810190601f1680156102665780820380516001836020036101000a031916815260200191505b5060408051601f198184030181529190526020810180516001600160e01b03166309710a9d60e41b17905293506102a092505050565b5050565b80516a636f6e736f6c652e6c6f67602083016000808483855afa505050505056fea264697066735822122014b5de516e87051bb67cdd2351b868badb8f5528589f841a59c1c1b605acd32464736f6c63430007060033",
  "linkReferences": {},
  "deployedLinkReferences": {}
}