{
  "_format": "hh-sol-artifact-1",
  "contractName": "FixedPointTest",
  "sourceName": "contracts/library/Uniswap/lib/contracts/test/FixedPointTest.sol",
  "abi": [
    {
      "inputs": [
        {
          "components": [
            {
              "internalType": "uint224",
              "name": "_x",
              "type": "uint224"
            }
          ],
          "internalType": "struct FixedPoint.uq112x112",
          "name": "self",
          "type": "tuple"
        }
      ],
      "name": "decode",
      "outputs": [
        {
          "internalType": "uint112",
          "name": "",
          "type": "uint112"
        }
      ],
      "stateMutability": "pure",
      "type": "function"
    },
    {
      "inputs": [
        {
          "components": [
            {
              "internalType": "uint256",
              "name": "_x",
              "type": "uint256"
            }
          ],
          "internalType": "struct FixedPoint.uq144x112",
          "name": "self",
          "type": "tuple"
        }
      ],
      "name": "decode144",
      "outputs": [
        {
          "internalType": "uint144",
          "name": "",
          "type": "uint144"
        }
      ],
      "stateMutability": "pure",
      "type": "function"
    },
    {
      "inputs": [
        {
          "components": [
            {
              "internalType": "uint224",
              "name": "_x",
              "type": "uint224"
            }
          ],
          "internalType": "struct FixedPoint.uq112x112",
          "name": "self",
          "type": "tuple"
        },
        {
          "components": [
            {
              "internalType": "uint224",
              "name": "_x",
              "type": "uint224"
            }
          ],
          "internalType": "struct FixedPoint.uq112x112",
          "name": "other",
          "type": "tuple"
        }
      ],
      "name": "divuq",
      "outputs": [
        {
          "components": [
            {
              "internalType": "uint224",
              "name": "_x",
              "type": "uint224"
            }
          ],
          "internalType": "struct FixedPoint.uq112x112",
          "name": "",
          "type": "tuple"
        }
      ],
      "stateMutability": "pure",
      "type": "function"
    },
    {
      "inputs": [
        {
          "internalType": "uint112",
          "name": "x",
          "type": "uint112"
        }
      ],
      "name": "encode",
      "outputs": [
        {
          "components": [
            {
              "internalType": "uint224",
              "name": "_x",
              "type": "uint224"
            }
          ],
          "internalType": "struct FixedPoint.uq112x112",
          "name": "",
          "type": "tuple"
        }
      ],
      "stateMutability": "pure",
      "type": "function"
    },
    {
      "inputs": [
        {
          "internalType": "uint144",
          "name": "x",
          "type": "uint144"
        }
      ],
      "name": "encode144",
      "outputs": [
        {
          "components": [
            {
              "internalType": "uint256",
              "name": "_x",
              "type": "uint256"
            }
          ],
          "internalType": "struct FixedPoint.uq144x112",
          "name": "",
          "type": "tuple"
        }
      ],
      "stateMutability": "pure",
      "type": "function"
    },
    {
      "inputs": [
        {
          "internalType": "uint256",
          "name": "numerator",
          "type": "uint256"
        },
        {
          "internalType": "uint256",
          "name": "denominator",
          "type": "uint256"
        }
      ],
      "name": "fraction",
      "outputs": [
        {
          "components": [
            {
              "internalType": "uint224",
              "name": "_x",
              "type": "uint224"
            }
          ],
          "internalType": "struct FixedPoint.uq112x112",
          "name": "",
          "type": "tuple"
        }
      ],
      "stateMutability": "pure",
      "type": "function"
    },
    {
      "inputs": [
        {
          "components": [
            {
              "internalType": "uint224",
              "name": "_x",
              "type": "uint224"
            }
          ],
          "internalType": "struct FixedPoint.uq112x112",
          "name": "self",
          "type": "tuple"
        },
        {
          "components": [
            {
              "internalType": "uint224",
              "name": "_x",
              "type": "uint224"
            }
          ],
          "internalType": "struct FixedPoint.uq112x112",
          "name": "other",
          "type": "tuple"
        }
      ],
      "name": "getGasCostOfDivuq",
      "outputs": [
        {
          "internalType": "uint256",
          "name": "",
          "type": "uint256"
        }
      ],
      "stateMutability": "view",
      "type": "function"
    },
    {
      "inputs": [
        {
          "internalType": "uint256",
          "name": "numerator",
          "type": "uint256"
        },
        {
          "internalType": "uint256",
          "name": "denominator",
          "type": "uint256"
        }
      ],
      "name": "getGasCostOfFraction",
      "outputs": [
        {
          "internalType": "uint256",
          "name": "",
          "type": "uint256"
        }
      ],
      "stateMutability": "view",
      "type": "function"
    },
    {
      "inputs": [
        {
          "components": [
            {
              "internalType": "uint224",
              "name": "_x",
              "type": "uint224"
            }
          ],
          "internalType": "struct FixedPoint.uq112x112",
          "name": "self",
          "type": "tuple"
        },
        {
          "components": [
            {
              "internalType": "uint224",
              "name": "_x",
              "type": "uint224"
            }
          ],
          "internalType": "struct FixedPoint.uq112x112",
          "name": "other",
          "type": "tuple"
        }
      ],
      "name": "getGasCostOfMuluq",
      "outputs": [
        {
          "internalType": "uint256",
          "name": "",
          "type": "uint256"
        }
      ],
      "stateMutability": "view",
      "type": "function"
    },
    {
      "inputs": [
        {
          "components": [
            {
              "internalType": "uint224",
              "name": "_x",
              "type": "uint224"
            }
          ],
          "internalType": "struct FixedPoint.uq112x112",
          "name": "self",
          "type": "tuple"
        }
      ],
      "name": "getGasCostOfSqrt",
      "outputs": [
        {
          "internalType": "uint256",
          "name": "",
          "type": "uint256"
        }
      ],
      "stateMutability": "view",
      "type": "function"
    },
    {
      "inputs": [
        {
          "components": [
            {
              "internalType": "uint224",
              "name": "_x",
              "type": "uint224"
            }
          ],
          "internalType": "struct FixedPoint.uq112x112",
          "name": "self",
          "type": "tuple"
        },
        {
          "internalType": "uint256",
          "name": "y",
          "type": "uint256"
        }
      ],
      "name": "mul",
      "outputs": [
        {
          "components": [
            {
              "internalType": "uint256",
              "name": "_x",
              "type": "uint256"
            }
          ],
          "internalType": "struct FixedPoint.uq144x112",
          "name": "",
          "type": "tuple"
        }
      ],
      "stateMutability": "pure",
      "type": "function"
    },
    {
      "inputs": [
        {
          "components": [
            {
              "internalType": "uint224",
              "name": "_x",
              "type": "uint224"
            }
          ],
          "internalType": "struct FixedPoint.uq112x112",
          "name": "self",
          "type": "tuple"
        },
        {
          "internalType": "int256",
          "name": "y",
          "type": "int256"
        }
      ],
      "name": "muli",
      "outputs": [
        {
          "internalType": "int256",
          "name": "",
          "type": "int256"
        }
      ],
      "stateMutability": "pure",
      "type": "function"
    },
    {
      "inputs": [
        {
          "components": [
            {
              "internalType": "uint224",
              "name": "_x",
              "type": "uint224"
            }
          ],
          "internalType": "struct FixedPoint.uq112x112",
          "name": "self",
          "type": "tuple"
        },
        {
          "components": [
            {
              "internalType": "uint224",
              "name": "_x",
              "type": "uint224"
            }
          ],
          "internalType": "struct FixedPoint.uq112x112",
          "name": "other",
          "type": "tuple"
        }
      ],
      "name": "muluq",
      "outputs": [
        {
          "components": [
            {
              "internalType": "uint224",
              "name": "_x",
              "type": "uint224"
            }
          ],
          "internalType": "struct FixedPoint.uq112x112",
          "name": "",
          "type": "tuple"
        }
      ],
      "stateMutability": "pure",
      "type": "function"
    },
    {
      "inputs": [
        {
          "components": [
            {
              "internalType": "uint224",
              "name": "_x",
              "type": "uint224"
            }
          ],
          "internalType": "struct FixedPoint.uq112x112",
          "name": "self",
          "type": "tuple"
        }
      ],
      "name": "reciprocal",
      "outputs": [
        {
          "components": [
            {
              "internalType": "uint224",
              "name": "_x",
              "type": "uint224"
            }
          ],
          "internalType": "struct FixedPoint.uq112x112",
          "name": "",
          "type": "tuple"
        }
      ],
      "stateMutability": "pure",
      "type": "function"
    },
    {
      "inputs": [
        {
          "components": [
            {
              "internalType": "uint224",
              "name": "_x",
              "type": "uint224"
            }
          ],
          "internalType": "struct FixedPoint.uq112x112",
          "name": "self",
          "type": "tuple"
        }
      ],
      "name": "sqrt",
      "outputs": [
        {
          "components": [
            {
              "internalType": "uint224",
              "name": "_x",
              "type": "uint224"
            }
          ],
          "internalType": "struct FixedPoint.uq112x112",
          "name": "",
          "type": "tuple"
        }
      ],
      "stateMutability": "pure",
      "type": "function"
    }
  ],
  "bytecode": "0x608060405234801561001057600080fd5b506112c3806100206000396000f3fe608060405234801561001057600080fd5b50600436106100f55760003560e01c80636d173f7111610097578063c814e31411610066578063c814e31414610215578063ca2d029914610228578063ca74fcc01461023b578063d993d3791461024e576100f5565b80636d173f71146101bc57806389258451146101cf578063af35b769146101e2578063b1acad5c14610202576100f5565b80634fd04a40116100d35780634fd04a40146101495780635a606689146101695780635f9f4c3b1461017c578063644a478b1461019c576100f5565b80630f1530e4146100fa57806331f92b13146101235780633f1626c814610136575b600080fd5b61010d610108366004611169565b610261565b60405161011a9190611193565b60405180910390f35b61010d610131366004611005565b61027c565b61010d610144366004611005565b6102a3565b61015c610157366004611005565b6102c2565b60405161011a91906111b0565b61010d61017736600461104a565b6102db565b61018f61018a366004611005565b610309565b60405161011a91906111c4565b6101af6101aa366004611169565b610322565b60405161011a919061118a565b6101af6101ca36600461104a565b61033d565b6101af6101dd366004611020565b610364565b6101f56101f036600461107e565b61037e565b60405161011a91906111a6565b6101af610210366004611005565b61039e565b6101f5610223366004611142565b6103c0565b61010d61023636600461111b565b6103d1565b61010d61024936600461104a565b6103e2565b6101af61025c36600461104a565b610410565b610269610fc9565b6102738383610437565b90505b92915050565b610284610fc9565b61029b61029636849003840184611090565b6105a3565b90505b919050565b6102ab610fc9565b61029b6102bd36849003840184611090565b61068d565b600061029b6102d636849003840184611090565b610764565b6102e3610fc9565b6102736102f536859003850185611090565b61030436859003850185611090565b610774565b600061029b61031d368490038401846110e0565b610904565b6000805a90506103328484610437565b505a90039392505050565b6000805a905061033261035536869003860186611090565b61030436869003860186611090565b600061027361037836859003850185611090565b8361090b565b610386610fdb565b61027361039836859003850185611090565b836109b1565b6000805a90506103b66102bd36859003850185611090565b505a900392915050565b6103c8610fdb565b61029b82610a45565b6103d9610fc9565b61029b82610a6e565b6103ea610fc9565b6102736103fc36859003850185611090565b61040b36859003850185611090565b610aa0565b6000805a905061033261042836869003860186611090565b61040b36869003860186611090565b61043f610fc9565b6000821161047e5760405162461bcd60e51b815260040180806020018281038252602681526020018061121d6026913960400191505060405180910390fd5b826104985750604080516020810190915260008152610276565b6001600160901b03831161053457600082607085901b816104b557fe5b0490506001600160e01b03811115610514576040805162461bcd60e51b815260206004820152601e60248201527f4669786564506f696e743a3a6672616374696f6e3a206f766572666c6f770000604482015290519081900360640190fd5b6040518060200160405280826001600160e01b0316815250915050610276565b600061054584600160701b85610c63565b90506001600160e01b03811115610514576040805162461bcd60e51b815260206004820152601e60248201527f4669786564506f696e743a3a6672616374696f6e3a206f766572666c6f770000604482015290519081900360640190fd5b6105ab610fc9565b81516001600160e01b03166105f15760405162461bcd60e51b815260040180806020018281038252602a815260200180611264602a913960400191505060405180910390fd5b81600001516001600160e01b031660011415610654576040805162461bcd60e51b815260206004820181905260248201527f4669786564506f696e743a3a7265636970726f63616c3a206f766572666c6f77604482015290519081900360640190fd5b604051806020016040528083600001516001600160e01b0316600160e01b8161067957fe5b046001600160e01b03168152509050919050565b610695610fc9565b81516001600160901b036001600160e01b03909116116106e65760405180602001604052806106d4607085600001516001600160e01b0316901b610d1e565b6001600160e01b03169052905061029e565b60006106fe83600001516001600160e01b0316610e5f565b60ff03905060028160ff168161071057fe5b0681039050604051806020016040528060028360700360ff168161073057fe5b0460ff166107508460ff1687600001516001600160e01b0316901b610d1e565b901b6001600160e01b031690529392505050565b5160701c6001600160701b031690565b61077c610fc9565b82516001600160e01b0316158061079b575081516001600160e01b0316155b156107b55750604080516020810190915260008152610276565b825182516001600160701b03607083811c8216938216929081901c82169190811690828502908285029083870290858702906001600160e01b038516111561082e5760405162461bcd60e51b81526004018080602001828103825260218152602001806112436021913960400191505060405180910390fd5b6000607060ff16846001600160e01b0316901c6001600160e01b0316826001600160e01b0316846001600160e01b0316607060ff16886001600160e01b0316901b6001600160e01b031601010190506000196001600160e01b03168111156108dd576040805162461bcd60e51b815260206004820152601f60248201527f4669786564506f696e743a3a6d756c75713a2073756d206f766572666c6f7700604482015290519081900360640190fd5b60408051602081019091526001600160e01b0390911681529b9a5050505050505050505050565b5160701c90565b60008061093c84600001516001600160e01b03166000851261092d5784610932565b846000035b600160701b610c63565b9050600160ff1b8110610996576040805162461bcd60e51b815260206004820152601a60248201527f4669786564506f696e743a3a6d756c693a206f766572666c6f77000000000000604482015290519081900360640190fd5b600083126109a457806109a9565b806000035b949350505050565b6109b9610fdb565b60008215806109df57505082516001600160e01b0316828102908382816109dc57fe5b04145b610a30576040805162461bcd60e51b815260206004820152601960248201527f4669786564506f696e743a3a6d756c3a206f766572666c6f7700000000000000604482015290519081900360640190fd5b60408051602081019091529081529392505050565b610a4d610fdb565b50604080516020810190915260709190911b6001600160701b031916815290565b610a76610fc9565b50604080516020810190915260709190911b6dffffffffffffffffffffffffffff60701b16815290565b610aa8610fc9565b81516001600160e01b0316610aee5760405162461bcd60e51b81526004018080602001828103825260238152602001806111fa6023913960400191505060405180910390fd5b815183516001600160e01b0390811691161415610b1d57506040805160208101909152600160701b8152610276565b82516001600160901b036001600160e01b0390911611610bbb57815183516000916001600160e01b03169060701b6001600160701b03191681610b5c57fe5b0490506001600160e01b03811115610514576040805162461bcd60e51b815260206004820152601b60248201527f4669786564506f696e743a3a64697675713a206f766572666c6f770000000000604482015290519081900360640190fd5b6000610be6600160701b85600001516001600160e01b031685600001516001600160e01b0316610c63565b90506001600160e01b03811115610c44576040805162461bcd60e51b815260206004820152601b60248201527f4669786564506f696e743a3a64697675713a206f766572666c6f770000000000604482015290519081900360640190fd5b60408051602081019091526001600160e01b0390911681529392505050565b6000806000610c728686610f2c565b9150915060008480610c8057fe5b868809905082811115610c94576001820391505b918290039181610cb257848381610ca757fe5b049350505050610d17565b848210610d06576040805162461bcd60e51b815260206004820152601a60248201527f46756c6c4d6174683a2046554c4c4449565f4f564552464c4f57000000000000604482015290519081900360640190fd5b610d11838387610f59565b93505050505b9392505050565b600081610d2d5750600061029e565b816001600160801b8210610d465760809190911c9060401b5b600160401b8210610d5c5760409190911c9060201b5b6401000000008210610d735760209190911c9060101b5b620100008210610d885760109190911c9060081b5b6101008210610d9c5760089190911c9060041b5b60108210610daf5760049190911c9060021b5b60088210610dbb5760011b5b6001818581610dc657fe5b048201901c90506001818581610dd857fe5b048201901c90506001818581610dea57fe5b048201901c90506001818581610dfc57fe5b048201901c90506001818581610e0e57fe5b048201901c90506001818581610e2057fe5b048201901c90506001818581610e3257fe5b048201901c90506000818581610e4457fe5b049050808210610e545780610e56565b815b95945050505050565b6000808211610e9f5760405162461bcd60e51b81526004018080602001828103825260218152602001806111d96021913960400191505060405180910390fd5b600160801b8210610eb257608091821c91015b600160401b8210610ec557604091821c91015b6401000000008210610ed957602091821c91015b620100008210610eeb57601091821c91015b6101008210610efc57600891821c91015b60108210610f0c57600491821c91015b60048210610f1c57600291821c91015b6002821061029e57600101919050565b6000808060001984860990508385029250828103915082811015610f51576001820391505b509250929050565b60008181038216808381610f6957fe5b049250808581610f7557fe5b049450808160000381610f8457fe5b60028581038087028203028087028203028087028203028087028203028087028203028087028203029586029003909402930460010193909302939093010292915050565b60408051602081019091526000815290565b6040518060200160405280600081525090565b600060208284031215610fff578081fd5b50919050565b600060208284031215611016578081fd5b6102738383610fee565b60008060408385031215611032578081fd5b61103c8484610fee565b946020939093013593505050565b6000806040838503121561105c578182fd5b6110668484610fee565b91506110758460208501610fee565b90509250929050565b60008060408385031215611032578182fd5b6000602082840312156110a1578081fd5b6040516020810181811067ffffffffffffffff821117156110be57fe5b60405282356001600160e01b03811681146110d7578283fd5b81529392505050565b6000602082840312156110f1578081fd5b6040516020810181811067ffffffffffffffff8211171561110e57fe5b6040529135825250919050565b60006020828403121561112c578081fd5b81356001600160701b0381168114610d17578182fd5b600060208284031215611153578081fd5b81356001600160901b0381168114610d17578182fd5b6000806040838503121561117b578182fd5b50508035926020909101359150565b90815260200190565b90516001600160e01b0316815260200190565b9051815260200190565b6001600160701b0391909116815260200190565b6001600160901b039190911681526020019056fe4269744d6174683a3a6d6f73745369676e69666963616e744269743a207a65726f4669786564506f696e743a3a64697675713a206469766973696f6e206279207a65726f4669786564506f696e743a3a6672616374696f6e3a206469766973696f6e206279207a65726f4669786564506f696e743a3a6d756c75713a207570706572206f766572666c6f774669786564506f696e743a3a7265636970726f63616c3a207265636970726f63616c206f66207a65726fa2646970667358221220f4b3f3ab65add53b33db256d9c2458d252ee0c18361f32f9cf124e1ca8842e2b64736f6c63430007060033",
  "linkReferences": {},
  "deployedLinkReferences": {}
}