{
  "_format": "hh-sol-artifact-1",
  "contractName": "DOXERC20Factory",
  "sourceName": "contracts/DOXERC20Factory.sol",
  "abi": [
    {
      "inputs": [],
      "stateMutability": "nonpayable",
      "type": "constructor"
    },
    {
      "anonymous": false,
      "inputs": [
        {
          "indexed": true,
          "internalType": "address",
          "name": "previousOwner",
          "type": "address"
        },
        {
          "indexed": true,
          "internalType": "address",
          "name": "newOwner",
          "type": "address"
        }
      ],
      "name": "OwnershipTransferred",
      "type": "event"
    },
    {
      "anonymous": false,
      "inputs": [
        {
          "indexed": true,
          "internalType": "address",
          "name": "creator_",
          "type": "address"
        },
        {
          "indexed": false,
          "internalType": "string",
          "name": "symbol_",
          "type": "string"
        },
        {
          "indexed": false,
          "internalType": "address",
          "name": "tokenAddress_",
          "type": "address"
        },
        {
          "indexed": false,
          "internalType": "uint256",
          "name": "tokenCount_",
          "type": "uint256"
        }
      ],
      "name": "TokenCreated",
      "type": "event"
    },
    {
      "inputs": [
        {
          "internalType": "string",
          "name": "_name",
          "type": "string"
        },
        {
          "internalType": "string",
          "name": "_symbol",
          "type": "string"
        },
        {
          "internalType": "uint256",
          "name": "_ownerSupply",
          "type": "uint256"
        }
      ],
      "name": "createToken",
      "outputs": [
        {
          "internalType": "address",
          "name": "tokenAddress",
          "type": "address"
        }
      ],
      "stateMutability": "nonpayable",
      "type": "function"
    },
    {
      "inputs": [
        {
          "internalType": "string",
          "name": "",
          "type": "string"
        },
        {
          "internalType": "address",
          "name": "",
          "type": "address"
        }
      ],
      "name": "getAccountToken",
      "outputs": [
        {
          "internalType": "address",
          "name": "",
          "type": "address"
        }
      ],
      "stateMutability": "view",
      "type": "function"
    },
    {
      "inputs": [
        {
          "internalType": "string",
          "name": "",
          "type": "string"
        }
      ],
      "name": "getToken",
      "outputs": [
        {
          "internalType": "address",
          "name": "",
          "type": "address"
        }
      ],
      "stateMutability": "view",
      "type": "function"
    },
    {
      "inputs": [],
      "name": "owner",
      "outputs": [
        {
          "internalType": "address",
          "name": "",
          "type": "address"
        }
      ],
      "stateMutability": "view",
      "type": "function"
    },
    {
      "inputs": [],
      "name": "renounceOwnership",
      "outputs": [],
      "stateMutability": "nonpayable",
      "type": "function"
    },
    {
      "inputs": [
        {
          "internalType": "uint256",
          "name": "",
          "type": "uint256"
        }
      ],
      "name": "tokenList",
      "outputs": [
        {
          "internalType": "string",
          "name": "",
          "type": "string"
        }
      ],
      "stateMutability": "view",
      "type": "function"
    },
    {
      "inputs": [],
      "name": "tokenListLength",
      "outputs": [
        {
          "internalType": "uint256",
          "name": "",
          "type": "uint256"
        }
      ],
      "stateMutability": "view",
      "type": "function"
    },
    {
      "inputs": [
        {
          "internalType": "address",
          "name": "newOwner",
          "type": "address"
        }
      ],
      "name": "transferOwnership",
      "outputs": [],
      "stateMutability": "nonpayable",
      "type": "function"
    }
  ],
  "bytecode": "0x608060405234801561001057600080fd5b50600061001b61006a565b600080546001600160a01b0319166001600160a01b0383169081178255604051929350917f8be0079c531659141344cd1fd0a4f28419497f9722a3daafe3b4186f6b6457e0908290a35061006e565b3390565b611c048061007d6000396000f3fe608060405234801561001057600080fd5b50600436106100885760003560e01c80639a552a291161005b5780639a552a29146102955780639ead7222146102af578063c1733f6814610341578063f2fde38b146103e557610088565b80635b0605301461008d5780636b7173a7146101d4578063715018a6146102835780638da5cb5b1461028d575b600080fd5b6101b8600480360360608110156100a357600080fd5b810190602081018135600160201b8111156100bd57600080fd5b8201836020820111156100cf57600080fd5b803590602001918460018302840111600160201b831117156100f057600080fd5b91908080601f0160208091040260200160405190810160405280939291908181526020018383808284376000920191909152509295949360208101935035915050600160201b81111561014257600080fd5b82018360208201111561015457600080fd5b803590602001918460018302840111600160201b8311171561017557600080fd5b91908080601f016020809104026020016040519081016040528093929190818152602001838380828437600092019190915250929550509135925061040b915050565b604080516001600160a01b039092168252519081900360200190f35b6101b8600480360360408110156101ea57600080fd5b810190602081018135600160201b81111561020457600080fd5b82018360208201111561021657600080fd5b803590602001918460018302840111600160201b8311171561023757600080fd5b91908080601f016020809104026020016040519081016040528093929190818152602001838380828437600092019190915250929550505090356001600160a01b031691506109509050565b61028b610986565b005b6101b8610a44565b61029d610a53565b60408051918252519081900360200190f35b6102cc600480360360208110156102c557600080fd5b5035610a59565b6040805160208082528351818301528351919283929083019185019080838360005b838110156103065781810151838201526020016102ee565b50505050905090810190601f1680156103335780820380516001836020036101000a031916815260200191505b509250505060405180910390f35b6101b86004803603602081101561035757600080fd5b810190602081018135600160201b81111561037157600080fd5b82018360208201111561038357600080fd5b803590602001918460018302840111600160201b831117156103a457600080fd5b91908080601f016020809104026020016040519081016040528093929190818152602001838380828437600092019190915250929550610b02945050505050565b61028b600480360360208110156103fb57600080fd5b50356001600160a01b0316610b28565b600061043e6040518060400160405280600d81526020016c031b932b0ba32aa37b5b2b71d1609d1b815250858585610c3c565b60006001600160a01b03166001846040518082805190602001908083835b6020831061047b5780518252601f19909201916020918201910161045c565b51815160209384036101000a60001901801990921691161790529201948552506040519384900301909220546001600160a01b03169290921491506105099050576040805162461bcd60e51b815260206004820152601d60248201527f444f584552433230466163746f72793a20544f4b454e5f455849535453000000604482015290519081900360640190fd5b60006040518060200161051b90610e9e565b6020820181038252601f19601f8201166040525090506000846040516020018080670444f5845524332360c41b81525060080182805190602001908083835b602083106105795780518252601f19909201916020918201910161055a565b6001836020036101000a038019825116818451168082178552505050505050905001915050604051602081830303815290604052805190602001209050808251602084016000f592506105f960405180604001604052806015815260200174031b932b0ba32aa37b5b2b71030b2323932b9b99d1605d1b81525084610dbe565b826001600160a01b031663f542033f878733886040518563ffffffff1660e01b8152600401808060200180602001856001600160a01b03168152602001848152602001838103835287818151815260200191508051906020019080838360005b83811015610671578181015183820152602001610659565b50505050905090810190601f16801561069e5780820380516001836020036101000a031916815260200191505b50838103825286518152865160209182019188019080838360005b838110156106d15781810151838201526020016106b9565b50505050905090810190601f1680156106fe5780820380516001836020036101000a031916815260200191505b509650505050505050600060405180830381600087803b15801561072157600080fd5b505af1158015610735573d6000803e3d6000fd5b50505050826001866040518082805190602001908083835b6020831061076c5780518252601f19909201916020918201910161074d565b51815160209384036101000a6000190180199092169116179052920194855250604051938490038101842080546001600160a01b0319166001600160a01b039690961695909517909455505086518592600292899290918291908401908083835b602083106107ec5780518252601f1990920191602091820191016107cd565b51815160209384036101000a60001901801990921691161790529201948552506040805194859003820190942033600090815290825293842080546001600160a01b0319166001600160a01b03969096169590951790945550506003805460018101825591528651610885927fc2575a0e9e593c00f959f8c92f12db2869c3395a3b0502d05e2516446f71f85b90920191880190610eab565b50336001600160a01b03167f638719b856b17125501fe371a2f33e301f125afec87e9d5e01b2aafddaaf0d2086856003805490506040518080602001846001600160a01b03168152602001838152602001828103825285818151815260200191508051906020019080838360005b8381101561090b5781810151838201526020016108f3565b50505050905090810190601f1680156109385780820380516001836020036101000a031916815260200191505b5094505050505060405180910390a250509392505050565b8151602081840181018051600282529282019482019490942091909352909152600090815260409020546001600160a01b031681565b61098e610e79565b6001600160a01b031661099f610a44565b6001600160a01b0316146109fa576040805162461bcd60e51b815260206004820181905260248201527f4f776e61626c653a2063616c6c6572206973206e6f7420746865206f776e6572604482015290519081900360640190fd5b600080546040516001600160a01b03909116907f8be0079c531659141344cd1fd0a4f28419497f9722a3daafe3b4186f6b6457e0908390a3600080546001600160a01b0319169055565b6000546001600160a01b031690565b60035490565b60038181548110610a6957600080fd5b600091825260209182902001805460408051601f6002600019610100600187161502019094169390930492830185900485028101850190915281815293509091830182828015610afa5780601f10610acf57610100808354040283529160200191610afa565b820191906000526020600020905b815481529060010190602001808311610add57829003601f168201915b505050505081565b80516020818301810180516001825292820191909301209152546001600160a01b031681565b610b30610e79565b6001600160a01b0316610b41610a44565b6001600160a01b031614610b9c576040805162461bcd60e51b815260206004820181905260248201527f4f776e61626c653a2063616c6c6572206973206e6f7420746865206f776e6572604482015290519081900360640190fd5b6001600160a01b038116610be15760405162461bcd60e51b8152600401808060200182810382526026815260200180611ba96026913960400191505060405180910390fd5b600080546040516001600160a01b03808516939216917f8be0079c531659141344cd1fd0a4f28419497f9722a3daafe3b4186f6b6457e091a3600080546001600160a01b0319166001600160a01b0392909216919091179055565b610db88484848460405160240180806020018060200180602001858152602001848103845288818151815260200191508051906020019080838360005b83811015610c91578181015183820152602001610c79565b50505050905090810190601f168015610cbe5780820380516001836020036101000a031916815260200191505b50848103835287518152875160209182019189019080838360005b83811015610cf1578181015183820152602001610cd9565b50505050905090810190601f168015610d1e5780820380516001836020036101000a031916815260200191505b50848103825286518152865160209182019188019080838360005b83811015610d51578181015183820152602001610d39565b50505050905090810190601f168015610d7e5780820380516001836020036101000a031916815260200191505b5060408051601f198184030181529190526020810180516001600160e01b0316639fd009f560e01b1790529750610e7d9650505050505050565b50505050565b610e7582826040516024018080602001836001600160a01b03168152602001828103825284818151815260200191508051906020019080838360005b83811015610e12578181015183820152602001610dfa565b50505050905090810190601f168015610e3f5780820380516001836020036101000a031916815260200191505b5060408051601f198184030181529190526020810180516001600160e01b031663319af33360e01b1790529350610e7d92505050565b5050565b3390565b80516a636f6e736f6c652e6c6f67602083016000808483855afa5050505050565b610c5c80610f4d83390190565b828054600181600116156101000203166002900490600052602060002090601f016020900481019282610ee15760008555610f27565b82601f10610efa57805160ff1916838001178555610f27565b82800160010185558215610f27579182015b82811115610f27578251825591602001919060010190610f0c565b50610f33929150610f37565b5090565b5b80821115610f335760008155600101610f3856fe608060405234801561001057600080fd5b50610c3c806100206000396000f3fe608060405234801561001057600080fd5b50600436106100b45760003560e01c806370a082311161007157806370a082311461021057806395d89b4114610236578063a457c2d71461023e578063a9059cbb1461026a578063dd62ed3e14610296578063f542033f146102c4576100b4565b806306fdde03146100b9578063095ea7b31461013657806318160ddd1461017657806323b872dd14610190578063313ce567146101c657806339509351146101e4575b600080fd5b6100c1610401565b6040805160208082528351818301528351919283929083019185019080838360005b838110156100fb5781810151838201526020016100e3565b50505050905090810190601f1680156101285780820380516001836020036101000a031916815260200191505b509250505060405180910390f35b6101626004803603604081101561014c57600080fd5b506001600160a01b038135169060200135610497565b604080519115158252519081900360200190f35b61017e6104b4565b60408051918252519081900360200190f35b610162600480360360608110156101a657600080fd5b506001600160a01b038135811691602081013590911690604001356104ba565b6101ce610569565b6040805160ff9092168252519081900360200190f35b610162600480360360408110156101fa57600080fd5b506001600160a01b03813516906020013561056e565b61017e6004803603602081101561022657600080fd5b50356001600160a01b03166105b9565b6100c16105d4565b6101626004803603604081101561025457600080fd5b506001600160a01b038135169060200135610635565b6101626004803603604081101561028057600080fd5b506001600160a01b0381351690602001356106cd565b61017e600480360360408110156102ac57600080fd5b506001600160a01b03813581169160200135166106e1565b6103ff600480360360808110156102da57600080fd5b8101906020810181356401000000008111156102f557600080fd5b82018360208201111561030757600080fd5b8035906020019184600183028401116401000000008311171561032957600080fd5b91908080601f016020809104026020016040519081016040528093929190818152602001838380828437600092019190915250929594936020810193503591505064010000000081111561037c57600080fd5b82018360208201111561038e57600080fd5b803590602001918460018302840111640100000000831117156103b057600080fd5b91908080601f016020809104026020016040519081016040528093929190818152602001838380828437600092019190915250929550506001600160a01b03833516935050506020013561070c565b005b60038054604080516020601f600260001961010060018816150201909516949094049384018190048102820181019092528281526060939092909183018282801561048d5780601f106104625761010080835404028352916020019161048d565b820191906000526020600020905b81548152906001019060200180831161047057829003601f168201915b5050505050905090565b60006104ab6104a4610744565b8484610748565b50600192915050565b60025490565b60006104c7848484610834565b6001600160a01b0384166000908152600160205260408120816104e8610744565b6001600160a01b03166001600160a01b031681526020019081526020016000205490508281101561054a5760405162461bcd60e51b8152600401808060200182810382526028815260200180610b716028913960400191505060405180910390fd5b61055e85610556610744565b858403610748565b506001949350505050565b601290565b60006104ab61057b610744565b848460016000610589610744565b6001600160a01b03908116825260208083019390935260409182016000908120918b168152925290205401610748565b6001600160a01b031660009081526020819052604090205490565b60048054604080516020601f600260001961010060018816150201909516949094049384018190048102820181019092528281526060939092909183018282801561048d5780601f106104625761010080835404028352916020019161048d565b60008060016000610644610744565b6001600160a01b03908116825260208083019390935260409182016000908120918816815292529020549050828110156106af5760405162461bcd60e51b8152600401808060200182810382526025815260200180610be26025913960400191505060405180910390fd5b6106c36106ba610744565b85858403610748565b5060019392505050565b60006104ab6106da610744565b8484610834565b6001600160a01b03918216600090815260016020908152604080832093909416825291909152205490565b835161071f906003906020870190610a64565b508251610733906004906020860190610a64565b5061073e828261098f565b50505050565b3390565b6001600160a01b03831661078d5760405162461bcd60e51b8152600401808060200182810382526024815260200180610bbe6024913960400191505060405180910390fd5b6001600160a01b0382166107d25760405162461bcd60e51b8152600401808060200182810382526022815260200180610b296022913960400191505060405180910390fd5b6001600160a01b03808416600081815260016020908152604080832094871680845294825291829020859055815185815291517f8c5be1e5ebec7d5bd14f71427d1e84f3dd0314c0f7b2291e5b200ac8c7c3b9259281900390910190a3505050565b6001600160a01b0383166108795760405162461bcd60e51b8152600401808060200182810382526025815260200180610b996025913960400191505060405180910390fd5b6001600160a01b0382166108be5760405162461bcd60e51b8152600401808060200182810382526023815260200180610b066023913960400191505060405180910390fd5b6108c9838383610a5f565b6001600160a01b038316600090815260208190526040902054818110156109215760405162461bcd60e51b8152600401808060200182810382526026815260200180610b4b6026913960400191505060405180910390fd5b6001600160a01b038085166000818152602081815260408083208787039055938716808352918490208054870190558351868152935191937fddf252ad1be2c89b69c2b068fc378daa952ba7f163c4a11628f55a4df523b3ef929081900390910190a361073e848484610a5f565b6001600160a01b0382166109ea576040805162461bcd60e51b815260206004820152601f60248201527f45524332303a206d696e7420746f20746865207a65726f206164647265737300604482015290519081900360640190fd5b6109f660008383610a5f565b60028054820190556001600160a01b038216600081815260208181526040808320805486019055805185815290517fddf252ad1be2c89b69c2b068fc378daa952ba7f163c4a11628f55a4df523b3ef929181900390910190a3610a5b60008383610a5f565b5050565b505050565b828054600181600116156101000203166002900490600052602060002090601f016020900481019282610a9a5760008555610ae0565b82601f10610ab357805160ff1916838001178555610ae0565b82800160010185558215610ae0579182015b82811115610ae0578251825591602001919060010190610ac5565b50610aec929150610af0565b5090565b5b80821115610aec5760008155600101610af156fe45524332303a207472616e7366657220746f20746865207a65726f206164647265737345524332303a20617070726f766520746f20746865207a65726f206164647265737345524332303a207472616e7366657220616d6f756e7420657863656564732062616c616e636545524332303a207472616e7366657220616d6f756e74206578636565647320616c6c6f77616e636545524332303a207472616e736665722066726f6d20746865207a65726f206164647265737345524332303a20617070726f76652066726f6d20746865207a65726f206164647265737345524332303a2064656372656173656420616c6c6f77616e63652062656c6f77207a65726fa2646970667358221220c5dc96a67593e522464587167203dc0c2e1e7d7f7ec9f394a2220e8cff30d40a64736f6c634300070600334f776e61626c653a206e6577206f776e657220697320746865207a65726f2061646472657373a264697066735822122079615435a5155e45b97d7248a2ea9a93790aafaab091030a761f324111a21c2464736f6c63430007060033",
  "linkReferences": {},
  "deployedLinkReferences": {}
}