{
  "_format": "hh-sol-artifact-1",
  "contractName": "ParadoxV1",
  "sourceName": "contracts/ParadoxV1.sol",
  "abi": [
    {
      "inputs": [],
      "stateMutability": "nonpayable",
      "type": "constructor"
    },
    {
      "anonymous": false,
      "inputs": [
        {
          "indexed": false,
          "internalType": "address",
          "name": "account_",
          "type": "address"
        },
        {
          "indexed": false,
          "internalType": "address",
          "name": "token0_",
          "type": "address"
        },
        {
          "indexed": false,
          "internalType": "address",
          "name": "token1_",
          "type": "address"
        },
        {
          "indexed": false,
          "internalType": "uint256",
          "name": "token0input_",
          "type": "uint256"
        },
        {
          "indexed": false,
          "internalType": "uint256",
          "name": "token1input_",
          "type": "uint256"
        }
      ],
      "name": "AddLiquidity",
      "type": "event"
    },
    {
      "anonymous": false,
      "inputs": [
        {
          "indexed": false,
          "internalType": "string",
          "name": "symbol_",
          "type": "string"
        },
        {
          "indexed": false,
          "internalType": "address",
          "name": "from_",
          "type": "address"
        },
        {
          "indexed": false,
          "internalType": "address",
          "name": "to_",
          "type": "address"
        }
      ],
      "name": "Assign",
      "type": "event"
    },
    {
      "anonymous": false,
      "inputs": [
        {
          "indexed": false,
          "internalType": "address",
          "name": "account_",
          "type": "address"
        },
        {
          "indexed": false,
          "internalType": "address",
          "name": "token_",
          "type": "address"
        },
        {
          "indexed": false,
          "internalType": "uint256",
          "name": "amount_",
          "type": "uint256"
        }
      ],
      "name": "Deposit",
      "type": "event"
    },
    {
      "anonymous": false,
      "inputs": [
        {
          "indexed": false,
          "internalType": "string",
          "name": "symbol_",
          "type": "string"
        },
        {
          "indexed": false,
          "internalType": "address",
          "name": "token_",
          "type": "address"
        },
        {
          "indexed": false,
          "internalType": "uint256",
          "name": "amount_",
          "type": "uint256"
        }
      ],
      "name": "Drain",
      "type": "event"
    },
    {
      "anonymous": false,
      "inputs": [
        {
          "indexed": false,
          "internalType": "string",
          "name": "symbol_",
          "type": "string"
        },
        {
          "indexed": false,
          "internalType": "address",
          "name": "token_",
          "type": "address"
        },
        {
          "indexed": false,
          "internalType": "uint256",
          "name": "amount_",
          "type": "uint256"
        }
      ],
      "name": "Fill",
      "type": "event"
    },
    {
      "anonymous": false,
      "inputs": [
        {
          "indexed": false,
          "internalType": "string",
          "name": "symbol_",
          "type": "string"
        },
        {
          "indexed": false,
          "internalType": "address",
          "name": "account_",
          "type": "address"
        }
      ],
      "name": "Mint",
      "type": "event"
    },
    {
      "anonymous": false,
      "inputs": [
        {
          "indexed": true,
          "internalType": "address",
          "name": "previousOwner",
          "type": "address"
        },
        {
          "indexed": true,
          "internalType": "address",
          "name": "newOwner",
          "type": "address"
        }
      ],
      "name": "OwnershipTransferred",
      "type": "event"
    },
    {
      "anonymous": false,
      "inputs": [
        {
          "indexed": false,
          "internalType": "address",
          "name": "account_",
          "type": "address"
        },
        {
          "indexed": false,
          "internalType": "address",
          "name": "tokenHave_",
          "type": "address"
        },
        {
          "indexed": false,
          "internalType": "address",
          "name": "tokenWant_",
          "type": "address"
        },
        {
          "indexed": false,
          "internalType": "uint256",
          "name": "input_",
          "type": "uint256"
        },
        {
          "indexed": false,
          "internalType": "uint256",
          "name": "output_",
          "type": "uint256"
        }
      ],
      "name": "Swap",
      "type": "event"
    },
    {
      "anonymous": false,
      "inputs": [
        {
          "indexed": false,
          "internalType": "address",
          "name": "token_",
          "type": "address"
        },
        {
          "indexed": false,
          "internalType": "address",
          "name": "from_",
          "type": "address"
        },
        {
          "indexed": false,
          "internalType": "address",
          "name": "to_",
          "type": "address"
        },
        {
          "indexed": false,
          "internalType": "uint256",
          "name": "amount_",
          "type": "uint256"
        }
      ],
      "name": "Transfer",
      "type": "event"
    },
    {
      "anonymous": false,
      "inputs": [
        {
          "indexed": false,
          "internalType": "address",
          "name": "account_",
          "type": "address"
        },
        {
          "indexed": false,
          "internalType": "address",
          "name": "token_",
          "type": "address"
        },
        {
          "indexed": false,
          "internalType": "uint256",
          "name": "amount_",
          "type": "uint256"
        }
      ],
      "name": "Withdrawal",
      "type": "event"
    },
    {
      "inputs": [],
      "name": "accountListLength",
      "outputs": [
        {
          "internalType": "uint256",
          "name": "",
          "type": "uint256"
        }
      ],
      "stateMutability": "view",
      "type": "function"
    },
    {
      "inputs": [
        {
          "internalType": "address",
          "name": "_token0",
          "type": "address"
        },
        {
          "internalType": "address",
          "name": "_token1",
          "type": "address"
        },
        {
          "internalType": "uint256",
          "name": "_token0input",
          "type": "uint256"
        },
        {
          "internalType": "uint256",
          "name": "_token1input",
          "type": "uint256"
        }
      ],
      "name": "addLiquidity",
      "outputs": [],
      "stateMutability": "nonpayable",
      "type": "function"
    },
    {
      "inputs": [
        {
          "internalType": "string",
          "name": "_symbol",
          "type": "string"
        },
        {
          "internalType": "address",
          "name": "_to",
          "type": "address"
        }
      ],
      "name": "assign",
      "outputs": [],
      "stateMutability": "nonpayable",
      "type": "function"
    },
    {
      "inputs": [
        {
          "internalType": "address",
          "name": "_token",
          "type": "address"
        },
        {
          "internalType": "uint256",
          "name": "_amount",
          "type": "uint256"
        }
      ],
      "name": "deposit",
      "outputs": [],
      "stateMutability": "nonpayable",
      "type": "function"
    },
    {
      "inputs": [
        {
          "internalType": "string",
          "name": "_symbol",
          "type": "string"
        },
        {
          "internalType": "address",
          "name": "_token",
          "type": "address"
        },
        {
          "internalType": "uint256",
          "name": "_amount",
          "type": "uint256"
        }
      ],
      "name": "drain",
      "outputs": [],
      "stateMutability": "nonpayable",
      "type": "function"
    },
    {
      "inputs": [],
      "name": "feeRecipient",
      "outputs": [
        {
          "internalType": "address",
          "name": "",
          "type": "address"
        }
      ],
      "stateMutability": "view",
      "type": "function"
    },
    {
      "inputs": [],
      "name": "feeRecipientSetter",
      "outputs": [
        {
          "internalType": "address",
          "name": "",
          "type": "address"
        }
      ],
      "stateMutability": "view",
      "type": "function"
    },
    {
      "inputs": [
        {
          "internalType": "string",
          "name": "_symbol",
          "type": "string"
        },
        {
          "internalType": "address",
          "name": "_token",
          "type": "address"
        },
        {
          "internalType": "uint256",
          "name": "_amount",
          "type": "uint256"
        }
      ],
      "name": "fill",
      "outputs": [],
      "stateMutability": "nonpayable",
      "type": "function"
    },
    {
      "inputs": [
        {
          "internalType": "address",
          "name": "_token0",
          "type": "address"
        },
        {
          "internalType": "address",
          "name": "_token1",
          "type": "address"
        }
      ],
      "name": "findCPI",
      "outputs": [
        {
          "components": [
            {
              "internalType": "uint256",
              "name": "a",
              "type": "uint256"
            },
            {
              "internalType": "uint256",
              "name": "b",
              "type": "uint256"
            },
            {
              "internalType": "uint256",
              "name": "k",
              "type": "uint256"
            }
          ],
          "internalType": "struct CPI",
          "name": "foundCPI",
          "type": "tuple"
        },
        {
          "internalType": "bool",
          "name": "orderCorrect",
          "type": "bool"
        }
      ],
      "stateMutability": "view",
      "type": "function"
    },
    {
      "inputs": [
        {
          "internalType": "uint256",
          "name": "",
          "type": "uint256"
        }
      ],
      "name": "getAccount",
      "outputs": [
        {
          "internalType": "address",
          "name": "",
          "type": "address"
        }
      ],
      "stateMutability": "view",
      "type": "function"
    },
    {
      "inputs": [
        {
          "internalType": "address",
          "name": "",
          "type": "address"
        },
        {
          "internalType": "address",
          "name": "",
          "type": "address"
        }
      ],
      "name": "getBook",
      "outputs": [
        {
          "internalType": "uint256",
          "name": "",
          "type": "uint256"
        }
      ],
      "stateMutability": "view",
      "type": "function"
    },
    {
      "inputs": [
        {
          "internalType": "address",
          "name": "",
          "type": "address"
        },
        {
          "internalType": "uint256",
          "name": "",
          "type": "uint256"
        }
      ],
      "name": "getBookList",
      "outputs": [
        {
          "internalType": "address",
          "name": "",
          "type": "address"
        }
      ],
      "stateMutability": "view",
      "type": "function"
    },
    {
      "inputs": [
        {
          "internalType": "address",
          "name": "",
          "type": "address"
        }
      ],
      "name": "getBookListLength",
      "outputs": [
        {
          "internalType": "uint256",
          "name": "",
          "type": "uint256"
        }
      ],
      "stateMutability": "view",
      "type": "function"
    },
    {
      "inputs": [
        {
          "internalType": "address",
          "name": "",
          "type": "address"
        },
        {
          "internalType": "address",
          "name": "",
          "type": "address"
        }
      ],
      "name": "getCPI",
      "outputs": [
        {
          "internalType": "uint256",
          "name": "a",
          "type": "uint256"
        },
        {
          "internalType": "uint256",
          "name": "b",
          "type": "uint256"
        },
        {
          "internalType": "uint256",
          "name": "k",
          "type": "uint256"
        }
      ],
      "stateMutability": "view",
      "type": "function"
    },
    {
      "inputs": [
        {
          "internalType": "address",
          "name": "",
          "type": "address"
        },
        {
          "internalType": "address",
          "name": "",
          "type": "address"
        },
        {
          "internalType": "address",
          "name": "",
          "type": "address"
        }
      ],
      "name": "getLP",
      "outputs": [
        {
          "internalType": "uint256",
          "name": "",
          "type": "uint256"
        }
      ],
      "stateMutability": "view",
      "type": "function"
    },
    {
      "inputs": [
        {
          "internalType": "address",
          "name": "",
          "type": "address"
        },
        {
          "internalType": "string",
          "name": "",
          "type": "string"
        },
        {
          "internalType": "uint256",
          "name": "",
          "type": "uint256"
        }
      ],
      "name": "getOffers",
      "outputs": [
        {
          "internalType": "address",
          "name": "account",
          "type": "address"
        },
        {
          "internalType": "uint256",
          "name": "amount",
          "type": "uint256"
        }
      ],
      "stateMutability": "view",
      "type": "function"
    },
    {
      "inputs": [
        {
          "internalType": "address",
          "name": "",
          "type": "address"
        },
        {
          "internalType": "uint256",
          "name": "",
          "type": "uint256"
        }
      ],
      "name": "getOwnerTps",
      "outputs": [
        {
          "internalType": "string",
          "name": "",
          "type": "string"
        }
      ],
      "stateMutability": "view",
      "type": "function"
    },
    {
      "inputs": [
        {
          "internalType": "string",
          "name": "",
          "type": "string"
        },
        {
          "internalType": "address",
          "name": "",
          "type": "address"
        }
      ],
      "name": "getTp",
      "outputs": [
        {
          "internalType": "uint256",
          "name": "",
          "type": "uint256"
        }
      ],
      "stateMutability": "view",
      "type": "function"
    },
    {
      "inputs": [
        {
          "internalType": "string",
          "name": "",
          "type": "string"
        }
      ],
      "name": "getTpOwner",
      "outputs": [
        {
          "internalType": "address",
          "name": "",
          "type": "address"
        }
      ],
      "stateMutability": "view",
      "type": "function"
    },
    {
      "inputs": [
        {
          "internalType": "string",
          "name": "_symbol",
          "type": "string"
        }
      ],
      "name": "mint",
      "outputs": [],
      "stateMutability": "nonpayable",
      "type": "function"
    },
    {
      "inputs": [],
      "name": "owner",
      "outputs": [
        {
          "internalType": "address",
          "name": "",
          "type": "address"
        }
      ],
      "stateMutability": "view",
      "type": "function"
    },
    {
      "inputs": [],
      "name": "renounceOwnership",
      "outputs": [],
      "stateMutability": "nonpayable",
      "type": "function"
    },
    {
      "inputs": [
        {
          "internalType": "address",
          "name": "_feeRecipient",
          "type": "address"
        }
      ],
      "name": "setFeeRecipient",
      "outputs": [],
      "stateMutability": "nonpayable",
      "type": "function"
    },
    {
      "inputs": [
        {
          "internalType": "address",
          "name": "_feeRecipientSetter",
          "type": "address"
        }
      ],
      "name": "setFeeRecipientSetter",
      "outputs": [],
      "stateMutability": "nonpayable",
      "type": "function"
    },
    {
      "inputs": [
        {
          "internalType": "address",
          "name": "_token0",
          "type": "address"
        },
        {
          "internalType": "address",
          "name": "_token1",
          "type": "address"
        },
        {
          "internalType": "uint256",
          "name": "_give",
          "type": "uint256"
        }
      ],
      "name": "swap",
      "outputs": [],
      "stateMutability": "nonpayable",
      "type": "function"
    },
    {
      "inputs": [
        {
          "internalType": "address",
          "name": "_tokenHave",
          "type": "address"
        },
        {
          "internalType": "address",
          "name": "_tokenWant",
          "type": "address"
        },
        {
          "internalType": "uint256",
          "name": "_give",
          "type": "uint256"
        }
      ],
      "name": "swapCalc",
      "outputs": [
        {
          "components": [
            {
              "internalType": "uint256",
              "name": "a",
              "type": "uint256"
            },
            {
              "internalType": "uint256",
              "name": "b",
              "type": "uint256"
            },
            {
              "internalType": "uint256",
              "name": "k",
              "type": "uint256"
            }
          ],
          "internalType": "struct CPI",
          "name": "swapCPI",
          "type": "tuple"
        },
        {
          "internalType": "bool",
          "name": "aIsHave",
          "type": "bool"
        },
        {
          "internalType": "uint256",
          "name": "output",
          "type": "uint256"
        }
      ],
      "stateMutability": "view",
      "type": "function"
    },
    {
      "inputs": [
        {
          "internalType": "uint256",
          "name": "",
          "type": "uint256"
        }
      ],
      "name": "tpList",
      "outputs": [
        {
          "internalType": "string",
          "name": "",
          "type": "string"
        }
      ],
      "stateMutability": "view",
      "type": "function"
    },
    {
      "inputs": [
        {
          "internalType": "address",
          "name": "_token",
          "type": "address"
        },
        {
          "internalType": "address",
          "name": "_to",
          "type": "address"
        },
        {
          "internalType": "uint256",
          "name": "_amount",
          "type": "uint256"
        }
      ],
      "name": "transfer",
      "outputs": [],
      "stateMutability": "nonpayable",
      "type": "function"
    },
    {
      "inputs": [
        {
          "internalType": "address",
          "name": "newOwner",
          "type": "address"
        }
      ],
      "name": "transferOwnership",
      "outputs": [],
      "stateMutability": "nonpayable",
      "type": "function"
    },
    {
      "inputs": [
        {
          "internalType": "address",
          "name": "_token",
          "type": "address"
        },
        {
          "internalType": "uint256",
          "name": "_amount",
          "type": "uint256"
        }
      ],
      "name": "withdraw",
      "outputs": [],
      "stateMutability": "nonpayable",
      "type": "function"
    }
  ],
  "bytecode": "0x608060405260016003553480156200001657600080fd5b50600062000023620000be565b600080546001600160a01b0319166001600160a01b0383169081178255604051929350917f8be0079c531659141344cd1fd0a4f28419497f9722a3daafe3b4186f6b6457e0908290a350620000b86040518060400160405280601581526020017f50617261646f78563120636f6e7374727563746f720000000000000000000000815250620000c260201b62001b6f1760201c565b62000196565b3390565b62000172816040516024018080602001828103825283818151815260200191508051906020019080838360005b8381101562000109578181015183820152602001620000ef565b50505050905090810190601f168015620001375780820380516001836020036101000a031916815260200191505b5060408051601f198184030181529190526020810180516001600160e01b0390811663104c13eb60e21b179091529093506200017516915050565b50565b80516a636f6e736f6c652e6c6f67602083016000808483855afa5050505050565b612e4c80620001a66000396000f3fe608060405234801561001057600080fd5b50600436106101da5760003560e01c8063b795d28c11610104578063d6c3c034116100a2578063e74b981b11610071578063e74b981b146103a8578063f1bb7f5114610402578063f2fde38b14610415578063f3fef3a314610428576101da565b8063d6c3c034146103a8578063d85d3d27146103bb578063dc7cce5b146103ce578063df791e50146103ef576101da565b8063c203fec4116100de578063c203fec414610367578063c97fdae11461037a578063ce88b14514610382578063cf6c62ea14610395576101da565b8063b795d28c1461032e578063beabacc814610341578063c062b35b14610354576101da565b8063542dcbc31161017c57806389b9620e1161014b57806389b9620e146102de5780638c367e95146102f15780638da5cb5b1461031357806394c8f6a61461031b576101da565b8063542dcbc3146102a857806357bcc020146102b0578063715018a6146102c357806380f8c48b146102cb576101da565b806330c7a451116101b857806330c7a4511461024b5780633293b6191461026b578063469048401461028b57806347e7ef2414610293576101da565b80630a7fce1d146101df57806310a847981461020957806310c3c61014610229575b600080fd5b6101f26101ed36600461247c565b61043b565b604051610200929190612d3f565b60405180910390f35b61021c6102173660046125c1565b61045a565b60405161020091906127ce565b61023c61023736600461247c565b610492565b60405161020093929190612d84565b61025e61025936600461247c565b6104be565b6040516102009190612d7b565b61027e6102793660046125c1565b6104db565b604051610200919061287d565b61021c610592565b6102a66102a13660046125c1565b6105a1565b005b61025e610964565b61025e6102be366004612645565b61096a565b6102a6610997565b61027e6102d93660046126cd565b610a55565b61021c6102ec36600461260a565b610acb565b6103046102ff3660046124f0565b610af1565b60405161020093929190612d5c565b61021c610bfc565b61025e610329366004612462565b610c0b565b6102a661033c366004612688565b610c1d565b6102a661034f3660046124f0565b610e18565b6102a6610362366004612688565b610efe565b61025e6103753660046124ae565b6110df565b61021c611102565b61021c6103903660046126cd565b611111565b6102a66103a336600461252b565b61113b565b6102a66103b6366004612462565b6113b2565b6102a66103c936600461260a565b6113fe565b6103e16103dc36600461256c565b611564565b60405161020092919061283a565b6102a66103fd3660046124f0565b6115c7565b6102a6610410366004612645565b6116a0565b6102a6610423366004612462565b61189f565b6102a66104363660046125c1565b6119b3565b6104436122cf565b600061044f8484611c18565b909590945092505050565b6006602052816000526040600020818154811061047657600080fd5b6000918252602090912001546001600160a01b03169150829050565b600d60209081526000928352604080842090915290825290208054600182015460029092015490919083565b600460209081526000928352604080842090915290825290205481565b600a60205281600052604060002081815481106104f757600080fd5b600091825260209182902001805460408051601f6002600019610100600187161502019094169390930492830185900485028101850190915281815294509092509083018282801561058a5780601f1061055f5761010080835404028352916020019161058a565b820191906000526020600020905b81548152906001019060200180831161056d57829003601f168201915b505050505081565b6001546001600160a01b031681565b6003546001146105cc5760405162461bcd60e51b81526004016105c390612c17565b60405180910390fd5b60006003556001600160a01b0382166105f75760405162461bcd60e51b81526004016105c390612cc8565b600081116106175760405162461bcd60e51b81526004016105c3906129d7565b6040516370a0823160e01b8152829082906001600160a01b038316906370a08231906106479033906004016127ce565b60206040518083038186803b15801561065f57600080fd5b505afa158015610673573d6000803e3d6000fd5b505050506040513d601f19601f8201168201806040525081019061069791906126e5565b10156106b55760405162461bcd60e51b81526004016105c390612b22565b3360009081526004602090815260408083206001600160a01b03871684529091528120541561070857503360009081526004602090815260408083206001600160a01b038716845290915290205461070c565b5060005b3360009081526006602090815260408083208054825181850281018501909352808352919290919083018282801561076d57602002820191906000526020600020905b81546001600160a01b0316815260019091019060200180831161074f575b505050505090506000815190506000805b828110156107c457876001600160a01b031684828151811061079c57fe5b60200260200101516001600160a01b031614156107bc57600191506107c4565b60010161077e565b5080610817573360008181526006602090815260408083208054600180820183559185528385200180546001600160a01b0319166001600160a01b038e1617905593835260079091529020805490910190555b6040516323b872dd60e01b81526001600160a01b038616906323b872dd9061084790339030908b90600401612816565b602060405180830381600087803b15801561086157600080fd5b505af1158015610875573d6000803e3d6000fd5b505050506040513d601f19601f8201168201806040525081019061089991906125ea565b506108a48487611d20565b3360008181526004602090815260408083206001600160a01b038d1684529091529020919091556108d490611d81565b61091b57600580546001810182556000919091527f036b6384b5eca791c62761152d0c79bb0604c104a5fb6f4eb0703f3154bb3db00180546001600160a01b031916331790555b7f5548c837ab068cf56a2c2479df0882a4922fd203edb7517321831d95078c5f6233888860405161094e93929190612816565b60405180910390a1505060016003555050505050565b60055490565b81516020818401810180516008825292820194820194909420919093529091526000908152604090205481565b61099f611ddb565b6001600160a01b03166109b0610bfc565b6001600160a01b031614610a0b576040805162461bcd60e51b815260206004820181905260248201527f4f776e61626c653a2063616c6c6572206973206e6f7420746865206f776e6572604482015290519081900360640190fd5b600080546040516001600160a01b03909116907f8be0079c531659141344cd1fd0a4f28419497f9722a3daafe3b4186f6b6457e0908390a3600080546001600160a01b0319169055565b600b8181548110610a6557600080fd5b600091825260209182902001805460408051601f600260001961010060018716150201909416939093049283018590048502810185019091528181529350909183018282801561058a5780601f1061055f5761010080835404028352916020019161058a565b80516020818301810180516009825292820191909301209152546001600160a01b031681565b610af96122cf565b6000806001600160a01b038616610b225760405162461bcd60e51b81526004016105c390612cc8565b6001600160a01b038516610b485760405162461bcd60e51b81526004016105c390612cc8565b60008411610b685760405162461bcd60e51b81526004016105c39061295d565b610b728686611c18565b60408201519194509250610b985760405162461bcd60e51b81526004016105c390612a7d565b81610bd257610bcd610bc5610bba868660200151611d2090919063ffffffff16565b604086015190611ddf565b845190611e46565b610bf1565b8251610bf190610be690610bba9087611d20565b602085015190611e46565b905093509350939050565b6000546001600160a01b031690565b60076020526000908152604090205481565b600354600114610c3f5760405162461bcd60e51b81526004016105c390612c17565b60006003556001600160a01b038216610c6a5760405162461bcd60e51b81526004016105c390612cc8565b336001600160a01b0316600984604051610c849190612742565b908152604051908190036020019020546001600160a01b031614610cba5760405162461bcd60e51b81526004016105c390612aeb565b6000600884604051610ccc9190612742565b90815260408051602092819003830190206001600160a01b03861660009081529252902054905081811015610d135760405162461bcd60e51b81526004016105c390612cfd565b610d5282600886604051610d279190612742565b90815260408051602092819003830190206001600160a01b0388166000908152925290205490611e46565b600885604051610d629190612742565b90815260408051602092819003830190206001600160a01b0387166000818152918452828220949094553381526004835281812093815292909152902054610daa9083611d20565b3360009081526004602090815260408083206001600160a01b03881684529091529081902091909155517f0bd2df912f4aa5f26366b1353a4e72d5b7988935634dcaf30a698385c41c0ca390610e05908690869086906128ed565b60405180910390a1505060016003555050565b600354600114610e3a5760405162461bcd60e51b81526004016105c390612c17565b60006003556001600160a01b038316610e655760405162461bcd60e51b81526004016105c390612cc8565b6001600160a01b038216610e8b5760405162461bcd60e51b81526004016105c39061291b565b60008111610eab5760405162461bcd60e51b81526004016105c390612c42565b610eb783338484611ea3565b7fd1398bee19313d6bf672ccb116e51f4a1a947e91c757907f51fbb5b5e56c698f83338484604051610eec9493929190612853565b60405180910390a15050600160035550565b600354600114610f205760405162461bcd60e51b81526004016105c390612c17565b60006003556001600160a01b038216610f4b5760405162461bcd60e51b81526004016105c390612cc8565b336001600160a01b0316600984604051610f659190612742565b908152604051908190036020019020546001600160a01b031614610f9b5760405162461bcd60e51b81526004016105c390612aeb565b3360009081526004602090815260408083206001600160a01b038616845290915290205481811015610fdf5760405162461bcd60e51b81526004016105c390612c84565b3360009081526004602090815260408083206001600160a01b038716845290915290205461100d9083611e46565b3360009081526004602090815260408083206001600160a01b038816845290915290819020919091555161107690839060089061104b908890612742565b90815260408051602092819003830190206001600160a01b0388166000908152925290205490611d20565b6008856040516110869190612742565b9081526040805191829003602090810183206001600160a01b0388166000908152915220919091557f43e6f72b1076821a74d5e9628ec0044cb5bebc60c8be905a37382d310bbc0f9d90610e05908690869086906128ed565b600e60209081526000938452604080852082529284528284209052825290205481565b6002546001600160a01b031681565b6005818154811061112157600080fd5b6000918252602090912001546001600160a01b0316905081565b60035460011461115d5760405162461bcd60e51b81526004016105c390612c17565b60006003556001600160a01b0384166111885760405162461bcd60e51b81526004016105c390612cc8565b6001600160a01b0383166111ae5760405162461bcd60e51b81526004016105c390612cc8565b600082116111ce5760405162461bcd60e51b81526004016105c390612994565b600081116111ee5760405162461bcd60e51b81526004016105c390612994565b3360009081526004602090815260408083206001600160a01b03881684529091529020548211156112315760405162461bcd60e51b81526004016105c390612c84565b3360009081526004602090815260408083206001600160a01b03871684529091529020548111156112745760405162461bcd60e51b81526004016105c390612c84565b3360009081526004602090815260408083206001600160a01b0388811685529252808320805486900390559085168252812080548390039055806112b88686611c18565b915091508160400151600014156112f757806112d457826112d6565b835b8252806112e357836112e5565b825b6020830152838302604083015261135b565b60008161130f57825161130a9085611d20565b61131b565b825161131b9086611d20565b90506000826113385760208401516113339087611d20565b611347565b60208401516113479086611d20565b828552602085018190529091026040840152505b611366868684611f92565b7fc33fbc9654f9c0dcfcbd829113bdb10afe95619bc0824bc5959ad82fd6952bd9338787878760405161139d9594939291906127e2565b60405180910390a15050600160035550505050565b6001546001600160a01b031633146113dc5760405162461bcd60e51b81526004016105c390612a4f565b600180546001600160a01b0319166001600160a01b0392909216919091179055565b6003546001146114205760405162461bcd60e51b81526004016105c390612c17565b60006003819055604051600990611438908490612742565b908152604051908190036020019020546001600160a01b03161461146e5760405162461bcd60e51b81526004016105c390612ab4565b3360098260405161147f9190612742565b908152604080516020928190038301902080546001600160a01b0319166001600160a01b039490941693909317909255336000908152600a825291822080546001810182559083529181902083516114de9391909101918401906122f0565b50600b80546001810182556000919091528151611522917f0175b7a638427703f0dbe7bb9bbf987a2551717b34e79f33b5b1008d1fa01db9019060208401906122f0565b507f79b04a02d84fec4f53dec01c843dee92deee8a6d7dc31a65ae8c2c6b60200cf38133604051611554929190612890565b60405180910390a1506001600355565b600c602090815260008481526040902083518085018301805192815290830192850192909220915280548290811061159b57600080fd5b6000918252602090912060029091020180546001909101546001600160a01b0390911693509150839050565b6003546001146115e95760405162461bcd60e51b81526004016105c390612c17565b60006003556001600160a01b0383166116145760405162461bcd60e51b81526004016105c390612cc8565b6001600160a01b03821661163a5760405162461bcd60e51b81526004016105c390612cc8565b6000811161165a5760405162461bcd60e51b81526004016105c39061295d565b600061166784848461207b565b90507fcd3829a3813dc3cdd188fd3d01dcf3268c16be2fdd2dd21d0665418816e460623385858585604051610e059594939291906127e2565b6003546001146116c25760405162461bcd60e51b81526004016105c390612c17565b60006003556001600160a01b0381166116ed5760405162461bcd60e51b81526004016105c390612cc8565b336001600160a01b03166009836040516117079190612742565b908152604051908190036020019020546001600160a01b03161461173d5760405162461bcd60e51b81526004016105c390612aeb565b60005b826040516020016117519190612742565b60408051601f198184030181529181528151602092830120336000908152600a909352912080548390811061178257fe5b9060005260206000200160405160200161179c919061275e565b60405160208183030381529060405280519060200120146117bf57600101611740565b336000908152600a602052604090208054829081106117da57fe5b9060005260206000200160006117f0919061237c565b6001600160a01b0382166000908152600a602090815260408220805460018101825590835291819020855161182c9391909101918601906122f0565b508160098460405161183e9190612742565b90815260405190819003602001812080546001600160a01b03939093166001600160a01b0319909316929092179091557fe76375c57eef426276019091544847f973c885ebf3202e77e8430f0aa7ad6a1f90610eec908590339086906128ba565b6118a7611ddb565b6001600160a01b03166118b8610bfc565b6001600160a01b031614611913576040805162461bcd60e51b815260206004820181905260248201527f4f776e61626c653a2063616c6c6572206973206e6f7420746865206f776e6572604482015290519081900360640190fd5b6001600160a01b0381166119585760405162461bcd60e51b8152600401808060200182810382526026815260200180612dc76026913960400191505060405180910390fd5b600080546040516001600160a01b03808516939216917f8be0079c531659141344cd1fd0a4f28419497f9722a3daafe3b4186f6b6457e091a3600080546001600160a01b0319166001600160a01b0392909216919091179055565b6003546001146119d55760405162461bcd60e51b81526004016105c390612c17565b60006003556001600160a01b038216611a005760405162461bcd60e51b81526004016105c390612cc8565b60008111611a205760405162461bcd60e51b81526004016105c390612bd5565b3360009081526004602090815260408083206001600160a01b038616845290915290205481811015611a645760405162461bcd60e51b81526004016105c390612c84565b60405163a9059cbb60e01b815283906001600160a01b0382169063a9059cbb90611a94903390879060040161283a565b602060405180830381600087803b158015611aae57600080fd5b505af1158015611ac2573d6000803e3d6000fd5b505050506040513d601f19601f82011682018060405250810190611ae691906125ea565b503360009081526004602090815260408083206001600160a01b0388168452909152902054611b159084611e46565b3360008181526004602090815260408083206001600160a01b038a168452909152908190209290925590517f2717ead6b9200dd235aad468c9809ea400fe33ac69b5bfaa6d3e90fc922b639891610e059187908790612816565b611c15816040516024018080602001828103825283818151815260200191508051906020019080838360005b83811015611bb3578181015183820152602001611b9b565b50505050905090810190601f168015611be05780820380516001836020036101000a031916815260200191505b5060408051601f198184030181529190526020810180516001600160e01b031663104c13eb60e21b1790529250612118915050565b50565b611c206122cf565b60006001600160a01b03841615801590611c4257506001600160a01b03831615155b611c5e5760405162461bcd60e51b81526004016105c390612b9e565b6000836001600160a01b0316856001600160a01b031610611c7f5783611c81565b845b90506000846001600160a01b0316866001600160a01b031610611ca45785611ca6565b845b9050856001600160a01b0316826001600160a01b031614611cc8576000611ccb565b60015b6001600160a01b039283166000908152600d6020908152604080832094909516825292835283902083516060810185528154815260018201549381019390935260020154928201929092529590945092505050565b600082820183811015611d7a576040805162461bcd60e51b815260206004820152601b60248201527f536166654d6174683a206164646974696f6e206f766572666c6f770000000000604482015290519081900360640190fd5b9392505050565b600554600090815b81811015611dd457836001600160a01b031660058281548110611da857fe5b6000918252602090912001546001600160a01b03161415611dcc5760019250611dd4565b600101611d89565b5050919050565b3390565b6000808211611e35576040805162461bcd60e51b815260206004820152601a60248201527f536166654d6174683a206469766973696f6e206279207a65726f000000000000604482015290519081900360640190fd5b818381611e3e57fe5b049392505050565b600082821115611e9d576040805162461bcd60e51b815260206004820152601e60248201527f536166654d6174683a207375627472616374696f6e206f766572666c6f770000604482015290519081900360640190fd5b50900390565b6001600160a01b03808416600090815260046020908152604080832093881683529290522054811115611ee85760405162461bcd60e51b81526004016105c390612a18565b6001600160a01b03808416600090815260046020908152604080832093881683529290522054611f189082611e46565b6001600160a01b0380851660009081526004602081815260408084208a861680865290835281852096909655938716835290815282822093825292909252902054611f639082611d20565b6001600160a01b0392831660009081526004602090815260408083209790951682529590955291909320555050565b6001600160a01b03831615801590611fb257506001600160a01b03821615155b611fce5760405162461bcd60e51b81526004016105c390612b9e565b6040810151611fef5760405162461bcd60e51b81526004016105c390612b67565b6000826001600160a01b0316846001600160a01b0316106120105782612012565b835b90506000836001600160a01b0316856001600160a01b0316106120355784612037565b835b6001600160a01b039283166000908152600d602090815260408083209590931682529384528190208451815592840151600184015590920151600290910155505050565b60006120856122cf565b6000612092868686610af1565b94509092509050806120af5781516120aa9084611e46565b6120bb565b81516120bb9085611d20565b8252806120d65760208201516120d19085611d20565b6120e5565b60208201516120e59084611e46565b60208301526120f5868684611f92565b6121023387600087612139565b61210f3386856000612139565b50509392505050565b80516a636f6e736f6c652e6c6f67602083016000808483855afa5050505050565b6001600160a01b0384161580159061215957506001600160a01b03831615155b6121755760405162461bcd60e51b81526004016105c390612b9e565b6001600160a01b03808516600090815260046020908152604080832093871683529281529082902054825160608101909352602a80845290926121c492909190612ded9083013982858561220b565b6121d8826121d28386611d20565b90611e46565b6001600160a01b039586166000908152600460209081526040808320979098168252959095529490932093909355505050565b6122c9848484846040516024018080602001858152602001848152602001838152602001828103825286818151815260200191508051906020019080838360005b8381101561226457818101518382015260200161224c565b50505050905090810190601f1680156122915780820380516001836020036101000a031916815260200191505b5060408051601f198184030181529190526020810180516001600160e01b03166304772b3360e11b1790529550612118945050505050565b50505050565b60405180606001604052806000815260200160008152602001600081525090565b828054600181600116156101000203166002900490600052602060002090601f016020900481019282612326576000855561236c565b82601f1061233f57805160ff191683800117855561236c565b8280016001018555821561236c579182015b8281111561236c578251825591602001919060010190612351565b506123789291506123bc565b5090565b50805460018160011615610100020316600290046000825580601f106123a25750611c15565b601f016020900490600052602060002090810190611c1591905b5b8082111561237857600081556001016123bd565b80356001600160a01b03811681146123e857600080fd5b919050565b600082601f8301126123fd578081fd5b813567ffffffffffffffff8082111561241257fe5b604051601f8301601f19168101602001828111828210171561243057fe5b604052828152848301602001861015612447578384fd5b82602086016020830137918201602001929092529392505050565b600060208284031215612473578081fd5b611d7a826123d1565b6000806040838503121561248e578081fd5b612497836123d1565b91506124a5602084016123d1565b90509250929050565b6000806000606084860312156124c2578081fd5b6124cb846123d1565b92506124d9602085016123d1565b91506124e7604085016123d1565b90509250925092565b600080600060608486031215612504578283fd5b61250d846123d1565b925061251b602085016123d1565b9150604084013590509250925092565b60008060008060808587031215612540578081fd5b612549856123d1565b9350612557602086016123d1565b93969395505050506040820135916060013590565b600080600060608486031215612580578283fd5b612589846123d1565b9250602084013567ffffffffffffffff8111156125a4578283fd5b6125b0868287016123ed565b925050604084013590509250925092565b600080604083850312156125d3578182fd5b6125dc836123d1565b946020939093013593505050565b6000602082840312156125fb578081fd5b81518015158114611d7a578182fd5b60006020828403121561261b578081fd5b813567ffffffffffffffff811115612631578182fd5b61263d848285016123ed565b949350505050565b60008060408385031215612657578182fd5b823567ffffffffffffffff81111561266d578283fd5b612679858286016123ed565b9250506124a5602084016123d1565b60008060006060848603121561269c578283fd5b833567ffffffffffffffff8111156126b2578384fd5b6126be868287016123ed565b93505061251b602085016123d1565b6000602082840312156126de578081fd5b5035919050565b6000602082840312156126f6578081fd5b5051919050565b60008151808452612715816020860160208601612d9a565b601f01601f19169290920160200192915050565b8051825260208082015190830152604090810151910152565b60008251612754818460208701612d9a565b9190910192915050565b600080835460018082166000811461277d5760018114612794576127c3565b60ff198316865260028304607f16860193506127c3565b600283048786526020808720875b838110156127bb5781548a8201529085019082016127a2565b505050860193505b509195945050505050565b6001600160a01b0391909116815260200190565b6001600160a01b03958616815293851660208501529190931660408301526060820192909252608081019190915260a00190565b6001600160a01b039384168152919092166020820152604081019190915260600190565b6001600160a01b03929092168252602082015260400190565b6001600160a01b039485168152928416602084015292166040820152606081019190915260800190565b600060208252611d7a60208301846126fd565b6000604082526128a360408301856126fd565b905060018060a01b03831660208301529392505050565b6000606082526128cd60608301866126fd565b6001600160a01b0394851660208401529290931660409091015292915050565b60006060825261290060608301866126fd565b6001600160a01b039490941660208301525060400152919050565b60208082526022908201527f50617261646f7856313a20494e56414c49445f4143434f554e545f4144445245604082015261535360f01b606082015260800190565b6020808252601e908201527f50617261646f7856313a20494e56414c49445f535741505f414d4f554e540000604082015260600190565b60208082526023908201527f50617261646f7856313a20494e56414c49445f4c49515549444954595f414d4f60408201526215539560ea1b606082015260800190565b60208082526021908201527f50617261646f7856313a20494e56414c49445f4445504f5349545f414d4f554e6040820152601560fa1b606082015260800190565b6020808252601d908201527f50617261646f7856313a20494e53554646494349454e545f46554e4453000000604082015260600190565b6020808252601490820152732830b930b237bc2b189d102327a92124a22222a760611b604082015260600190565b6020808252601f908201527f50617261646f7856313a20544f4b454e5f504149525f4e4f545f464f554e4400604082015260600190565b60208082526017908201527f50617261646f7856313a20544f4b454e5f455849535453000000000000000000604082015260600190565b60208082526017908201527f50617261646f7856313a20554e415554484f52495a4544000000000000000000604082015260600190565b60208082526025908201527f50617261646f7856313a20494e53554646494349454e545f544f4b454e5f42416040820152644c414e434560d81b606082015260800190565b6020808252601b908201527f50617261646f7856313a20494e56414c49442043504920444154410000000000604082015260600190565b6020808252601a908201527f50617261646f7856313a20494e56414c49445f41444452455353000000000000604082015260600190565b60208082526022908201527f50617261646f7856313a20494e56414c49445f57495448445241575f414d4f55604082015261139560f21b606082015260800190565b60208082526011908201527014185c98591bde158c4e881313d0d2d151607a1b604082015260600190565b60208082526022908201527f50617261646f7856313a20494e56414c49445f5452414e534645525f414d4f55604082015261139560f21b606082015260800190565b60208082526024908201527f50617261646f7856313a20494e53554646494349454e545f424f4f4b5f42414c604082015263414e434560e01b606082015260800190565b6020808252818101527f50617261646f7856313a20494e56414c49445f544f4b454e5f41444452455353604082015260600190565b60208082526022908201527f50617261646f7856313a20494e53554646494349454e545f54505f42414c414e604082015261434560f01b606082015260800190565b60808101612d4d8285612729565b82151560608301529392505050565b60a08101612d6a8286612729565b921515606082015260800152919050565b90815260200190565b9283526020830191909152604082015260600190565b60005b83811015612db5578181015183820152602001612d9d565b838111156122c9575050600091015256fe4f776e61626c653a206e6577206f776e657220697320746865207a65726f20616464726573735f73616665557064617465426f6f6b202863757272656e742c206164642c207375627472616374293a20a264697066735822122041c5265e77bde7cba065921bc4c79aabe027f358914387e07bd61f43e0ba3f5c64736f6c63430007060033",
  "linkReferences": {},
  "deployedLinkReferences": {}
}