{
  "_format": "hh-sol-artifact-1",
  "contractName": "ParadoxV1",
  "sourceName": "contracts/ParadoxV1.sol",
  "abi": [
    {
      "inputs": [],
      "stateMutability": "nonpayable",
      "type": "constructor"
    },
    {
      "anonymous": false,
      "inputs": [
        {
          "indexed": false,
          "internalType": "address",
          "name": "account_",
          "type": "address"
        },
        {
          "indexed": false,
          "internalType": "address",
          "name": "token0_",
          "type": "address"
        },
        {
          "indexed": false,
          "internalType": "address",
          "name": "token1_",
          "type": "address"
        },
        {
          "indexed": false,
          "internalType": "uint256",
          "name": "token0input_",
          "type": "uint256"
        },
        {
          "indexed": false,
          "internalType": "uint256",
          "name": "token1input_",
          "type": "uint256"
        }
      ],
      "name": "AddLiquidity",
      "type": "event"
    },
    {
      "anonymous": false,
      "inputs": [
        {
          "indexed": false,
          "internalType": "string",
          "name": "symbol_",
          "type": "string"
        },
        {
          "indexed": false,
          "internalType": "address",
          "name": "from_",
          "type": "address"
        },
        {
          "indexed": false,
          "internalType": "address",
          "name": "to_",
          "type": "address"
        }
      ],
      "name": "Assign",
      "type": "event"
    },
    {
      "anonymous": false,
      "inputs": [
        {
          "indexed": false,
          "internalType": "address",
          "name": "account_",
          "type": "address"
        },
        {
          "indexed": false,
          "internalType": "address",
          "name": "token_",
          "type": "address"
        },
        {
          "indexed": false,
          "internalType": "uint256",
          "name": "amount_",
          "type": "uint256"
        }
      ],
      "name": "Deposit",
      "type": "event"
    },
    {
      "anonymous": false,
      "inputs": [
        {
          "indexed": false,
          "internalType": "string",
          "name": "symbol_",
          "type": "string"
        },
        {
          "indexed": false,
          "internalType": "address",
          "name": "token_",
          "type": "address"
        },
        {
          "indexed": false,
          "internalType": "uint256",
          "name": "amount_",
          "type": "uint256"
        }
      ],
      "name": "Drain",
      "type": "event"
    },
    {
      "anonymous": false,
      "inputs": [
        {
          "indexed": false,
          "internalType": "string",
          "name": "symbol_",
          "type": "string"
        },
        {
          "indexed": false,
          "internalType": "address",
          "name": "token_",
          "type": "address"
        },
        {
          "indexed": false,
          "internalType": "uint256",
          "name": "amount_",
          "type": "uint256"
        }
      ],
      "name": "Fill",
      "type": "event"
    },
    {
      "anonymous": false,
      "inputs": [
        {
          "indexed": false,
          "internalType": "string",
          "name": "symbol_",
          "type": "string"
        },
        {
          "indexed": false,
          "internalType": "address",
          "name": "account_",
          "type": "address"
        }
      ],
      "name": "Mint",
      "type": "event"
    },
    {
      "anonymous": false,
      "inputs": [
        {
          "indexed": true,
          "internalType": "address",
          "name": "previousOwner",
          "type": "address"
        },
        {
          "indexed": true,
          "internalType": "address",
          "name": "newOwner",
          "type": "address"
        }
      ],
      "name": "OwnershipTransferred",
      "type": "event"
    },
    {
      "anonymous": false,
      "inputs": [
        {
          "indexed": false,
          "internalType": "address",
          "name": "account_",
          "type": "address"
        },
        {
          "indexed": false,
          "internalType": "address",
          "name": "tokenHave_",
          "type": "address"
        },
        {
          "indexed": false,
          "internalType": "address",
          "name": "tokenWant_",
          "type": "address"
        },
        {
          "indexed": false,
          "internalType": "uint256",
          "name": "input_",
          "type": "uint256"
        },
        {
          "indexed": false,
          "internalType": "uint256",
          "name": "output_",
          "type": "uint256"
        }
      ],
      "name": "Swap",
      "type": "event"
    },
    {
      "anonymous": false,
      "inputs": [
        {
          "indexed": false,
          "internalType": "address",
          "name": "token_",
          "type": "address"
        },
        {
          "indexed": false,
          "internalType": "address",
          "name": "from_",
          "type": "address"
        },
        {
          "indexed": false,
          "internalType": "address",
          "name": "to_",
          "type": "address"
        },
        {
          "indexed": false,
          "internalType": "uint256",
          "name": "amount_",
          "type": "uint256"
        }
      ],
      "name": "Transfer",
      "type": "event"
    },
    {
      "anonymous": false,
      "inputs": [
        {
          "indexed": false,
          "internalType": "address",
          "name": "account_",
          "type": "address"
        },
        {
          "indexed": false,
          "internalType": "address",
          "name": "token_",
          "type": "address"
        },
        {
          "indexed": false,
          "internalType": "uint256",
          "name": "amount_",
          "type": "uint256"
        }
      ],
      "name": "Withdrawal",
      "type": "event"
    },
    {
      "inputs": [],
      "name": "accountListLength",
      "outputs": [
        {
          "internalType": "uint256",
          "name": "",
          "type": "uint256"
        }
      ],
      "stateMutability": "view",
      "type": "function"
    },
    {
      "inputs": [
        {
          "internalType": "address",
          "name": "_token0",
          "type": "address"
        },
        {
          "internalType": "address",
          "name": "_token1",
          "type": "address"
        },
        {
          "internalType": "uint256",
          "name": "_token0input",
          "type": "uint256"
        },
        {
          "internalType": "uint256",
          "name": "_token1input",
          "type": "uint256"
        }
      ],
      "name": "addLiquidity",
      "outputs": [],
      "stateMutability": "nonpayable",
      "type": "function"
    },
    {
      "inputs": [
        {
          "internalType": "string",
          "name": "_symbol",
          "type": "string"
        },
        {
          "internalType": "address",
          "name": "_to",
          "type": "address"
        }
      ],
      "name": "assign",
      "outputs": [],
      "stateMutability": "nonpayable",
      "type": "function"
    },
    {
      "inputs": [
        {
          "internalType": "address",
          "name": "_token",
          "type": "address"
        },
        {
          "internalType": "uint256",
          "name": "_amount",
          "type": "uint256"
        }
      ],
      "name": "deposit",
      "outputs": [],
      "stateMutability": "nonpayable",
      "type": "function"
    },
    {
      "inputs": [
        {
          "internalType": "string",
          "name": "_symbol",
          "type": "string"
        },
        {
          "internalType": "address",
          "name": "_token",
          "type": "address"
        },
        {
          "internalType": "uint256",
          "name": "_amount",
          "type": "uint256"
        }
      ],
      "name": "drain",
      "outputs": [],
      "stateMutability": "nonpayable",
      "type": "function"
    },
    {
      "inputs": [],
      "name": "feeRecipient",
      "outputs": [
        {
          "internalType": "address",
          "name": "",
          "type": "address"
        }
      ],
      "stateMutability": "view",
      "type": "function"
    },
    {
      "inputs": [],
      "name": "feeRecipientSetter",
      "outputs": [
        {
          "internalType": "address",
          "name": "",
          "type": "address"
        }
      ],
      "stateMutability": "view",
      "type": "function"
    },
    {
      "inputs": [
        {
          "internalType": "string",
          "name": "_symbol",
          "type": "string"
        },
        {
          "internalType": "address",
          "name": "_token",
          "type": "address"
        },
        {
          "internalType": "uint256",
          "name": "_amount",
          "type": "uint256"
        }
      ],
      "name": "fill",
      "outputs": [],
      "stateMutability": "nonpayable",
      "type": "function"
    },
    {
      "inputs": [
        {
          "internalType": "address",
          "name": "_token0",
          "type": "address"
        },
        {
          "internalType": "address",
          "name": "_token1",
          "type": "address"
        }
      ],
      "name": "findCPI",
      "outputs": [
        {
          "components": [
            {
              "internalType": "uint256",
              "name": "a",
              "type": "uint256"
            },
            {
              "internalType": "uint256",
              "name": "b",
              "type": "uint256"
            },
            {
              "internalType": "uint256",
              "name": "k",
              "type": "uint256"
            }
          ],
          "internalType": "struct CPI",
          "name": "foundCPI",
          "type": "tuple"
        },
        {
          "internalType": "bool",
          "name": "orderCorrect",
          "type": "bool"
        }
      ],
      "stateMutability": "view",
      "type": "function"
    },
    {
      "inputs": [
        {
          "internalType": "uint256",
          "name": "",
          "type": "uint256"
        }
      ],
      "name": "getAccount",
      "outputs": [
        {
          "internalType": "address",
          "name": "",
          "type": "address"
        }
      ],
      "stateMutability": "view",
      "type": "function"
    },
    {
      "inputs": [
        {
          "internalType": "address",
          "name": "",
          "type": "address"
        },
        {
          "internalType": "address",
          "name": "",
          "type": "address"
        }
      ],
      "name": "getBook",
      "outputs": [
        {
          "internalType": "uint256",
          "name": "",
          "type": "uint256"
        }
      ],
      "stateMutability": "view",
      "type": "function"
    },
    {
      "inputs": [
        {
          "internalType": "address",
          "name": "",
          "type": "address"
        },
        {
          "internalType": "uint256",
          "name": "",
          "type": "uint256"
        }
      ],
      "name": "getBookList",
      "outputs": [
        {
          "internalType": "address",
          "name": "",
          "type": "address"
        }
      ],
      "stateMutability": "view",
      "type": "function"
    },
    {
      "inputs": [
        {
          "internalType": "address",
          "name": "",
          "type": "address"
        }
      ],
      "name": "getBookListLength",
      "outputs": [
        {
          "internalType": "uint256",
          "name": "",
          "type": "uint256"
        }
      ],
      "stateMutability": "view",
      "type": "function"
    },
    {
      "inputs": [
        {
          "internalType": "address",
          "name": "",
          "type": "address"
        },
        {
          "internalType": "address",
          "name": "",
          "type": "address"
        }
      ],
      "name": "getCPI",
      "outputs": [
        {
          "internalType": "uint256",
          "name": "a",
          "type": "uint256"
        },
        {
          "internalType": "uint256",
          "name": "b",
          "type": "uint256"
        },
        {
          "internalType": "uint256",
          "name": "k",
          "type": "uint256"
        }
      ],
      "stateMutability": "view",
      "type": "function"
    },
    {
      "inputs": [
        {
          "internalType": "address",
          "name": "",
          "type": "address"
        },
        {
          "internalType": "address",
          "name": "",
          "type": "address"
        },
        {
          "internalType": "address",
          "name": "",
          "type": "address"
        }
      ],
      "name": "getLP",
      "outputs": [
        {
          "internalType": "uint256",
          "name": "",
          "type": "uint256"
        }
      ],
      "stateMutability": "view",
      "type": "function"
    },
    {
      "inputs": [
        {
          "internalType": "address",
          "name": "",
          "type": "address"
        },
        {
          "internalType": "string",
          "name": "",
          "type": "string"
        },
        {
          "internalType": "uint256",
          "name": "",
          "type": "uint256"
        }
      ],
      "name": "getOffers",
      "outputs": [
        {
          "internalType": "address",
          "name": "account",
          "type": "address"
        },
        {
          "internalType": "uint256",
          "name": "amount",
          "type": "uint256"
        }
      ],
      "stateMutability": "view",
      "type": "function"
    },
    {
      "inputs": [
        {
          "internalType": "address",
          "name": "",
          "type": "address"
        },
        {
          "internalType": "uint256",
          "name": "",
          "type": "uint256"
        }
      ],
      "name": "getOwnerTps",
      "outputs": [
        {
          "internalType": "string",
          "name": "",
          "type": "string"
        }
      ],
      "stateMutability": "view",
      "type": "function"
    },
    {
      "inputs": [
        {
          "internalType": "string",
          "name": "",
          "type": "string"
        },
        {
          "internalType": "address",
          "name": "",
          "type": "address"
        }
      ],
      "name": "getTp",
      "outputs": [
        {
          "internalType": "uint256",
          "name": "",
          "type": "uint256"
        }
      ],
      "stateMutability": "view",
      "type": "function"
    },
    {
      "inputs": [
        {
          "internalType": "string",
          "name": "",
          "type": "string"
        }
      ],
      "name": "getTpOwner",
      "outputs": [
        {
          "internalType": "address",
          "name": "",
          "type": "address"
        }
      ],
      "stateMutability": "view",
      "type": "function"
    },
    {
      "inputs": [
        {
          "internalType": "string",
          "name": "_symbol",
          "type": "string"
        }
      ],
      "name": "mint",
      "outputs": [],
      "stateMutability": "nonpayable",
      "type": "function"
    },
    {
      "inputs": [],
      "name": "owner",
      "outputs": [
        {
          "internalType": "address",
          "name": "",
          "type": "address"
        }
      ],
      "stateMutability": "view",
      "type": "function"
    },
    {
      "inputs": [],
      "name": "renounceOwnership",
      "outputs": [],
      "stateMutability": "nonpayable",
      "type": "function"
    },
    {
      "inputs": [
        {
          "internalType": "address",
          "name": "_feeRecipient",
          "type": "address"
        }
      ],
      "name": "setFeeRecipient",
      "outputs": [],
      "stateMutability": "nonpayable",
      "type": "function"
    },
    {
      "inputs": [
        {
          "internalType": "address",
          "name": "_feeRecipientSetter",
          "type": "address"
        }
      ],
      "name": "setFeeRecipientSetter",
      "outputs": [],
      "stateMutability": "nonpayable",
      "type": "function"
    },
    {
      "inputs": [
        {
          "internalType": "address",
          "name": "_token0",
          "type": "address"
        },
        {
          "internalType": "address",
          "name": "_token1",
          "type": "address"
        },
        {
          "internalType": "uint256",
          "name": "_give",
          "type": "uint256"
        }
      ],
      "name": "swap",
      "outputs": [],
      "stateMutability": "nonpayable",
      "type": "function"
    },
    {
      "inputs": [
        {
          "internalType": "address",
          "name": "_tokenHave",
          "type": "address"
        },
        {
          "internalType": "address",
          "name": "_tokenWant",
          "type": "address"
        },
        {
          "internalType": "uint256",
          "name": "_give",
          "type": "uint256"
        }
      ],
      "name": "swapCalc",
      "outputs": [
        {
          "components": [
            {
              "internalType": "uint256",
              "name": "a",
              "type": "uint256"
            },
            {
              "internalType": "uint256",
              "name": "b",
              "type": "uint256"
            },
            {
              "internalType": "uint256",
              "name": "k",
              "type": "uint256"
            }
          ],
          "internalType": "struct CPI",
          "name": "swapCPI",
          "type": "tuple"
        },
        {
          "internalType": "bool",
          "name": "aIsHave",
          "type": "bool"
        },
        {
          "internalType": "uint256",
          "name": "output",
          "type": "uint256"
        }
      ],
      "stateMutability": "view",
      "type": "function"
    },
    {
      "inputs": [
        {
          "internalType": "uint256",
          "name": "",
          "type": "uint256"
        }
      ],
      "name": "tpList",
      "outputs": [
        {
          "internalType": "string",
          "name": "",
          "type": "string"
        }
      ],
      "stateMutability": "view",
      "type": "function"
    },
    {
      "inputs": [
        {
          "internalType": "address",
          "name": "_token",
          "type": "address"
        },
        {
          "internalType": "address",
          "name": "_to",
          "type": "address"
        },
        {
          "internalType": "uint256",
          "name": "_amount",
          "type": "uint256"
        }
      ],
      "name": "transfer",
      "outputs": [],
      "stateMutability": "nonpayable",
      "type": "function"
    },
    {
      "inputs": [
        {
          "internalType": "address",
          "name": "newOwner",
          "type": "address"
        }
      ],
      "name": "transferOwnership",
      "outputs": [],
      "stateMutability": "nonpayable",
      "type": "function"
    },
    {
      "inputs": [
        {
          "internalType": "address",
          "name": "_token",
          "type": "address"
        },
        {
          "internalType": "uint256",
          "name": "_amount",
          "type": "uint256"
        }
      ],
      "name": "withdraw",
      "outputs": [],
      "stateMutability": "nonpayable",
      "type": "function"
    }
  ],
  "bytecode": "0x608060405260016003553480156200001657600080fd5b50600062000023620000be565b600080546001600160a01b0319166001600160a01b0383169081178255604051929350917f8be0079c531659141344cd1fd0a4f28419497f9722a3daafe3b4186f6b6457e0908290a350620000b86040518060400160405280601581526020017f50617261646f78563120636f6e7374727563746f720000000000000000000000815250620000c260201b62001a6d1760201c565b62000196565b3390565b62000172816040516024018080602001828103825283818151815260200191508051906020019080838360005b8381101562000109578181015183820152602001620000ef565b50505050905090810190601f168015620001375780820380516001836020036101000a031916815260200191505b5060408051601f198184030181529190526020810180516001600160e01b0390811663104c13eb60e21b179091529093506200017516915050565b50565b80516a636f6e736f6c652e6c6f67602083016000808483855afa5050505050565b612c2780620001a66000396000f3fe608060405234801561001057600080fd5b50600436106101da5760003560e01c8063b795d28c11610104578063d6c3c034116100a2578063e74b981b11610071578063e74b981b146103a8578063f1bb7f5114610402578063f2fde38b14610415578063f3fef3a314610428576101da565b8063d6c3c034146103a8578063d85d3d27146103bb578063dc7cce5b146103ce578063df791e50146103ef576101da565b8063c203fec4116100de578063c203fec414610367578063c97fdae11461037a578063ce88b14514610382578063cf6c62ea14610395576101da565b8063b795d28c1461032e578063beabacc814610341578063c062b35b14610354576101da565b8063542dcbc31161017c57806389b9620e1161014b57806389b9620e146102de5780638c367e95146102f15780638da5cb5b1461031357806394c8f6a61461031b576101da565b8063542dcbc3146102a857806357bcc020146102b0578063715018a6146102c357806380f8c48b146102cb576101da565b806330c7a451116101b857806330c7a4511461024b5780633293b6191461026b578063469048401461028b57806347e7ef2414610293576101da565b80630a7fce1d146101df57806310a847981461020957806310c3c61014610229575b600080fd5b6101f26101ed36600461237a565b61043b565b604051610200929190612b1a565b60405180910390f35b61021c6102173660046124bf565b61045a565b60405161020091906126b4565b61023c61023736600461237a565b610492565b60405161020093929190612b5f565b61025e61025936600461237a565b6104be565b6040516102009190612b56565b61027e6102793660046124bf565b6104db565b6040516102009190612763565b61021c610592565b6102a66102a13660046124bf565b6105a1565b005b61025e6108c8565b61025e6102be366004612543565b6108ce565b6102a66108fb565b61027e6102d93660046125cb565b6109b9565b61021c6102ec366004612508565b610a2f565b6103046102ff3660046123ee565b610a55565b60405161020093929190612b37565b61021c610b60565b61025e610329366004612360565b610b6f565b6102a661033c366004612586565b610b81565b6102a661034f3660046123ee565b610d7c565b6102a6610362366004612586565b610e1c565b61025e6103753660046123ac565b610ffd565b61021c611020565b61021c6103903660046125cb565b61102f565b6102a66103a3366004612429565b611059565b6102a66103b6366004612360565b6112d0565b6102a66103c9366004612508565b61131c565b6103e16103dc36600461246a565b611482565b604051610200929190612720565b6102a66103fd3660046123ee565b6114e5565b6102a6610410366004612543565b6115be565b6102a6610423366004612360565b6117bd565b6102a66104363660046124bf565b6118d1565b6104436121cd565b600061044f8484611b16565b909590945092505050565b6006602052816000526040600020818154811061047657600080fd5b6000918252602090912001546001600160a01b03169150829050565b600d60209081526000928352604080842090915290825290208054600182015460029092015490919083565b600460209081526000928352604080842090915290825290205481565b600a60205281600052604060002081815481106104f757600080fd5b600091825260209182902001805460408051601f6002600019610100600187161502019094169390930492830185900485028101850190915281815294509092509083018282801561058a5780601f1061055f5761010080835404028352916020019161058a565b820191906000526020600020905b81548152906001019060200180831161056d57829003601f168201915b505050505081565b6001546001600160a01b031681565b6003546001146105cc5760405162461bcd60e51b81526004016105c390612a34565b60405180910390fd5b60006003556001600160a01b0382166105f75760405162461bcd60e51b81526004016105c390612aa3565b600081116106175760405162461bcd60e51b81526004016105c39061287b565b3360009081526004602090815260408083206001600160a01b03861684529091528120541561066a57503360009081526004602090815260408083206001600160a01b038616845290915290205461066e565b5060005b336000908152600660209081526040808320805482518185028101850190935280835291929091908301828280156106cf57602002820191906000526020600020905b81546001600160a01b031681526001909101906020018083116106b1575b505050505090506000815190506000805b8281101561072657866001600160a01b03168482815181106106fe57fe5b60200260200101516001600160a01b0316141561071e5760019150610726565b6001016106e0565b5080610779573360008181526006602090815260408083208054600180820183559185528385200180546001600160a01b0319166001600160a01b038d1617905593835260079091529020805490910190555b6040516323b872dd60e01b815286906001600160a01b038216906323b872dd906107ab90339030908b906004016126fc565b602060405180830381600087803b1580156107c557600080fd5b505af11580156107d9573d6000803e3d6000fd5b505050506040513d601f19601f820116820180604052508101906107fd91906124e8565b506108088587611c1e565b3360008181526004602090815260408083206001600160a01b038d16845290915290209190915561083890611c7f565b61087f57600580546001810182556000919091527f036b6384b5eca791c62761152d0c79bb0604c104a5fb6f4eb0703f3154bb3db00180546001600160a01b031916331790555b7f5548c837ab068cf56a2c2479df0882a4922fd203edb7517321831d95078c5f623388886040516108b2939291906126fc565b60405180910390a1505060016003555050505050565b60055490565b81516020818401810180516008825292820194820194909420919093529091526000908152604090205481565b610903611cd9565b6001600160a01b0316610914610b60565b6001600160a01b03161461096f576040805162461bcd60e51b815260206004820181905260248201527f4f776e61626c653a2063616c6c6572206973206e6f7420746865206f776e6572604482015290519081900360640190fd5b600080546040516001600160a01b03909116907f8be0079c531659141344cd1fd0a4f28419497f9722a3daafe3b4186f6b6457e0908390a3600080546001600160a01b0319169055565b600b81815481106109c957600080fd5b600091825260209182902001805460408051601f600260001961010060018716150201909416939093049283018590048502810185019091528181529350909183018282801561058a5780601f1061055f5761010080835404028352916020019161058a565b80516020818301810180516009825292820191909301209152546001600160a01b031681565b610a5d6121cd565b6000806001600160a01b038616610a865760405162461bcd60e51b81526004016105c390612aa3565b6001600160a01b038516610aac5760405162461bcd60e51b81526004016105c390612aa3565b60008411610acc5760405162461bcd60e51b81526004016105c390612801565b610ad68686611b16565b60408201519194509250610afc5760405162461bcd60e51b81526004016105c390612921565b81610b3657610b31610b29610b1e868660200151611c1e90919063ffffffff16565b604086015190611cdd565b845190611d44565b610b55565b8251610b5590610b4a90610b1e9087611c1e565b602085015190611d44565b905093509350939050565b6000546001600160a01b031690565b60076020526000908152604090205481565b600354600114610ba35760405162461bcd60e51b81526004016105c390612a34565b60006003556001600160a01b038216610bce5760405162461bcd60e51b81526004016105c390612aa3565b336001600160a01b0316600984604051610be89190612628565b908152604051908190036020019020546001600160a01b031614610c1e5760405162461bcd60e51b81526004016105c39061298f565b6000600884604051610c309190612628565b90815260408051602092819003830190206001600160a01b03861660009081529252902054905081811015610c775760405162461bcd60e51b81526004016105c390612ad8565b610cb682600886604051610c8b9190612628565b90815260408051602092819003830190206001600160a01b0388166000908152925290205490611d44565b600885604051610cc69190612628565b90815260408051602092819003830190206001600160a01b0387166000818152918452828220949094553381526004835281812093815292909152902054610d0e9083611c1e565b3360009081526004602090815260408083206001600160a01b03881684529091529081902091909155517f0bd2df912f4aa5f26366b1353a4e72d5b7988935634dcaf30a698385c41c0ca390610d69908690869086906127d3565b60405180910390a1505060016003555050565b600354600114610d9e5760405162461bcd60e51b81526004016105c390612a34565b60006003556001600160a01b038316610dc95760405162461bcd60e51b81526004016105c390612aa3565b610dd583338484611da1565b7fd1398bee19313d6bf672ccb116e51f4a1a947e91c757907f51fbb5b5e56c698f83338484604051610e0a9493929190612739565b60405180910390a15050600160035550565b600354600114610e3e5760405162461bcd60e51b81526004016105c390612a34565b60006003556001600160a01b038216610e695760405162461bcd60e51b81526004016105c390612aa3565b336001600160a01b0316600984604051610e839190612628565b908152604051908190036020019020546001600160a01b031614610eb95760405162461bcd60e51b81526004016105c39061298f565b3360009081526004602090815260408083206001600160a01b038616845290915290205481811015610efd5760405162461bcd60e51b81526004016105c390612a5f565b3360009081526004602090815260408083206001600160a01b0387168452909152902054610f2b9083611d44565b3360009081526004602090815260408083206001600160a01b0388168452909152908190209190915551610f94908390600890610f69908890612628565b90815260408051602092819003830190206001600160a01b0388166000908152925290205490611c1e565b600885604051610fa49190612628565b9081526040805191829003602090810183206001600160a01b0388166000908152915220919091557f43e6f72b1076821a74d5e9628ec0044cb5bebc60c8be905a37382d310bbc0f9d90610d69908690869086906127d3565b600e60209081526000938452604080852082529284528284209052825290205481565b6002546001600160a01b031681565b6005818154811061103f57600080fd5b6000918252602090912001546001600160a01b0316905081565b60035460011461107b5760405162461bcd60e51b81526004016105c390612a34565b60006003556001600160a01b0384166110a65760405162461bcd60e51b81526004016105c390612aa3565b6001600160a01b0383166110cc5760405162461bcd60e51b81526004016105c390612aa3565b600082116110ec5760405162461bcd60e51b81526004016105c390612838565b6000811161110c5760405162461bcd60e51b81526004016105c390612838565b3360009081526004602090815260408083206001600160a01b038816845290915290205482111561114f5760405162461bcd60e51b81526004016105c390612a5f565b3360009081526004602090815260408083206001600160a01b03871684529091529020548111156111925760405162461bcd60e51b81526004016105c390612a5f565b3360009081526004602090815260408083206001600160a01b0388811685529252808320805486900390559085168252812080548390039055806111d68686611b16565b9150915081604001516000141561121557806111f257826111f4565b835b8252806112015783611203565b825b60208301528383026040830152611279565b60008161122d5782516112289085611c1e565b611239565b82516112399086611c1e565b90506000826112565760208401516112519087611c1e565b611265565b60208401516112659086611c1e565b828552602085018190529091026040840152505b611284868684611e90565b7fc33fbc9654f9c0dcfcbd829113bdb10afe95619bc0824bc5959ad82fd6952bd933878787876040516112bb9594939291906126c8565b60405180910390a15050600160035550505050565b6001546001600160a01b031633146112fa5760405162461bcd60e51b81526004016105c3906128f3565b600180546001600160a01b0319166001600160a01b0392909216919091179055565b60035460011461133e5760405162461bcd60e51b81526004016105c390612a34565b60006003819055604051600990611356908490612628565b908152604051908190036020019020546001600160a01b03161461138c5760405162461bcd60e51b81526004016105c390612958565b3360098260405161139d9190612628565b908152604080516020928190038301902080546001600160a01b0319166001600160a01b039490941693909317909255336000908152600a825291822080546001810182559083529181902083516113fc9391909101918401906121ee565b50600b80546001810182556000919091528151611440917f0175b7a638427703f0dbe7bb9bbf987a2551717b34e79f33b5b1008d1fa01db9019060208401906121ee565b507f79b04a02d84fec4f53dec01c843dee92deee8a6d7dc31a65ae8c2c6b60200cf38133604051611472929190612776565b60405180910390a1506001600355565b600c60209081526000848152604090208351808501830180519281529083019285019290922091528054829081106114b957600080fd5b6000918252602090912060029091020180546001909101546001600160a01b0390911693509150839050565b6003546001146115075760405162461bcd60e51b81526004016105c390612a34565b60006003556001600160a01b0383166115325760405162461bcd60e51b81526004016105c390612aa3565b6001600160a01b0382166115585760405162461bcd60e51b81526004016105c390612aa3565b600081116115785760405162461bcd60e51b81526004016105c390612801565b6000611585848484611f79565b90507fcd3829a3813dc3cdd188fd3d01dcf3268c16be2fdd2dd21d0665418816e460623385858585604051610d699594939291906126c8565b6003546001146115e05760405162461bcd60e51b81526004016105c390612a34565b60006003556001600160a01b03811661160b5760405162461bcd60e51b81526004016105c390612aa3565b336001600160a01b03166009836040516116259190612628565b908152604051908190036020019020546001600160a01b03161461165b5760405162461bcd60e51b81526004016105c39061298f565b60005b8260405160200161166f9190612628565b60408051601f198184030181529181528151602092830120336000908152600a90935291208054839081106116a057fe5b906000526020600020016040516020016116ba9190612644565b60405160208183030381529060405280519060200120146116dd5760010161165e565b336000908152600a602052604090208054829081106116f857fe5b90600052602060002001600061170e919061227a565b6001600160a01b0382166000908152600a602090815260408220805460018101825590835291819020855161174a9391909101918601906121ee565b508160098460405161175c9190612628565b90815260405190819003602001812080546001600160a01b03939093166001600160a01b0319909316929092179091557fe76375c57eef426276019091544847f973c885ebf3202e77e8430f0aa7ad6a1f90610e0a908590339086906127a0565b6117c5611cd9565b6001600160a01b03166117d6610b60565b6001600160a01b031614611831576040805162461bcd60e51b815260206004820181905260248201527f4f776e61626c653a2063616c6c6572206973206e6f7420746865206f776e6572604482015290519081900360640190fd5b6001600160a01b0381166118765760405162461bcd60e51b8152600401808060200182810382526026815260200180612ba26026913960400191505060405180910390fd5b600080546040516001600160a01b03808516939216917f8be0079c531659141344cd1fd0a4f28419497f9722a3daafe3b4186f6b6457e091a3600080546001600160a01b0319166001600160a01b0392909216919091179055565b6003546001146118f35760405162461bcd60e51b81526004016105c390612a34565b60006003556001600160a01b03821661191e5760405162461bcd60e51b81526004016105c390612aa3565b3360009081526004602090815260408083206001600160a01b0386168452909152902054818110156119625760405162461bcd60e51b81526004016105c390612a5f565b60405163a9059cbb60e01b815283906001600160a01b0382169063a9059cbb906119929033908790600401612720565b602060405180830381600087803b1580156119ac57600080fd5b505af11580156119c0573d6000803e3d6000fd5b505050506040513d601f19601f820116820180604052508101906119e491906124e8565b503360009081526004602090815260408083206001600160a01b0388168452909152902054611a139084611d44565b3360008181526004602090815260408083206001600160a01b038a168452909152908190209290925590517f2717ead6b9200dd235aad468c9809ea400fe33ac69b5bfaa6d3e90fc922b639891610d6991879087906126fc565b611b13816040516024018080602001828103825283818151815260200191508051906020019080838360005b83811015611ab1578181015183820152602001611a99565b50505050905090810190601f168015611ade5780820380516001836020036101000a031916815260200191505b5060408051601f198184030181529190526020810180516001600160e01b031663104c13eb60e21b1790529250612016915050565b50565b611b1e6121cd565b60006001600160a01b03841615801590611b4057506001600160a01b03831615155b611b5c5760405162461bcd60e51b81526004016105c3906129fd565b6000836001600160a01b0316856001600160a01b031610611b7d5783611b7f565b845b90506000846001600160a01b0316866001600160a01b031610611ba25785611ba4565b845b9050856001600160a01b0316826001600160a01b031614611bc6576000611bc9565b60015b6001600160a01b039283166000908152600d6020908152604080832094909516825292835283902083516060810185528154815260018201549381019390935260020154928201929092529590945092505050565b600082820183811015611c78576040805162461bcd60e51b815260206004820152601b60248201527f536166654d6174683a206164646974696f6e206f766572666c6f770000000000604482015290519081900360640190fd5b9392505050565b600554600090815b81811015611cd257836001600160a01b031660058281548110611ca657fe5b6000918252602090912001546001600160a01b03161415611cca5760019250611cd2565b600101611c87565b5050919050565b3390565b6000808211611d33576040805162461bcd60e51b815260206004820152601a60248201527f536166654d6174683a206469766973696f6e206279207a65726f000000000000604482015290519081900360640190fd5b818381611d3c57fe5b049392505050565b600082821115611d9b576040805162461bcd60e51b815260206004820152601e60248201527f536166654d6174683a207375627472616374696f6e206f766572666c6f770000604482015290519081900360640190fd5b50900390565b6001600160a01b03808416600090815260046020908152604080832093881683529290522054811115611de65760405162461bcd60e51b81526004016105c3906128bc565b6001600160a01b03808416600090815260046020908152604080832093881683529290522054611e169082611d44565b6001600160a01b0380851660009081526004602081815260408084208a861680865290835281852096909655938716835290815282822093825292909252902054611e619082611c1e565b6001600160a01b0392831660009081526004602090815260408083209790951682529590955291909320555050565b6001600160a01b03831615801590611eb057506001600160a01b03821615155b611ecc5760405162461bcd60e51b81526004016105c3906129fd565b6040810151611eed5760405162461bcd60e51b81526004016105c3906129c6565b6000826001600160a01b0316846001600160a01b031610611f0e5782611f10565b835b90506000836001600160a01b0316856001600160a01b031610611f335784611f35565b835b6001600160a01b039283166000908152600d602090815260408083209590931682529384528190208451815592840151600184015590920151600290910155505050565b6000611f836121cd565b6000611f90868686610a55565b9450909250905080611fad578151611fa89084611d44565b611fb9565b8151611fb99085611c1e565b825280611fd4576020820151611fcf9085611c1e565b611fe3565b6020820151611fe39084611d44565b6020830152611ff3868684611e90565b6120003387600087612037565b61200d3386856000612037565b50509392505050565b80516a636f6e736f6c652e6c6f67602083016000808483855afa5050505050565b6001600160a01b0384161580159061205757506001600160a01b03831615155b6120735760405162461bcd60e51b81526004016105c3906129fd565b6001600160a01b03808516600090815260046020908152604080832093871683529281529082902054825160608101909352602a80845290926120c292909190612bc890830139828585612109565b6120d6826120d08386611c1e565b90611d44565b6001600160a01b039586166000908152600460209081526040808320979098168252959095529490932093909355505050565b6121c7848484846040516024018080602001858152602001848152602001838152602001828103825286818151815260200191508051906020019080838360005b8381101561216257818101518382015260200161214a565b50505050905090810190601f16801561218f5780820380516001836020036101000a031916815260200191505b5060408051601f198184030181529190526020810180516001600160e01b03166304772b3360e11b1790529550612016945050505050565b50505050565b60405180606001604052806000815260200160008152602001600081525090565b828054600181600116156101000203166002900490600052602060002090601f016020900481019282612224576000855561226a565b82601f1061223d57805160ff191683800117855561226a565b8280016001018555821561226a579182015b8281111561226a57825182559160200191906001019061224f565b506122769291506122ba565b5090565b50805460018160011615610100020316600290046000825580601f106122a05750611b13565b601f016020900490600052602060002090810190611b1391905b5b8082111561227657600081556001016122bb565b80356001600160a01b03811681146122e657600080fd5b919050565b600082601f8301126122fb578081fd5b813567ffffffffffffffff8082111561231057fe5b604051601f8301601f19168101602001828111828210171561232e57fe5b604052828152848301602001861015612345578384fd5b82602086016020830137918201602001929092529392505050565b600060208284031215612371578081fd5b611c78826122cf565b6000806040838503121561238c578081fd5b612395836122cf565b91506123a3602084016122cf565b90509250929050565b6000806000606084860312156123c0578081fd5b6123c9846122cf565b92506123d7602085016122cf565b91506123e5604085016122cf565b90509250925092565b600080600060608486031215612402578283fd5b61240b846122cf565b9250612419602085016122cf565b9150604084013590509250925092565b6000806000806080858703121561243e578081fd5b612447856122cf565b9350612455602086016122cf565b93969395505050506040820135916060013590565b60008060006060848603121561247e578283fd5b612487846122cf565b9250602084013567ffffffffffffffff8111156124a2578283fd5b6124ae868287016122eb565b925050604084013590509250925092565b600080604083850312156124d1578182fd5b6124da836122cf565b946020939093013593505050565b6000602082840312156124f9578081fd5b81518015158114611c78578182fd5b600060208284031215612519578081fd5b813567ffffffffffffffff81111561252f578182fd5b61253b848285016122eb565b949350505050565b60008060408385031215612555578182fd5b823567ffffffffffffffff81111561256b578283fd5b612577858286016122eb565b9250506123a3602084016122cf565b60008060006060848603121561259a578283fd5b833567ffffffffffffffff8111156125b0578384fd5b6125bc868287016122eb565b935050612419602085016122cf565b6000602082840312156125dc578081fd5b5035919050565b600081518084526125fb816020860160208601612b75565b601f01601f19169290920160200192915050565b8051825260208082015190830152604090810151910152565b6000825161263a818460208701612b75565b9190910192915050565b6000808354600180821660008114612663576001811461267a576126a9565b60ff198316865260028304607f16860193506126a9565b600283048786526020808720875b838110156126a15781548a820152908501908201612688565b505050860193505b509195945050505050565b6001600160a01b0391909116815260200190565b6001600160a01b03958616815293851660208501529190931660408301526060820192909252608081019190915260a00190565b6001600160a01b039384168152919092166020820152604081019190915260600190565b6001600160a01b03929092168252602082015260400190565b6001600160a01b039485168152928416602084015292166040820152606081019190915260800190565b600060208252611c7860208301846125e3565b60006040825261278960408301856125e3565b905060018060a01b03831660208301529392505050565b6000606082526127b360608301866125e3565b6001600160a01b0394851660208401529290931660409091015292915050565b6000606082526127e660608301866125e3565b6001600160a01b039490941660208301525060400152919050565b6020808252601e908201527f50617261646f7856313a20494e56414c49445f535741505f414d4f554e540000604082015260600190565b60208082526023908201527f50617261646f7856313a20494e56414c49445f4c49515549444954595f414d4f60408201526215539560ea1b606082015260800190565b60208082526021908201527f50617261646f7856313a20494e56414c49445f4445504f5349545f414d4f554e6040820152601560fa1b606082015260800190565b6020808252601d908201527f50617261646f7856313a20494e53554646494349454e545f46554e4453000000604082015260600190565b6020808252601490820152732830b930b237bc2b189d102327a92124a22222a760611b604082015260600190565b6020808252601f908201527f50617261646f7856313a20544f4b454e5f504149525f4e4f545f464f554e4400604082015260600190565b60208082526017908201527f50617261646f7856313a20544f4b454e5f455849535453000000000000000000604082015260600190565b60208082526017908201527f50617261646f7856313a20554e415554484f52495a4544000000000000000000604082015260600190565b6020808252601b908201527f50617261646f7856313a20494e56414c49442043504920444154410000000000604082015260600190565b6020808252601a908201527f50617261646f7856313a20494e56414c49445f41444452455353000000000000604082015260600190565b60208082526011908201527014185c98591bde158c4e881313d0d2d151607a1b604082015260600190565b60208082526024908201527f50617261646f7856313a20494e53554646494349454e545f424f4f4b5f42414c604082015263414e434560e01b606082015260800190565b6020808252818101527f50617261646f7856313a20494e56414c49445f544f4b454e5f41444452455353604082015260600190565b60208082526022908201527f50617261646f7856313a20494e53554646494349454e545f54505f42414c414e604082015261434560f01b606082015260800190565b60808101612b28828561260f565b82151560608301529392505050565b60a08101612b45828661260f565b921515606082015260800152919050565b90815260200190565b9283526020830191909152604082015260600190565b60005b83811015612b90578181015183820152602001612b78565b838111156121c7575050600091015256fe4f776e61626c653a206e6577206f776e657220697320746865207a65726f20616464726573735f73616665557064617465426f6f6b202863757272656e742c206164642c207375627472616374293a20a26469706673582212207f7483e7f94b00de7a68d58fd1cf7d02ce5f82d03a087e23c08eda87462790a464736f6c63430007060033",
  "linkReferences": {},
  "deployedLinkReferences": {}
}