{
  "_format": "hh-sol-artifact-1",
  "contractName": "ParadoxV1",
  "sourceName": "contracts/ParadoxV1.sol",
  "abi": [
    {
      "inputs": [],
      "stateMutability": "nonpayable",
      "type": "constructor"
    },
    {
      "anonymous": false,
      "inputs": [
        {
          "indexed": false,
          "internalType": "address",
          "name": "account_",
          "type": "address"
        },
        {
          "indexed": false,
          "internalType": "address",
          "name": "token0_",
          "type": "address"
        },
        {
          "indexed": false,
          "internalType": "address",
          "name": "token1_",
          "type": "address"
        },
        {
          "indexed": false,
          "internalType": "uint256",
          "name": "token0input_",
          "type": "uint256"
        },
        {
          "indexed": false,
          "internalType": "uint256",
          "name": "token1input_",
          "type": "uint256"
        }
      ],
      "name": "AddLiquidity",
      "type": "event"
    },
    {
      "anonymous": false,
      "inputs": [
        {
          "indexed": false,
          "internalType": "string",
          "name": "symbol_",
          "type": "string"
        },
        {
          "indexed": false,
          "internalType": "address",
          "name": "from_",
          "type": "address"
        },
        {
          "indexed": false,
          "internalType": "address",
          "name": "to_",
          "type": "address"
        }
      ],
      "name": "Assign",
      "type": "event"
    },
    {
      "anonymous": false,
      "inputs": [
        {
          "indexed": false,
          "internalType": "address",
          "name": "account_",
          "type": "address"
        },
        {
          "indexed": false,
          "internalType": "address",
          "name": "token_",
          "type": "address"
        },
        {
          "indexed": false,
          "internalType": "uint256",
          "name": "amount_",
          "type": "uint256"
        }
      ],
      "name": "Deposit",
      "type": "event"
    },
    {
      "anonymous": false,
      "inputs": [
        {
          "indexed": false,
          "internalType": "string",
          "name": "symbol_",
          "type": "string"
        },
        {
          "indexed": false,
          "internalType": "address",
          "name": "token_",
          "type": "address"
        },
        {
          "indexed": false,
          "internalType": "uint256",
          "name": "amount_",
          "type": "uint256"
        }
      ],
      "name": "Drain",
      "type": "event"
    },
    {
      "anonymous": false,
      "inputs": [
        {
          "indexed": false,
          "internalType": "string",
          "name": "symbol_",
          "type": "string"
        },
        {
          "indexed": false,
          "internalType": "address",
          "name": "token_",
          "type": "address"
        },
        {
          "indexed": false,
          "internalType": "uint256",
          "name": "amount_",
          "type": "uint256"
        }
      ],
      "name": "Fill",
      "type": "event"
    },
    {
      "anonymous": false,
      "inputs": [
        {
          "indexed": false,
          "internalType": "string",
          "name": "symbol_",
          "type": "string"
        },
        {
          "indexed": false,
          "internalType": "address",
          "name": "account_",
          "type": "address"
        }
      ],
      "name": "Mint",
      "type": "event"
    },
    {
      "anonymous": false,
      "inputs": [
        {
          "indexed": true,
          "internalType": "address",
          "name": "previousOwner",
          "type": "address"
        },
        {
          "indexed": true,
          "internalType": "address",
          "name": "newOwner",
          "type": "address"
        }
      ],
      "name": "OwnershipTransferred",
      "type": "event"
    },
    {
      "anonymous": false,
      "inputs": [
        {
          "indexed": false,
          "internalType": "address",
          "name": "account_",
          "type": "address"
        },
        {
          "indexed": false,
          "internalType": "address",
          "name": "tokenHave_",
          "type": "address"
        },
        {
          "indexed": false,
          "internalType": "address",
          "name": "tokenWant_",
          "type": "address"
        },
        {
          "indexed": false,
          "internalType": "uint256",
          "name": "input_",
          "type": "uint256"
        },
        {
          "indexed": false,
          "internalType": "uint256",
          "name": "output_",
          "type": "uint256"
        }
      ],
      "name": "Swap",
      "type": "event"
    },
    {
      "anonymous": false,
      "inputs": [
        {
          "indexed": false,
          "internalType": "address",
          "name": "token_",
          "type": "address"
        },
        {
          "indexed": false,
          "internalType": "address",
          "name": "from_",
          "type": "address"
        },
        {
          "indexed": false,
          "internalType": "address",
          "name": "to_",
          "type": "address"
        },
        {
          "indexed": false,
          "internalType": "uint256",
          "name": "amount_",
          "type": "uint256"
        }
      ],
      "name": "Transfer",
      "type": "event"
    },
    {
      "anonymous": false,
      "inputs": [
        {
          "indexed": false,
          "internalType": "address",
          "name": "account_",
          "type": "address"
        },
        {
          "indexed": false,
          "internalType": "address",
          "name": "token_",
          "type": "address"
        },
        {
          "indexed": false,
          "internalType": "uint256",
          "name": "amount_",
          "type": "uint256"
        }
      ],
      "name": "Withdrawal",
      "type": "event"
    },
    {
      "inputs": [
        {
          "internalType": "address",
          "name": "_token0",
          "type": "address"
        },
        {
          "internalType": "address",
          "name": "_token1",
          "type": "address"
        },
        {
          "internalType": "uint256",
          "name": "_token0input",
          "type": "uint256"
        },
        {
          "internalType": "uint256",
          "name": "_token1input",
          "type": "uint256"
        }
      ],
      "name": "addLiquidity",
      "outputs": [],
      "stateMutability": "nonpayable",
      "type": "function"
    },
    {
      "inputs": [
        {
          "internalType": "string",
          "name": "_symbol",
          "type": "string"
        },
        {
          "internalType": "address",
          "name": "_to",
          "type": "address"
        }
      ],
      "name": "assign",
      "outputs": [],
      "stateMutability": "nonpayable",
      "type": "function"
    },
    {
      "inputs": [
        {
          "internalType": "address",
          "name": "_token",
          "type": "address"
        },
        {
          "internalType": "uint256",
          "name": "_amount",
          "type": "uint256"
        }
      ],
      "name": "deposit",
      "outputs": [],
      "stateMutability": "nonpayable",
      "type": "function"
    },
    {
      "inputs": [
        {
          "internalType": "string",
          "name": "_symbol",
          "type": "string"
        },
        {
          "internalType": "address",
          "name": "_token",
          "type": "address"
        },
        {
          "internalType": "uint256",
          "name": "_amount",
          "type": "uint256"
        }
      ],
      "name": "drain",
      "outputs": [],
      "stateMutability": "nonpayable",
      "type": "function"
    },
    {
      "inputs": [],
      "name": "feeRecipient",
      "outputs": [
        {
          "internalType": "address",
          "name": "",
          "type": "address"
        }
      ],
      "stateMutability": "view",
      "type": "function"
    },
    {
      "inputs": [],
      "name": "feeRecipientSetter",
      "outputs": [
        {
          "internalType": "address",
          "name": "",
          "type": "address"
        }
      ],
      "stateMutability": "view",
      "type": "function"
    },
    {
      "inputs": [
        {
          "internalType": "string",
          "name": "_symbol",
          "type": "string"
        },
        {
          "internalType": "address",
          "name": "_token",
          "type": "address"
        },
        {
          "internalType": "uint256",
          "name": "_amount",
          "type": "uint256"
        }
      ],
      "name": "fill",
      "outputs": [],
      "stateMutability": "nonpayable",
      "type": "function"
    },
    {
      "inputs": [
        {
          "internalType": "address",
          "name": "_token0",
          "type": "address"
        },
        {
          "internalType": "address",
          "name": "_token1",
          "type": "address"
        }
      ],
      "name": "findCPI",
      "outputs": [
        {
          "components": [
            {
              "internalType": "uint256",
              "name": "x",
              "type": "uint256"
            },
            {
              "internalType": "uint256",
              "name": "y",
              "type": "uint256"
            },
            {
              "internalType": "uint256",
              "name": "k",
              "type": "uint256"
            }
          ],
          "internalType": "struct CPI",
          "name": "foundCPI",
          "type": "tuple"
        },
        {
          "internalType": "bool",
          "name": "orderCorrect",
          "type": "bool"
        }
      ],
      "stateMutability": "view",
      "type": "function"
    },
    {
      "inputs": [
        {
          "internalType": "address",
          "name": "",
          "type": "address"
        },
        {
          "internalType": "address",
          "name": "",
          "type": "address"
        }
      ],
      "name": "getBook",
      "outputs": [
        {
          "internalType": "uint256",
          "name": "",
          "type": "uint256"
        }
      ],
      "stateMutability": "view",
      "type": "function"
    },
    {
      "inputs": [
        {
          "internalType": "address",
          "name": "",
          "type": "address"
        },
        {
          "internalType": "address",
          "name": "",
          "type": "address"
        }
      ],
      "name": "getCPI",
      "outputs": [
        {
          "internalType": "uint256",
          "name": "x",
          "type": "uint256"
        },
        {
          "internalType": "uint256",
          "name": "y",
          "type": "uint256"
        },
        {
          "internalType": "uint256",
          "name": "k",
          "type": "uint256"
        }
      ],
      "stateMutability": "view",
      "type": "function"
    },
    {
      "inputs": [
        {
          "internalType": "address",
          "name": "",
          "type": "address"
        },
        {
          "internalType": "address",
          "name": "",
          "type": "address"
        },
        {
          "internalType": "address",
          "name": "",
          "type": "address"
        }
      ],
      "name": "getLP",
      "outputs": [
        {
          "internalType": "uint256",
          "name": "",
          "type": "uint256"
        }
      ],
      "stateMutability": "view",
      "type": "function"
    },
    {
      "inputs": [
        {
          "internalType": "address",
          "name": "",
          "type": "address"
        },
        {
          "internalType": "string",
          "name": "",
          "type": "string"
        },
        {
          "internalType": "uint256",
          "name": "",
          "type": "uint256"
        }
      ],
      "name": "getOffers",
      "outputs": [
        {
          "internalType": "address",
          "name": "account",
          "type": "address"
        },
        {
          "internalType": "uint256",
          "name": "amount",
          "type": "uint256"
        }
      ],
      "stateMutability": "view",
      "type": "function"
    },
    {
      "inputs": [
        {
          "internalType": "address",
          "name": "",
          "type": "address"
        },
        {
          "internalType": "uint256",
          "name": "",
          "type": "uint256"
        }
      ],
      "name": "getOwnerTps",
      "outputs": [
        {
          "internalType": "string",
          "name": "",
          "type": "string"
        }
      ],
      "stateMutability": "view",
      "type": "function"
    },
    {
      "inputs": [
        {
          "internalType": "string",
          "name": "",
          "type": "string"
        },
        {
          "internalType": "address",
          "name": "",
          "type": "address"
        }
      ],
      "name": "getTp",
      "outputs": [
        {
          "internalType": "uint256",
          "name": "",
          "type": "uint256"
        }
      ],
      "stateMutability": "view",
      "type": "function"
    },
    {
      "inputs": [
        {
          "internalType": "string",
          "name": "",
          "type": "string"
        }
      ],
      "name": "getTpOwner",
      "outputs": [
        {
          "internalType": "address",
          "name": "",
          "type": "address"
        }
      ],
      "stateMutability": "view",
      "type": "function"
    },
    {
      "inputs": [
        {
          "internalType": "string",
          "name": "_symbol",
          "type": "string"
        }
      ],
      "name": "mint",
      "outputs": [],
      "stateMutability": "nonpayable",
      "type": "function"
    },
    {
      "inputs": [],
      "name": "owner",
      "outputs": [
        {
          "internalType": "address",
          "name": "",
          "type": "address"
        }
      ],
      "stateMutability": "view",
      "type": "function"
    },
    {
      "inputs": [],
      "name": "renounceOwnership",
      "outputs": [],
      "stateMutability": "nonpayable",
      "type": "function"
    },
    {
      "inputs": [
        {
          "internalType": "address",
          "name": "_feeRecipient",
          "type": "address"
        }
      ],
      "name": "setFeeRecipient",
      "outputs": [],
      "stateMutability": "nonpayable",
      "type": "function"
    },
    {
      "inputs": [
        {
          "internalType": "address",
          "name": "_feeRecipientSetter",
          "type": "address"
        }
      ],
      "name": "setFeeRecipientSetter",
      "outputs": [],
      "stateMutability": "nonpayable",
      "type": "function"
    },
    {
      "inputs": [
        {
          "internalType": "address",
          "name": "_account",
          "type": "address"
        },
        {
          "internalType": "address",
          "name": "_token0",
          "type": "address"
        },
        {
          "internalType": "address",
          "name": "_token1",
          "type": "address"
        },
        {
          "internalType": "uint256",
          "name": "_give",
          "type": "uint256"
        }
      ],
      "name": "swap",
      "outputs": [],
      "stateMutability": "nonpayable",
      "type": "function"
    },
    {
      "inputs": [
        {
          "internalType": "uint256",
          "name": "",
          "type": "uint256"
        }
      ],
      "name": "tpList",
      "outputs": [
        {
          "internalType": "string",
          "name": "",
          "type": "string"
        }
      ],
      "stateMutability": "view",
      "type": "function"
    },
    {
      "inputs": [
        {
          "internalType": "address",
          "name": "_token",
          "type": "address"
        },
        {
          "internalType": "address",
          "name": "_to",
          "type": "address"
        },
        {
          "internalType": "uint256",
          "name": "_amount",
          "type": "uint256"
        }
      ],
      "name": "transfer",
      "outputs": [],
      "stateMutability": "nonpayable",
      "type": "function"
    },
    {
      "inputs": [
        {
          "internalType": "address",
          "name": "newOwner",
          "type": "address"
        }
      ],
      "name": "transferOwnership",
      "outputs": [],
      "stateMutability": "nonpayable",
      "type": "function"
    },
    {
      "inputs": [
        {
          "internalType": "address",
          "name": "_token",
          "type": "address"
        },
        {
          "internalType": "uint256",
          "name": "_amount",
          "type": "uint256"
        }
      ],
      "name": "withdraw",
      "outputs": [],
      "stateMutability": "nonpayable",
      "type": "function"
    }
  ],
  "bytecode": "0x608060405260016003553480156200001657600080fd5b50600062000023620000be565b600080546001600160a01b0319166001600160a01b0383169081178255604051929350917f8be0079c531659141344cd1fd0a4f28419497f9722a3daafe3b4186f6b6457e0908290a350620000b86040518060400160405280601581526020017f50617261646f78563120636f6e7374727563746f720000000000000000000000815250620000c260201b6200168d1760201c565b62000196565b3390565b62000172816040516024018080602001828103825283818151815260200191508051906020019080838360005b8381101562000109578181015183820152602001620000ef565b50505050905090810190601f168015620001375780820380516001836020036101000a031916815260200191505b5060408051601f198184030181529190526020810180516001600160e01b0390811663104c13eb60e21b179091529093506200017516915050565b50565b80516a636f6e736f6c652e6c6f67602083016000808483855afa5050505050565b6128d580620001a66000396000f3fe608060405234801561001057600080fd5b50600436106101735760003560e01c8063b795d28c116100de578063d6c3c03411610097578063e74b981b11610071578063e74b981b146102f1578063f1bb7f5114610338578063f2fde38b1461034b578063f3fef3a31461035e57610173565b8063d6c3c034146102f1578063d85d3d2714610304578063dc7cce5b1461031757610173565b8063b795d28c1461028a578063beabacc81461029d578063c062b35b146102b0578063c203fec4146102c3578063c97fdae1146102d6578063cf6c62ea146102de57610173565b806357bcc0201161013057806357bcc0201461022e578063715018a61461024157806380f8c48b1461024957806389b9620e1461025c5780638da5cb5b1461026f578063a9678a181461027757610173565b80630a7fce1d1461017857806310c3c610146101a257806330c7a451146101c45780633293b619146101e4578063469048401461020457806347e7ef2414610219575b600080fd5b61018b610186366004611ff2565b610371565b604051610199929190612806565b60405180910390f35b6101b56101b0366004611ff2565b610390565b60405161019993929190612837565b6101d76101d2366004611ff2565b6103bc565b604051610199919061282e565b6101f76101f2366004612181565b6103d9565b604051610199919061240c565b61020c610490565b604051610199919061235d565b61022c610227366004612181565b61049f565b005b6101d761023c366004612205565b610660565b61022c61068d565b6101f761025736600461228d565b61074b565b61020c61026a3660046121ca565b6107c1565b61020c6107e7565b61022c610285366004612066565b6107f6565b61022c610298366004612248565b6108e4565b61022c6102ab3660046120b0565b610acc565b61022c6102be366004612248565b610b6c565b6101d76102d1366004612024565b610d4d565b61020c610d70565b61022c6102ec3660046120eb565b610d7f565b61022c6102ff366004611fd8565b610fc9565b61022c6103123660046121ca565b611015565b61032a61032536600461212c565b61117b565b6040516101999291906123c9565b61022c610346366004612205565b6111de565b61022c610359366004611fd8565b6113dd565b61022c61036c366004612181565b6114f1565b610379611e45565b60006103858484611736565b909590945092505050565b600a60209081526000928352604080842090915290825290208054600182015460029092015490919083565b600460209081526000928352604080842090915290825290205481565b600760205281600052604060002081815481106103f557600080fd5b600091825260209182902001805460408051601f600260001961010060018716150201909416939093049283018590048502810185019091528181529450909250908301828280156104885780601f1061045d57610100808354040283529160200191610488565b820191906000526020600020905b81548152906001019060200180831161046b57829003601f168201915b505050505081565b6001546001600160a01b031681565b6003546001146104ca5760405162461bcd60e51b81526004016104c19061276d565b60405180910390fd5b60006003556001600160a01b0382166104f55760405162461bcd60e51b81526004016104c1906124aa565b600081116105155760405162461bcd60e51b81526004016104c19061272c565b3360009081526004602090815260408083206001600160a01b03861684529091528120541561056457503360009081526004602090815260408083206001600160a01b03861684529091529020545b6040516323b872dd60e01b815283906001600160a01b038216906323b872dd90610596903390309088906004016123a5565b602060405180830381600087803b1580156105b057600080fd5b505af11580156105c4573d6000803e3d6000fd5b505050506040513d601f19601f820116820180604052508101906105e891906121aa565b506105f3828461183e565b3360008181526004602090815260408083206001600160a01b038a168452909152908190209290925590517f5548c837ab068cf56a2c2479df0882a4922fd203edb7517321831d95078c5f629161064d91879087906123a5565b60405180910390a1505060016003555050565b81516020818401810180516005825292820194820194909420919093529091526000908152604090205481565b61069561189f565b6001600160a01b03166106a66107e7565b6001600160a01b031614610701576040805162461bcd60e51b815260206004820181905260248201527f4f776e61626c653a2063616c6c6572206973206e6f7420746865206f776e6572604482015290519081900360640190fd5b600080546040516001600160a01b03909116907f8be0079c531659141344cd1fd0a4f28419497f9722a3daafe3b4186f6b6457e0908390a3600080546001600160a01b0319169055565b6008818154811061075b57600080fd5b600091825260209182902001805460408051601f60026000196101006001871615020190941693909304928301859004850281018501909152818152935090918301828280156104885780601f1061045d57610100808354040283529160200191610488565b80516020818301810180516006825292820191909301209152546001600160a01b031681565b6000546001600160a01b031690565b6003546001146108185760405162461bcd60e51b81526004016104c19061276d565b60006003556001600160a01b0383166108435760405162461bcd60e51b81526004016104c1906124aa565b6001600160a01b0382166108695760405162461bcd60e51b81526004016104c1906124aa565b600081116108895760405162461bcd60e51b81526004016104c19061267c565b6000610897858585856118a3565b90507fcd3829a3813dc3cdd188fd3d01dcf3268c16be2fdd2dd21d0665418816e4606285858585856040516108d0959493929190612371565b60405180910390a150506001600355505050565b6003546001146109065760405162461bcd60e51b81526004016104c19061276d565b60006003556001600160a01b0382166109315760405162461bcd60e51b81526004016104c1906124aa565b336001600160a01b031660068460405161094b91906122d1565b908152604051908190036020019020546001600160a01b0316146109815760405162461bcd60e51b81526004016104c1906125c9565b600060058460405161099391906122d1565b90815260408051602092819003830190206001600160a01b038616600090815292529020549050818110156109da5760405162461bcd60e51b81526004016104c190612550565b610a19826005866040516109ee91906122d1565b90815260408051602092819003830190206001600160a01b03881660009081529252902054906119e3565b600585604051610a2991906122d1565b90815260408051602092819003830190206001600160a01b0387166000818152918452828220949094553381526004835281812093815292909152902054610a71908361183e565b3360009081526004602090815260408083206001600160a01b03881684529091529081902091909155517f0bd2df912f4aa5f26366b1353a4e72d5b7988935634dcaf30a698385c41c0ca39061064d9086908690869061247c565b600354600114610aee5760405162461bcd60e51b81526004016104c19061276d565b60006003556001600160a01b038316610b195760405162461bcd60e51b81526004016104c1906124aa565b610b2583338484611a40565b7fd1398bee19313d6bf672ccb116e51f4a1a947e91c757907f51fbb5b5e56c698f83338484604051610b5a94939291906123e2565b60405180910390a15050600160035550565b600354600114610b8e5760405162461bcd60e51b81526004016104c19061276d565b60006003556001600160a01b038216610bb95760405162461bcd60e51b81526004016104c1906124aa565b336001600160a01b0316600684604051610bd391906122d1565b908152604051908190036020019020546001600160a01b031614610c095760405162461bcd60e51b81526004016104c1906125c9565b3360009081526004602090815260408083206001600160a01b038616845290915290205481811015610c4d5760405162461bcd60e51b81526004016104c1906126e8565b3360009081526004602090815260408083206001600160a01b0387168452909152902054610c7b90836119e3565b3360009081526004602090815260408083206001600160a01b0388168452909152908190209190915551610ce4908390600590610cb99088906122d1565b90815260408051602092819003830190206001600160a01b038816600090815292529020549061183e565b600585604051610cf491906122d1565b9081526040805191829003602090810183206001600160a01b0388166000908152915220919091557f43e6f72b1076821a74d5e9628ec0044cb5bebc60c8be905a37382d310bbc0f9d9061064d9086908690869061247c565b600b60209081526000938452604080852082529284528284209052825290205481565b6002546001600160a01b031681565b600354600114610da15760405162461bcd60e51b81526004016104c19061276d565b60006003556001600160a01b038416610dcc5760405162461bcd60e51b81526004016104c1906124aa565b6001600160a01b038316610df25760405162461bcd60e51b81526004016104c1906124aa565b60008211610e125760405162461bcd60e51b81526004016104c1906124df565b60008111610e325760405162461bcd60e51b81526004016104c1906124df565b3360009081526004602090815260408083206001600160a01b0388168452909152902054821115610e755760405162461bcd60e51b81526004016104c1906126e8565b3360009081526004602090815260408083206001600160a01b0387168452909152902054811115610eb85760405162461bcd60e51b81526004016104c1906126e8565b3360009081526004602090815260408083206001600160a01b038881168552925280832080548690039055908516825281208054839003905580610efc8686611736565b91509150816040015160001415610f2457838252602082018390528284026040830152610f72565b600081610f35578260200151610f38565b82515b9050600082610f48578351610f4e565b83602001515b9050610f5a828761183e565b8452610f66818661183e565b60208501520260408301525b610f7d868684611b2f565b7fc33fbc9654f9c0dcfcbd829113bdb10afe95619bc0824bc5959ad82fd6952bd93387878787604051610fb4959493929190612371565b60405180910390a15050600160035550505050565b6001546001600160a01b03163314610ff35760405162461bcd60e51b81526004016104c190612522565b600180546001600160a01b0319166001600160a01b0392909216919091179055565b6003546001146110375760405162461bcd60e51b81526004016104c19061276d565b6000600381905560405160069061104f9084906122d1565b908152604051908190036020019020546001600160a01b0316146110855760405162461bcd60e51b81526004016104c190612592565b3360068260405161109691906122d1565b908152604080516020928190038301902080546001600160a01b0319166001600160a01b0394909416939093179092553360009081526007825291822080546001810182559083529181902083516110f5939190910191840190611e66565b50600880546001810182556000919091528151611139917ff3f7a9fe364faab93b216da50a3214154f22a0a2b415b23a84c8169e8b636ee301906020840190611e66565b507f79b04a02d84fec4f53dec01c843dee92deee8a6d7dc31a65ae8c2c6b60200cf3813360405161116b92919061241f565b60405180910390a1506001600355565b600960209081526000848152604090208351808501830180519281529083019285019290922091528054829081106111b257600080fd5b6000918252602090912060029091020180546001909101546001600160a01b0390911693509150839050565b6003546001146112005760405162461bcd60e51b81526004016104c19061276d565b60006003556001600160a01b03811661122b5760405162461bcd60e51b81526004016104c1906124aa565b336001600160a01b031660068360405161124591906122d1565b908152604051908190036020019020546001600160a01b03161461127b5760405162461bcd60e51b81526004016104c1906125c9565b60005b8260405160200161128f91906122d1565b60408051601f198184030181529181528151602092830120336000908152600790935291208054839081106112c057fe5b906000526020600020016040516020016112da91906122ed565b60405160208183030381529060405280519060200120146112fd5760010161127e565b33600090815260076020526040902080548290811061131857fe5b90600052602060002001600061132e9190611ef2565b6001600160a01b03821660009081526007602090815260408220805460018101825590835291819020855161136a939190910191860190611e66565b508160068460405161137c91906122d1565b90815260405190819003602001812080546001600160a01b03939093166001600160a01b0319909316929092179091557fe76375c57eef426276019091544847f973c885ebf3202e77e8430f0aa7ad6a1f90610b5a90859033908690612449565b6113e561189f565b6001600160a01b03166113f66107e7565b6001600160a01b031614611451576040805162461bcd60e51b815260206004820181905260248201527f4f776e61626c653a2063616c6c6572206973206e6f7420746865206f776e6572604482015290519081900360640190fd5b6001600160a01b0381166114965760405162461bcd60e51b815260040180806020018281038252602681526020018061287a6026913960400191505060405180910390fd5b600080546040516001600160a01b03808516939216917f8be0079c531659141344cd1fd0a4f28419497f9722a3daafe3b4186f6b6457e091a3600080546001600160a01b0319166001600160a01b0392909216919091179055565b6003546001146115135760405162461bcd60e51b81526004016104c19061276d565b60006003556001600160a01b03821661153e5760405162461bcd60e51b81526004016104c1906124aa565b3360009081526004602090815260408083206001600160a01b0386168452909152902054818110156115825760405162461bcd60e51b81526004016104c1906126e8565b60405163a9059cbb60e01b815283906001600160a01b0382169063a9059cbb906115b290339087906004016123c9565b602060405180830381600087803b1580156115cc57600080fd5b505af11580156115e0573d6000803e3d6000fd5b505050506040513d601f19601f8201168201806040525081019061160491906121aa565b503360009081526004602090815260408083206001600160a01b038816845290915290205461163390846119e3565b3360008181526004602090815260408083206001600160a01b038a168452909152908190209290925590517f2717ead6b9200dd235aad468c9809ea400fe33ac69b5bfaa6d3e90fc922b63989161064d91879087906123a5565b611733816040516024018080602001828103825283818151815260200191508051906020019080838360005b838110156116d15781810151838201526020016116b9565b50505050905090810190601f1680156116fe5780820380516001836020036101000a031916815260200191505b5060408051601f198184030181529190526020810180516001600160e01b031663104c13eb60e21b1790529250611c18915050565b50565b61173e611e45565b60006001600160a01b0384161580159061176057506001600160a01b03831615155b61177c5760405162461bcd60e51b81526004016104c190612600565b6000836001600160a01b0316856001600160a01b03161061179d578361179f565b845b90506000846001600160a01b0316866001600160a01b0316106117c257856117c4565b845b9050856001600160a01b0316826001600160a01b0316146117e65760006117e9565b60015b6001600160a01b039283166000908152600a6020908152604080832094909516825292835283902083516060810185528154815260018201549381019390935260020154928201929092529590945092505050565b600082820183811015611898576040805162461bcd60e51b815260206004820152601b60248201527f536166654d6174683a206164646974696f6e206f766572666c6f770000000000604482015290519081900360640190fd5b9392505050565b3390565b60006001600160a01b0384166118cb5760405162461bcd60e51b81526004016104c1906124aa565b6001600160a01b0383166118f15760405162461bcd60e51b81526004016104c1906124aa565b600082116119115760405162461bcd60e51b81526004016104c19061267c565b60008061191e8686611736565b915091508160400151600014156119475760405162461bcd60e51b81526004016104c1906127cf565b60008161195857826020015161195b565b82515b905060008261196b578351611971565b83602001515b905061199561198e611983848961183e565b604087015190611c39565b82906119e3565b94506119a1828761183e565b84526119ad81866119e3565b60208501526119bd888886611b2f565b6119ca8989600089611ca0565b6119d78988876000611ca0565b50505050949350505050565b600082821115611a3a576040805162461bcd60e51b815260206004820152601e60248201527f536166654d6174683a207375627472616374696f6e206f766572666c6f770000604482015290519081900360640190fd5b50900390565b6001600160a01b03808416600090815260046020908152604080832093881683529290522054811115611a855760405162461bcd60e51b81526004016104c190612798565b6001600160a01b03808416600090815260046020908152604080832093881683529290522054611ab590826119e3565b6001600160a01b0380851660009081526004602081815260408084208a861680865290835281852096909655938716835290815282822093825292909252902054611b00908261183e565b6001600160a01b0392831660009081526004602090815260408083209790951682529590955291909320555050565b6001600160a01b03831615801590611b4f57506001600160a01b03821615155b611b6b5760405162461bcd60e51b81526004016104c190612600565b6040810151611b8c5760405162461bcd60e51b81526004016104c190612645565b6000826001600160a01b0316846001600160a01b031610611bad5782611baf565b835b90506000836001600160a01b0316856001600160a01b031610611bd25784611bd4565b835b6001600160a01b039283166000908152600a602090815260408083209590931682529384528190208451815592840151600184015590920151600290910155505050565b80516a636f6e736f6c652e6c6f67602083016000808483855afa5050505050565b6000808211611c8f576040805162461bcd60e51b815260206004820152601a60248201527f536166654d6174683a206469766973696f6e206279207a65726f000000000000604482015290519081900360640190fd5b818381611c9857fe5b049392505050565b6001600160a01b03841615801590611cc057506001600160a01b03831615155b611cdc5760405162461bcd60e51b81526004016104c1906126b3565b6001600160a01b038085166000908152600460209081526040808320938716835292815290829020548251808401909352601183527002fb9b0b332aab83230ba32a137b7b59d1607d1b9183019190915290611d3a90828585611d81565b611d4e82611d48838661183e565b906119e3565b6001600160a01b039586166000908152600460209081526040808320979098168252959095529490932093909355505050565b611e3f848484846040516024018080602001858152602001848152602001838152602001828103825286818151815260200191508051906020019080838360005b83811015611dda578181015183820152602001611dc2565b50505050905090810190601f168015611e075780820380516001836020036101000a031916815260200191505b5060408051601f198184030181529190526020810180516001600160e01b03166304772b3360e11b1790529550611c18945050505050565b50505050565b60405180606001604052806000815260200160008152602001600081525090565b828054600181600116156101000203166002900490600052602060002090601f016020900481019282611e9c5760008555611ee2565b82601f10611eb557805160ff1916838001178555611ee2565b82800160010185558215611ee2579182015b82811115611ee2578251825591602001919060010190611ec7565b50611eee929150611f32565b5090565b50805460018160011615610100020316600290046000825580601f10611f185750611733565b601f01602090049060005260206000209081019061173391905b5b80821115611eee5760008155600101611f33565b80356001600160a01b0381168114611f5e57600080fd5b919050565b600082601f830112611f73578081fd5b813567ffffffffffffffff80821115611f8857fe5b604051601f8301601f191681016020018281118282101715611fa657fe5b604052828152848301602001861015611fbd578384fd5b82602086016020830137918201602001929092529392505050565b600060208284031215611fe9578081fd5b61189882611f47565b60008060408385031215612004578081fd5b61200d83611f47565b915061201b60208401611f47565b90509250929050565b600080600060608486031215612038578081fd5b61204184611f47565b925061204f60208501611f47565b915061205d60408501611f47565b90509250925092565b6000806000806080858703121561207b578081fd5b61208485611f47565b935061209260208601611f47565b92506120a060408601611f47565b9396929550929360600135925050565b6000806000606084860312156120c4578283fd5b6120cd84611f47565b92506120db60208501611f47565b9150604084013590509250925092565b60008060008060808587031215612100578384fd5b61210985611f47565b935061211760208601611f47565b93969395505050506040820135916060013590565b600080600060608486031215612140578283fd5b61214984611f47565b9250602084013567ffffffffffffffff811115612164578283fd5b61217086828701611f63565b925050604084013590509250925092565b60008060408385031215612193578182fd5b61219c83611f47565b946020939093013593505050565b6000602082840312156121bb578081fd5b81518015158114611898578182fd5b6000602082840312156121db578081fd5b813567ffffffffffffffff8111156121f1578182fd5b6121fd84828501611f63565b949350505050565b60008060408385031215612217578182fd5b823567ffffffffffffffff81111561222d578283fd5b61223985828601611f63565b92505061201b60208401611f47565b60008060006060848603121561225c578283fd5b833567ffffffffffffffff811115612272578384fd5b61227e86828701611f63565b9350506120db60208501611f47565b60006020828403121561229e578081fd5b5035919050565b600081518084526122bd81602086016020860161284d565b601f01601f19169290920160200192915050565b600082516122e381846020870161284d565b9190910192915050565b600080835460018082166000811461230c576001811461232357612352565b60ff198316865260028304607f1686019350612352565b600283048786526020808720875b8381101561234a5781548a820152908501908201612331565b505050860193505b509195945050505050565b6001600160a01b0391909116815260200190565b6001600160a01b03958616815293851660208501529190931660408301526060820192909252608081019190915260a00190565b6001600160a01b039384168152919092166020820152604081019190915260600190565b6001600160a01b03929092168252602082015260400190565b6001600160a01b039485168152928416602084015292166040820152606081019190915260800190565b60006020825261189860208301846122a5565b60006040825261243260408301856122a5565b905060018060a01b03831660208301529392505050565b60006060825261245c60608301866122a5565b6001600160a01b0394851660208401529290931660409091015292915050565b60006060825261248f60608301866122a5565b6001600160a01b039490941660208301525060400152919050565b6020808252818101527f50617261646f7856313a20494e56414c494420544f4b454e2041444452455353604082015260600190565b60208082526023908201527f50617261646f7856313a20494e56414c4944204c495155494449545920414d4f60408201526215539560ea1b606082015260800190565b6020808252601490820152732830b930b237bc2b189d102327a92124a22222a760611b604082015260600190565b60208082526022908201527f50617261646f7856313a20494e53554646494349454e542054502042414c414e604082015261434560f01b606082015260800190565b60208082526017908201527f50617261646f7856313a20544f4b454e5f455849535453000000000000000000604082015260600190565b60208082526017908201527f50617261646f7856313a20554e415554484f52495a4544000000000000000000604082015260600190565b60208082526025908201527f50617261646f7856313a204120544f4b454e204144445245535320495320494e604082015264159053125160da1b606082015260800190565b6020808252601b908201527f50617261646f7856313a20494e56414c49442043504920444154410000000000604082015260600190565b6020808252601e908201527f50617261646f7856313a20494e56414c4944205357415020414d4f554e540000604082015260600190565b6020808252818101527f50617261646f7856313a20414e204144445245535320495320494e56414c4944604082015260600190565b60208082526024908201527f50617261646f7856313a20494e53554646494349454e5420424f4f4b2042414c604082015263414e434560e01b606082015260800190565b60208082526021908201527f50617261646f7856313a20494e56414c4944204445504f53495420414d4f554e6040820152601560fa1b606082015260800190565b60208082526011908201527014185c98591bde158c4e881313d0d2d151607a1b604082015260600190565b6020808252601d908201527f50617261646f7856313a20494e53554646494349454e542046554e4453000000604082015260600190565b6020808252601f908201527f50617261646f7856313a20544f4b454e2050414952204e4f5420464f554e4400604082015260600190565b8251815260208084015190820152604092830151928101929092521515606082015260800190565b90815260200190565b9283526020830191909152604082015260600190565b60005b83811015612868578181015183820152602001612850565b83811115611e3f575050600091015256fe4f776e61626c653a206e6577206f776e657220697320746865207a65726f2061646472657373a2646970667358221220f3e59a419334bd7119b0f1d296024a8f2d0a377dc7c907f0554ab69fb4ca560864736f6c63430007060033",
  "linkReferences": {},
  "deployedLinkReferences": {}
}