{
  "_format": "hh-sol-artifact-1",
  "contractName": "ParadoxV1",
  "sourceName": "contracts/ParadoxV1.sol",
  "abi": [
    {
      "inputs": [],
      "stateMutability": "nonpayable",
      "type": "constructor"
    },
    {
      "anonymous": false,
      "inputs": [
        {
          "indexed": false,
          "internalType": "address",
          "name": "account_",
          "type": "address"
        },
        {
          "indexed": false,
          "internalType": "address",
          "name": "token0_",
          "type": "address"
        },
        {
          "indexed": false,
          "internalType": "address",
          "name": "token1_",
          "type": "address"
        },
        {
          "indexed": false,
          "internalType": "uint256",
          "name": "token0input_",
          "type": "uint256"
        },
        {
          "indexed": false,
          "internalType": "uint256",
          "name": "token1input_",
          "type": "uint256"
        }
      ],
      "name": "AddLiquidity",
      "type": "event"
    },
    {
      "anonymous": false,
      "inputs": [
        {
          "indexed": false,
          "internalType": "string",
          "name": "symbol_",
          "type": "string"
        },
        {
          "indexed": false,
          "internalType": "address",
          "name": "from_",
          "type": "address"
        },
        {
          "indexed": false,
          "internalType": "address",
          "name": "to_",
          "type": "address"
        }
      ],
      "name": "Assign",
      "type": "event"
    },
    {
      "anonymous": false,
      "inputs": [
        {
          "indexed": false,
          "internalType": "address",
          "name": "account_",
          "type": "address"
        },
        {
          "indexed": false,
          "internalType": "address",
          "name": "token_",
          "type": "address"
        },
        {
          "indexed": false,
          "internalType": "uint256",
          "name": "amount_",
          "type": "uint256"
        }
      ],
      "name": "Deposit",
      "type": "event"
    },
    {
      "anonymous": false,
      "inputs": [
        {
          "indexed": false,
          "internalType": "string",
          "name": "symbol_",
          "type": "string"
        },
        {
          "indexed": false,
          "internalType": "address",
          "name": "token_",
          "type": "address"
        },
        {
          "indexed": false,
          "internalType": "uint256",
          "name": "amount_",
          "type": "uint256"
        }
      ],
      "name": "Drain",
      "type": "event"
    },
    {
      "anonymous": false,
      "inputs": [
        {
          "indexed": false,
          "internalType": "string",
          "name": "symbol_",
          "type": "string"
        },
        {
          "indexed": false,
          "internalType": "address",
          "name": "token_",
          "type": "address"
        },
        {
          "indexed": false,
          "internalType": "uint256",
          "name": "amount_",
          "type": "uint256"
        }
      ],
      "name": "Fill",
      "type": "event"
    },
    {
      "anonymous": false,
      "inputs": [
        {
          "indexed": false,
          "internalType": "string",
          "name": "symbol_",
          "type": "string"
        },
        {
          "indexed": false,
          "internalType": "address",
          "name": "account_",
          "type": "address"
        }
      ],
      "name": "Mint",
      "type": "event"
    },
    {
      "anonymous": false,
      "inputs": [
        {
          "indexed": true,
          "internalType": "address",
          "name": "previousOwner",
          "type": "address"
        },
        {
          "indexed": true,
          "internalType": "address",
          "name": "newOwner",
          "type": "address"
        }
      ],
      "name": "OwnershipTransferred",
      "type": "event"
    },
    {
      "anonymous": false,
      "inputs": [
        {
          "indexed": false,
          "internalType": "address",
          "name": "account_",
          "type": "address"
        },
        {
          "indexed": false,
          "internalType": "address",
          "name": "tokenHave_",
          "type": "address"
        },
        {
          "indexed": false,
          "internalType": "address",
          "name": "tokenWant_",
          "type": "address"
        },
        {
          "indexed": false,
          "internalType": "uint256",
          "name": "input_",
          "type": "uint256"
        },
        {
          "indexed": false,
          "internalType": "uint256",
          "name": "output_",
          "type": "uint256"
        }
      ],
      "name": "Swap",
      "type": "event"
    },
    {
      "anonymous": false,
      "inputs": [
        {
          "indexed": false,
          "internalType": "address",
          "name": "token_",
          "type": "address"
        },
        {
          "indexed": false,
          "internalType": "address",
          "name": "from_",
          "type": "address"
        },
        {
          "indexed": false,
          "internalType": "address",
          "name": "to_",
          "type": "address"
        },
        {
          "indexed": false,
          "internalType": "uint256",
          "name": "amount_",
          "type": "uint256"
        }
      ],
      "name": "Transfer",
      "type": "event"
    },
    {
      "anonymous": false,
      "inputs": [
        {
          "indexed": false,
          "internalType": "address",
          "name": "account_",
          "type": "address"
        },
        {
          "indexed": false,
          "internalType": "address",
          "name": "token_",
          "type": "address"
        },
        {
          "indexed": false,
          "internalType": "uint256",
          "name": "amount_",
          "type": "uint256"
        }
      ],
      "name": "Withdrawal",
      "type": "event"
    },
    {
      "inputs": [
        {
          "internalType": "address",
          "name": "_token0",
          "type": "address"
        },
        {
          "internalType": "address",
          "name": "_token1",
          "type": "address"
        },
        {
          "internalType": "uint256",
          "name": "_token0input",
          "type": "uint256"
        },
        {
          "internalType": "uint256",
          "name": "_token1input",
          "type": "uint256"
        }
      ],
      "name": "addLiquidity",
      "outputs": [],
      "stateMutability": "nonpayable",
      "type": "function"
    },
    {
      "inputs": [
        {
          "internalType": "string",
          "name": "_symbol",
          "type": "string"
        },
        {
          "internalType": "address",
          "name": "_to",
          "type": "address"
        }
      ],
      "name": "assign",
      "outputs": [],
      "stateMutability": "nonpayable",
      "type": "function"
    },
    {
      "inputs": [
        {
          "internalType": "address",
          "name": "_token",
          "type": "address"
        },
        {
          "internalType": "uint256",
          "name": "_amount",
          "type": "uint256"
        }
      ],
      "name": "deposit",
      "outputs": [],
      "stateMutability": "nonpayable",
      "type": "function"
    },
    {
      "inputs": [
        {
          "internalType": "string",
          "name": "_symbol",
          "type": "string"
        },
        {
          "internalType": "address",
          "name": "_token",
          "type": "address"
        },
        {
          "internalType": "uint256",
          "name": "_amount",
          "type": "uint256"
        }
      ],
      "name": "drain",
      "outputs": [],
      "stateMutability": "nonpayable",
      "type": "function"
    },
    {
      "inputs": [],
      "name": "feeRecipient",
      "outputs": [
        {
          "internalType": "address",
          "name": "",
          "type": "address"
        }
      ],
      "stateMutability": "view",
      "type": "function"
    },
    {
      "inputs": [],
      "name": "feeRecipientSetter",
      "outputs": [
        {
          "internalType": "address",
          "name": "",
          "type": "address"
        }
      ],
      "stateMutability": "view",
      "type": "function"
    },
    {
      "inputs": [
        {
          "internalType": "string",
          "name": "_symbol",
          "type": "string"
        },
        {
          "internalType": "address",
          "name": "_token",
          "type": "address"
        },
        {
          "internalType": "uint256",
          "name": "_amount",
          "type": "uint256"
        }
      ],
      "name": "fill",
      "outputs": [],
      "stateMutability": "nonpayable",
      "type": "function"
    },
    {
      "inputs": [
        {
          "internalType": "address",
          "name": "_token0",
          "type": "address"
        },
        {
          "internalType": "address",
          "name": "_token1",
          "type": "address"
        }
      ],
      "name": "findCPI",
      "outputs": [
        {
          "components": [
            {
              "internalType": "uint256",
              "name": "a",
              "type": "uint256"
            },
            {
              "internalType": "uint256",
              "name": "b",
              "type": "uint256"
            },
            {
              "internalType": "uint256",
              "name": "k",
              "type": "uint256"
            }
          ],
          "internalType": "struct CPI",
          "name": "foundCPI",
          "type": "tuple"
        },
        {
          "internalType": "bool",
          "name": "orderCorrect",
          "type": "bool"
        }
      ],
      "stateMutability": "view",
      "type": "function"
    },
    {
      "inputs": [
        {
          "internalType": "address",
          "name": "",
          "type": "address"
        },
        {
          "internalType": "address",
          "name": "",
          "type": "address"
        }
      ],
      "name": "getBook",
      "outputs": [
        {
          "internalType": "uint256",
          "name": "",
          "type": "uint256"
        }
      ],
      "stateMutability": "view",
      "type": "function"
    },
    {
      "inputs": [
        {
          "internalType": "address",
          "name": "",
          "type": "address"
        },
        {
          "internalType": "uint256",
          "name": "",
          "type": "uint256"
        }
      ],
      "name": "getBookList",
      "outputs": [
        {
          "internalType": "address",
          "name": "",
          "type": "address"
        }
      ],
      "stateMutability": "view",
      "type": "function"
    },
    {
      "inputs": [
        {
          "internalType": "address",
          "name": "",
          "type": "address"
        }
      ],
      "name": "getBookListLength",
      "outputs": [
        {
          "internalType": "uint256",
          "name": "",
          "type": "uint256"
        }
      ],
      "stateMutability": "view",
      "type": "function"
    },
    {
      "inputs": [
        {
          "internalType": "address",
          "name": "",
          "type": "address"
        },
        {
          "internalType": "address",
          "name": "",
          "type": "address"
        }
      ],
      "name": "getCPI",
      "outputs": [
        {
          "internalType": "uint256",
          "name": "a",
          "type": "uint256"
        },
        {
          "internalType": "uint256",
          "name": "b",
          "type": "uint256"
        },
        {
          "internalType": "uint256",
          "name": "k",
          "type": "uint256"
        }
      ],
      "stateMutability": "view",
      "type": "function"
    },
    {
      "inputs": [
        {
          "internalType": "address",
          "name": "",
          "type": "address"
        },
        {
          "internalType": "address",
          "name": "",
          "type": "address"
        },
        {
          "internalType": "address",
          "name": "",
          "type": "address"
        }
      ],
      "name": "getLP",
      "outputs": [
        {
          "internalType": "uint256",
          "name": "",
          "type": "uint256"
        }
      ],
      "stateMutability": "view",
      "type": "function"
    },
    {
      "inputs": [
        {
          "internalType": "address",
          "name": "",
          "type": "address"
        },
        {
          "internalType": "string",
          "name": "",
          "type": "string"
        },
        {
          "internalType": "uint256",
          "name": "",
          "type": "uint256"
        }
      ],
      "name": "getOffers",
      "outputs": [
        {
          "internalType": "address",
          "name": "account",
          "type": "address"
        },
        {
          "internalType": "uint256",
          "name": "amount",
          "type": "uint256"
        }
      ],
      "stateMutability": "view",
      "type": "function"
    },
    {
      "inputs": [
        {
          "internalType": "address",
          "name": "",
          "type": "address"
        },
        {
          "internalType": "uint256",
          "name": "",
          "type": "uint256"
        }
      ],
      "name": "getOwnerTps",
      "outputs": [
        {
          "internalType": "string",
          "name": "",
          "type": "string"
        }
      ],
      "stateMutability": "view",
      "type": "function"
    },
    {
      "inputs": [
        {
          "internalType": "string",
          "name": "",
          "type": "string"
        },
        {
          "internalType": "address",
          "name": "",
          "type": "address"
        }
      ],
      "name": "getTp",
      "outputs": [
        {
          "internalType": "uint256",
          "name": "",
          "type": "uint256"
        }
      ],
      "stateMutability": "view",
      "type": "function"
    },
    {
      "inputs": [
        {
          "internalType": "string",
          "name": "",
          "type": "string"
        }
      ],
      "name": "getTpOwner",
      "outputs": [
        {
          "internalType": "address",
          "name": "",
          "type": "address"
        }
      ],
      "stateMutability": "view",
      "type": "function"
    },
    {
      "inputs": [
        {
          "internalType": "string",
          "name": "_symbol",
          "type": "string"
        }
      ],
      "name": "mint",
      "outputs": [],
      "stateMutability": "nonpayable",
      "type": "function"
    },
    {
      "inputs": [],
      "name": "owner",
      "outputs": [
        {
          "internalType": "address",
          "name": "",
          "type": "address"
        }
      ],
      "stateMutability": "view",
      "type": "function"
    },
    {
      "inputs": [],
      "name": "renounceOwnership",
      "outputs": [],
      "stateMutability": "nonpayable",
      "type": "function"
    },
    {
      "inputs": [
        {
          "internalType": "address",
          "name": "_feeRecipient",
          "type": "address"
        }
      ],
      "name": "setFeeRecipient",
      "outputs": [],
      "stateMutability": "nonpayable",
      "type": "function"
    },
    {
      "inputs": [
        {
          "internalType": "address",
          "name": "_feeRecipientSetter",
          "type": "address"
        }
      ],
      "name": "setFeeRecipientSetter",
      "outputs": [],
      "stateMutability": "nonpayable",
      "type": "function"
    },
    {
      "inputs": [
        {
          "internalType": "address",
          "name": "_token0",
          "type": "address"
        },
        {
          "internalType": "address",
          "name": "_token1",
          "type": "address"
        },
        {
          "internalType": "uint256",
          "name": "_give",
          "type": "uint256"
        }
      ],
      "name": "swap",
      "outputs": [],
      "stateMutability": "nonpayable",
      "type": "function"
    },
    {
      "inputs": [
        {
          "internalType": "address",
          "name": "_tokenHave",
          "type": "address"
        },
        {
          "internalType": "address",
          "name": "_tokenWant",
          "type": "address"
        },
        {
          "internalType": "uint256",
          "name": "_give",
          "type": "uint256"
        }
      ],
      "name": "swapCalc",
      "outputs": [
        {
          "components": [
            {
              "internalType": "uint256",
              "name": "a",
              "type": "uint256"
            },
            {
              "internalType": "uint256",
              "name": "b",
              "type": "uint256"
            },
            {
              "internalType": "uint256",
              "name": "k",
              "type": "uint256"
            }
          ],
          "internalType": "struct CPI",
          "name": "swapCPI",
          "type": "tuple"
        },
        {
          "internalType": "bool",
          "name": "aIsHave",
          "type": "bool"
        },
        {
          "internalType": "uint256",
          "name": "output",
          "type": "uint256"
        }
      ],
      "stateMutability": "view",
      "type": "function"
    },
    {
      "inputs": [
        {
          "internalType": "uint256",
          "name": "",
          "type": "uint256"
        }
      ],
      "name": "tpList",
      "outputs": [
        {
          "internalType": "string",
          "name": "",
          "type": "string"
        }
      ],
      "stateMutability": "view",
      "type": "function"
    },
    {
      "inputs": [
        {
          "internalType": "address",
          "name": "_token",
          "type": "address"
        },
        {
          "internalType": "address",
          "name": "_to",
          "type": "address"
        },
        {
          "internalType": "uint256",
          "name": "_amount",
          "type": "uint256"
        }
      ],
      "name": "transfer",
      "outputs": [],
      "stateMutability": "nonpayable",
      "type": "function"
    },
    {
      "inputs": [
        {
          "internalType": "address",
          "name": "newOwner",
          "type": "address"
        }
      ],
      "name": "transferOwnership",
      "outputs": [],
      "stateMutability": "nonpayable",
      "type": "function"
    },
    {
      "inputs": [
        {
          "internalType": "address",
          "name": "_token",
          "type": "address"
        },
        {
          "internalType": "uint256",
          "name": "_amount",
          "type": "uint256"
        }
      ],
      "name": "withdraw",
      "outputs": [],
      "stateMutability": "nonpayable",
      "type": "function"
    }
  ],
  "bytecode": "0x608060405260016003553480156200001657600080fd5b50600062000023620000be565b600080546001600160a01b0319166001600160a01b0383169081178255604051929350917f8be0079c531659141344cd1fd0a4f28419497f9722a3daafe3b4186f6b6457e0908290a350620000b86040518060400160405280601581526020017f50617261646f78563120636f6e7374727563746f720000000000000000000000815250620000c260201b620019b81760201c565b62000196565b3390565b62000172816040516024018080602001828103825283818151815260200191508051906020019080838360005b8381101562000109578181015183820152602001620000ef565b50505050905090810190601f168015620001375780820380516001836020036101000a031916815260200191505b5060408051601f198184030181529190526020810180516001600160e01b0390811663104c13eb60e21b179091529093506200017516915050565b50565b80516a636f6e736f6c652e6c6f67602083016000808483855afa5050505050565b612b1880620001a66000396000f3fe608060405234801561001057600080fd5b50600436106101c45760003560e01c8063b795d28c116100f9578063d85d3d2711610097578063e74b981b11610071578063e74b981b14610377578063f1bb7f51146103d1578063f2fde38b146103e4578063f3fef3a3146103f7576101c4565b8063d85d3d271461038a578063dc7cce5b1461039d578063df791e50146103be576101c4565b8063c203fec4116100d3578063c203fec414610349578063c97fdae11461035c578063cf6c62ea14610364578063d6c3c03414610377576101c4565b8063b795d28c14610310578063beabacc814610323578063c062b35b14610336576101c4565b806357bcc0201161016657806389b9620e1161014057806389b9620e146102c05780638c367e95146102d35780638da5cb5b146102f557806394c8f6a6146102fd576101c4565b806357bcc02014610292578063715018a6146102a557806380f8c48b146102ad576101c4565b806330c7a451116101a257806330c7a451146102355780633293b61914610255578063469048401461027557806347e7ef241461027d576101c4565b80630a7fce1d146101c957806310a84798146101f357806310c3c61014610213575b600080fd5b6101dc6101d736600461226b565b61040a565b6040516101ea929190612a0b565b60405180910390f35b6102066102013660046123b0565b610429565b6040516101ea91906125a5565b61022661022136600461226b565b610461565b6040516101ea93929190612a50565b61024861024336600461226b565b61048d565b6040516101ea9190612a47565b6102686102633660046123b0565b6104aa565b6040516101ea9190612654565b610206610561565b61029061028b3660046123b0565b610570565b005b6102486102a0366004612434565b610843565b610290610870565b6102686102bb3660046124bc565b61092e565b6102066102ce3660046123f9565b6109a4565b6102e66102e13660046122df565b6109ca565b6040516101ea93929190612a28565b610206610ad5565b61024861030b366004612251565b610ae4565b61029061031e366004612477565b610af6565b6102906103313660046122df565b610cf1565b610290610344366004612477565b610d91565b61024861035736600461229d565b610f72565b610206610f95565b61029061037236600461231a565b610fa4565b610290610385366004612251565b61121b565b6102906103983660046123f9565b611267565b6103b06103ab36600461235b565b6113cd565b6040516101ea929190612611565b6102906103cc3660046122df565b611430565b6102906103df366004612434565b611509565b6102906103f2366004612251565b611708565b6102906104053660046123b0565b61181c565b6104126120be565b600061041e8484611a61565b909590945092505050565b6005602052816000526040600020818154811061044557600080fd5b6000918252602090912001546001600160a01b03169150829050565b600c60209081526000928352604080842090915290825290208054600182015460029092015490919083565b600460209081526000928352604080842090915290825290205481565b600960205281600052604060002081815481106104c657600080fd5b600091825260209182902001805460408051601f600260001961010060018716150201909416939093049283018590048502810185019091528181529450909250908301828280156105595780601f1061052e57610100808354040283529160200191610559565b820191906000526020600020905b81548152906001019060200180831161053c57829003601f168201915b505050505081565b6001546001600160a01b031681565b60035460011461059b5760405162461bcd60e51b815260040161059290612925565b60405180910390fd5b60006003556001600160a01b0382166105c65760405162461bcd60e51b815260040161059290612994565b600081116105e65760405162461bcd60e51b81526004016105929061276c565b3360009081526004602090815260408083206001600160a01b03861684529091528120541561063957503360009081526004602090815260408083206001600160a01b038616845290915290205461063d565b5060005b3360009081526005602090815260408083208054825181850281018501909352808352919290919083018282801561069e57602002820191906000526020600020905b81546001600160a01b03168152600190910190602001808311610680575b505050505090506000815190506000805b828110156106f157866001600160a01b03168482815181106106cd57fe5b60200260200101516001600160a01b031614156106e957600191505b6001016106af565b5080610744573360008181526005602090815260408083208054600180820183559185528385200180546001600160a01b0319166001600160a01b038d1617905593835260069091529020805490910190555b6040516323b872dd60e01b815286906001600160a01b038216906323b872dd9061077690339030908b906004016125ed565b602060405180830381600087803b15801561079057600080fd5b505af11580156107a4573d6000803e3d6000fd5b505050506040513d601f19601f820116820180604052508101906107c891906123d9565b506107d38587611b69565b3360008181526004602090815260408083206001600160a01b038d168452909152908190209290925590517f5548c837ab068cf56a2c2479df0882a4922fd203edb7517321831d95078c5f629161082d918a908a906125ed565b60405180910390a1505060016003555050505050565b81516020818401810180516007825292820194820194909420919093529091526000908152604090205481565b610878611bca565b6001600160a01b0316610889610ad5565b6001600160a01b0316146108e4576040805162461bcd60e51b815260206004820181905260248201527f4f776e61626c653a2063616c6c6572206973206e6f7420746865206f776e6572604482015290519081900360640190fd5b600080546040516001600160a01b03909116907f8be0079c531659141344cd1fd0a4f28419497f9722a3daafe3b4186f6b6457e0908390a3600080546001600160a01b0319169055565b600a818154811061093e57600080fd5b600091825260209182902001805460408051601f60026000196101006001871615020190941693909304928301859004850281018501909152818152935090918301828280156105595780601f1061052e57610100808354040283529160200191610559565b80516020818301810180516008825292820191909301209152546001600160a01b031681565b6109d26120be565b6000806001600160a01b0386166109fb5760405162461bcd60e51b815260040161059290612994565b6001600160a01b038516610a215760405162461bcd60e51b815260040161059290612994565b60008411610a415760405162461bcd60e51b8152600401610592906126f2565b610a4b8686611a61565b60408201519194509250610a715760405162461bcd60e51b815260040161059290612812565b81610aab57610aa6610a9e610a93868660200151611b6990919063ffffffff16565b604086015190611bce565b845190611c35565b610aca565b8251610aca90610abf90610a939087611b69565b602085015190611c35565b905093509350939050565b6000546001600160a01b031690565b60066020526000908152604090205481565b600354600114610b185760405162461bcd60e51b815260040161059290612925565b60006003556001600160a01b038216610b435760405162461bcd60e51b815260040161059290612994565b336001600160a01b0316600884604051610b5d9190612519565b908152604051908190036020019020546001600160a01b031614610b935760405162461bcd60e51b815260040161059290612880565b6000600784604051610ba59190612519565b90815260408051602092819003830190206001600160a01b03861660009081529252902054905081811015610bec5760405162461bcd60e51b8152600401610592906129c9565b610c2b82600786604051610c009190612519565b90815260408051602092819003830190206001600160a01b0388166000908152925290205490611c35565b600785604051610c3b9190612519565b90815260408051602092819003830190206001600160a01b0387166000818152918452828220949094553381526004835281812093815292909152902054610c839083611b69565b3360009081526004602090815260408083206001600160a01b03881684529091529081902091909155517f0bd2df912f4aa5f26366b1353a4e72d5b7988935634dcaf30a698385c41c0ca390610cde908690869086906126c4565b60405180910390a1505060016003555050565b600354600114610d135760405162461bcd60e51b815260040161059290612925565b60006003556001600160a01b038316610d3e5760405162461bcd60e51b815260040161059290612994565b610d4a83338484611c92565b7fd1398bee19313d6bf672ccb116e51f4a1a947e91c757907f51fbb5b5e56c698f83338484604051610d7f949392919061262a565b60405180910390a15050600160035550565b600354600114610db35760405162461bcd60e51b815260040161059290612925565b60006003556001600160a01b038216610dde5760405162461bcd60e51b815260040161059290612994565b336001600160a01b0316600884604051610df89190612519565b908152604051908190036020019020546001600160a01b031614610e2e5760405162461bcd60e51b815260040161059290612880565b3360009081526004602090815260408083206001600160a01b038616845290915290205481811015610e725760405162461bcd60e51b815260040161059290612950565b3360009081526004602090815260408083206001600160a01b0387168452909152902054610ea09083611c35565b3360009081526004602090815260408083206001600160a01b0388168452909152908190209190915551610f09908390600790610ede908890612519565b90815260408051602092819003830190206001600160a01b0388166000908152925290205490611b69565b600785604051610f199190612519565b9081526040805191829003602090810183206001600160a01b0388166000908152915220919091557f43e6f72b1076821a74d5e9628ec0044cb5bebc60c8be905a37382d310bbc0f9d90610cde908690869086906126c4565b600d60209081526000938452604080852082529284528284209052825290205481565b6002546001600160a01b031681565b600354600114610fc65760405162461bcd60e51b815260040161059290612925565b60006003556001600160a01b038416610ff15760405162461bcd60e51b815260040161059290612994565b6001600160a01b0383166110175760405162461bcd60e51b815260040161059290612994565b600082116110375760405162461bcd60e51b815260040161059290612729565b600081116110575760405162461bcd60e51b815260040161059290612729565b3360009081526004602090815260408083206001600160a01b038816845290915290205482111561109a5760405162461bcd60e51b815260040161059290612950565b3360009081526004602090815260408083206001600160a01b03871684529091529020548111156110dd5760405162461bcd60e51b815260040161059290612950565b3360009081526004602090815260408083206001600160a01b0388811685529252808320805486900390559085168252812080548390039055806111218686611a61565b91509150816040015160001415611160578061113d578261113f565b835b82528061114c578361114e565b825b602083015283830260408301526111c4565b6000816111785782516111739085611b69565b611184565b82516111849086611b69565b90506000826111a157602084015161119c9087611b69565b6111b0565b60208401516111b09086611b69565b828552602085018190529091026040840152505b6111cf868684611d81565b7fc33fbc9654f9c0dcfcbd829113bdb10afe95619bc0824bc5959ad82fd6952bd933878787876040516112069594939291906125b9565b60405180910390a15050600160035550505050565b6001546001600160a01b031633146112455760405162461bcd60e51b8152600401610592906127e4565b600180546001600160a01b0319166001600160a01b0392909216919091179055565b6003546001146112895760405162461bcd60e51b815260040161059290612925565b600060038190556040516008906112a1908490612519565b908152604051908190036020019020546001600160a01b0316146112d75760405162461bcd60e51b815260040161059290612849565b336008826040516112e89190612519565b908152604080516020928190038301902080546001600160a01b0319166001600160a01b0394909416939093179092553360009081526009825291822080546001810182559083529181902083516113479391909101918401906120df565b50600a8054600181018255600091909152815161138b917fc65a7bb8d6351c1cf70c95a316cc6a92839c986682d98bc35f958f4883f9d2a8019060208401906120df565b507f79b04a02d84fec4f53dec01c843dee92deee8a6d7dc31a65ae8c2c6b60200cf381336040516113bd929190612667565b60405180910390a1506001600355565b600b602090815260008481526040902083518085018301805192815290830192850192909220915280548290811061140457600080fd5b6000918252602090912060029091020180546001909101546001600160a01b0390911693509150839050565b6003546001146114525760405162461bcd60e51b815260040161059290612925565b60006003556001600160a01b03831661147d5760405162461bcd60e51b815260040161059290612994565b6001600160a01b0382166114a35760405162461bcd60e51b815260040161059290612994565b600081116114c35760405162461bcd60e51b8152600401610592906126f2565b60006114d0848484611e6a565b90507fcd3829a3813dc3cdd188fd3d01dcf3268c16be2fdd2dd21d0665418816e460623385858585604051610cde9594939291906125b9565b60035460011461152b5760405162461bcd60e51b815260040161059290612925565b60006003556001600160a01b0381166115565760405162461bcd60e51b815260040161059290612994565b336001600160a01b03166008836040516115709190612519565b908152604051908190036020019020546001600160a01b0316146115a65760405162461bcd60e51b815260040161059290612880565b60005b826040516020016115ba9190612519565b60408051601f198184030181529181528151602092830120336000908152600990935291208054839081106115eb57fe5b906000526020600020016040516020016116059190612535565b6040516020818303038152906040528051906020012014611628576001016115a9565b33600090815260096020526040902080548290811061164357fe5b906000526020600020016000611659919061216b565b6001600160a01b0382166000908152600960209081526040822080546001810182559083529181902085516116959391909101918601906120df565b50816008846040516116a79190612519565b90815260405190819003602001812080546001600160a01b03939093166001600160a01b0319909316929092179091557fe76375c57eef426276019091544847f973c885ebf3202e77e8430f0aa7ad6a1f90610d7f90859033908690612691565b611710611bca565b6001600160a01b0316611721610ad5565b6001600160a01b03161461177c576040805162461bcd60e51b815260206004820181905260248201527f4f776e61626c653a2063616c6c6572206973206e6f7420746865206f776e6572604482015290519081900360640190fd5b6001600160a01b0381166117c15760405162461bcd60e51b8152600401808060200182810382526026815260200180612a936026913960400191505060405180910390fd5b600080546040516001600160a01b03808516939216917f8be0079c531659141344cd1fd0a4f28419497f9722a3daafe3b4186f6b6457e091a3600080546001600160a01b0319166001600160a01b0392909216919091179055565b60035460011461183e5760405162461bcd60e51b815260040161059290612925565b60006003556001600160a01b0382166118695760405162461bcd60e51b815260040161059290612994565b3360009081526004602090815260408083206001600160a01b0386168452909152902054818110156118ad5760405162461bcd60e51b815260040161059290612950565b60405163a9059cbb60e01b815283906001600160a01b0382169063a9059cbb906118dd9033908790600401612611565b602060405180830381600087803b1580156118f757600080fd5b505af115801561190b573d6000803e3d6000fd5b505050506040513d601f19601f8201168201806040525081019061192f91906123d9565b503360009081526004602090815260408083206001600160a01b038816845290915290205461195e9084611c35565b3360008181526004602090815260408083206001600160a01b038a168452909152908190209290925590517f2717ead6b9200dd235aad468c9809ea400fe33ac69b5bfaa6d3e90fc922b639891610cde91879087906125ed565b611a5e816040516024018080602001828103825283818151815260200191508051906020019080838360005b838110156119fc5781810151838201526020016119e4565b50505050905090810190601f168015611a295780820380516001836020036101000a031916815260200191505b5060408051601f198184030181529190526020810180516001600160e01b031663104c13eb60e21b1790529250611f07915050565b50565b611a696120be565b60006001600160a01b03841615801590611a8b57506001600160a01b03831615155b611aa75760405162461bcd60e51b8152600401610592906128ee565b6000836001600160a01b0316856001600160a01b031610611ac85783611aca565b845b90506000846001600160a01b0316866001600160a01b031610611aed5785611aef565b845b9050856001600160a01b0316826001600160a01b031614611b11576000611b14565b60015b6001600160a01b039283166000908152600c6020908152604080832094909516825292835283902083516060810185528154815260018201549381019390935260020154928201929092529590945092505050565b600082820183811015611bc3576040805162461bcd60e51b815260206004820152601b60248201527f536166654d6174683a206164646974696f6e206f766572666c6f770000000000604482015290519081900360640190fd5b9392505050565b3390565b6000808211611c24576040805162461bcd60e51b815260206004820152601a60248201527f536166654d6174683a206469766973696f6e206279207a65726f000000000000604482015290519081900360640190fd5b818381611c2d57fe5b049392505050565b600082821115611c8c576040805162461bcd60e51b815260206004820152601e60248201527f536166654d6174683a207375627472616374696f6e206f766572666c6f770000604482015290519081900360640190fd5b50900390565b6001600160a01b03808416600090815260046020908152604080832093881683529290522054811115611cd75760405162461bcd60e51b8152600401610592906127ad565b6001600160a01b03808416600090815260046020908152604080832093881683529290522054611d079082611c35565b6001600160a01b0380851660009081526004602081815260408084208a861680865290835281852096909655938716835290815282822093825292909252902054611d529082611b69565b6001600160a01b0392831660009081526004602090815260408083209790951682529590955291909320555050565b6001600160a01b03831615801590611da157506001600160a01b03821615155b611dbd5760405162461bcd60e51b8152600401610592906128ee565b6040810151611dde5760405162461bcd60e51b8152600401610592906128b7565b6000826001600160a01b0316846001600160a01b031610611dff5782611e01565b835b90506000836001600160a01b0316856001600160a01b031610611e245784611e26565b835b6001600160a01b039283166000908152600c602090815260408083209590931682529384528190208451815592840151600184015590920151600290910155505050565b6000611e746120be565b6000611e818686866109ca565b9450909250905080611e9e578151611e999084611c35565b611eaa565b8151611eaa9085611b69565b825280611ec5576020820151611ec09085611b69565b611ed4565b6020820151611ed49084611c35565b6020830152611ee4868684611d81565b611ef13387600087611f28565b611efe3386856000611f28565b50509392505050565b80516a636f6e736f6c652e6c6f67602083016000808483855afa5050505050565b6001600160a01b03841615801590611f4857506001600160a01b03831615155b611f645760405162461bcd60e51b8152600401610592906128ee565b6001600160a01b03808516600090815260046020908152604080832093871683529281529082902054825160608101909352602a8084529092611fb392909190612ab990830139828585611ffa565b611fc782611fc18386611b69565b90611c35565b6001600160a01b039586166000908152600460209081526040808320979098168252959095529490932093909355505050565b6120b8848484846040516024018080602001858152602001848152602001838152602001828103825286818151815260200191508051906020019080838360005b8381101561205357818101518382015260200161203b565b50505050905090810190601f1680156120805780820380516001836020036101000a031916815260200191505b5060408051601f198184030181529190526020810180516001600160e01b03166304772b3360e11b1790529550611f07945050505050565b50505050565b60405180606001604052806000815260200160008152602001600081525090565b828054600181600116156101000203166002900490600052602060002090601f016020900481019282612115576000855561215b565b82601f1061212e57805160ff191683800117855561215b565b8280016001018555821561215b579182015b8281111561215b578251825591602001919060010190612140565b506121679291506121ab565b5090565b50805460018160011615610100020316600290046000825580601f106121915750611a5e565b601f016020900490600052602060002090810190611a5e91905b5b8082111561216757600081556001016121ac565b80356001600160a01b03811681146121d757600080fd5b919050565b600082601f8301126121ec578081fd5b813567ffffffffffffffff8082111561220157fe5b604051601f8301601f19168101602001828111828210171561221f57fe5b604052828152848301602001861015612236578384fd5b82602086016020830137918201602001929092529392505050565b600060208284031215612262578081fd5b611bc3826121c0565b6000806040838503121561227d578081fd5b612286836121c0565b9150612294602084016121c0565b90509250929050565b6000806000606084860312156122b1578081fd5b6122ba846121c0565b92506122c8602085016121c0565b91506122d6604085016121c0565b90509250925092565b6000806000606084860312156122f3578283fd5b6122fc846121c0565b925061230a602085016121c0565b9150604084013590509250925092565b6000806000806080858703121561232f578081fd5b612338856121c0565b9350612346602086016121c0565b93969395505050506040820135916060013590565b60008060006060848603121561236f578283fd5b612378846121c0565b9250602084013567ffffffffffffffff811115612393578283fd5b61239f868287016121dc565b925050604084013590509250925092565b600080604083850312156123c2578182fd5b6123cb836121c0565b946020939093013593505050565b6000602082840312156123ea578081fd5b81518015158114611bc3578182fd5b60006020828403121561240a578081fd5b813567ffffffffffffffff811115612420578182fd5b61242c848285016121dc565b949350505050565b60008060408385031215612446578182fd5b823567ffffffffffffffff81111561245c578283fd5b612468858286016121dc565b925050612294602084016121c0565b60008060006060848603121561248b578283fd5b833567ffffffffffffffff8111156124a1578384fd5b6124ad868287016121dc565b93505061230a602085016121c0565b6000602082840312156124cd578081fd5b5035919050565b600081518084526124ec816020860160208601612a66565b601f01601f19169290920160200192915050565b8051825260208082015190830152604090810151910152565b6000825161252b818460208701612a66565b9190910192915050565b6000808354600180821660008114612554576001811461256b5761259a565b60ff198316865260028304607f168601935061259a565b600283048786526020808720875b838110156125925781548a820152908501908201612579565b505050860193505b509195945050505050565b6001600160a01b0391909116815260200190565b6001600160a01b03958616815293851660208501529190931660408301526060820192909252608081019190915260a00190565b6001600160a01b039384168152919092166020820152604081019190915260600190565b6001600160a01b03929092168252602082015260400190565b6001600160a01b039485168152928416602084015292166040820152606081019190915260800190565b600060208252611bc360208301846124d4565b60006040825261267a60408301856124d4565b905060018060a01b03831660208301529392505050565b6000606082526126a460608301866124d4565b6001600160a01b0394851660208401529290931660409091015292915050565b6000606082526126d760608301866124d4565b6001600160a01b039490941660208301525060400152919050565b6020808252601e908201527f50617261646f7856313a20494e56414c49445f535741505f414d4f554e540000604082015260600190565b60208082526023908201527f50617261646f7856313a20494e56414c49445f4c49515549444954595f414d4f60408201526215539560ea1b606082015260800190565b60208082526021908201527f50617261646f7856313a20494e56414c49445f4445504f5349545f414d4f554e6040820152601560fa1b606082015260800190565b6020808252601d908201527f50617261646f7856313a20494e53554646494349454e545f46554e4453000000604082015260600190565b6020808252601490820152732830b930b237bc2b189d102327a92124a22222a760611b604082015260600190565b6020808252601f908201527f50617261646f7856313a20544f4b454e5f504149525f4e4f545f464f554e4400604082015260600190565b60208082526017908201527f50617261646f7856313a20544f4b454e5f455849535453000000000000000000604082015260600190565b60208082526017908201527f50617261646f7856313a20554e415554484f52495a4544000000000000000000604082015260600190565b6020808252601b908201527f50617261646f7856313a20494e56414c49442043504920444154410000000000604082015260600190565b6020808252601a908201527f50617261646f7856313a20494e56414c49445f41444452455353000000000000604082015260600190565b60208082526011908201527014185c98591bde158c4e881313d0d2d151607a1b604082015260600190565b60208082526024908201527f50617261646f7856313a20494e53554646494349454e545f424f4f4b5f42414c604082015263414e434560e01b606082015260800190565b6020808252818101527f50617261646f7856313a20494e56414c49445f544f4b454e5f41444452455353604082015260600190565b60208082526022908201527f50617261646f7856313a20494e53554646494349454e545f54505f42414c414e604082015261434560f01b606082015260800190565b60808101612a198285612500565b82151560608301529392505050565b60a08101612a368286612500565b921515606082015260800152919050565b90815260200190565b9283526020830191909152604082015260600190565b60005b83811015612a81578181015183820152602001612a69565b838111156120b8575050600091015256fe4f776e61626c653a206e6577206f776e657220697320746865207a65726f20616464726573735f73616665557064617465426f6f6b202863757272656e742c206164642c207375627472616374293a20a264697066735822122043bcb27d505bee5fa89d895fc0c7abf02569cc2cd45f3e3f7ddef241b030a39064736f6c63430007060033",
  "linkReferences": {},
  "deployedLinkReferences": {}
}