{
  "_format": "hh-sol-artifact-1",
  "contractName": "BitMathEchidnaTest",
  "sourceName": "contracts/library/Uniswap/lib/contracts/test/BitMathEchidnaTest.sol",
  "abi": [
    {
      "inputs": [
        {
          "internalType": "uint256",
          "name": "input",
          "type": "uint256"
        }
      ],
      "name": "leastSignificantBitInvariant",
      "outputs": [],
      "stateMutability": "pure",
      "type": "function"
    },
    {
      "inputs": [
        {
          "internalType": "uint256",
          "name": "input",
          "type": "uint256"
        }
      ],
      "name": "mostSignificantBitInvariant",
      "outputs": [],
      "stateMutability": "pure",
      "type": "function"
    }
  ],
  "bytecode": "0x608060405234801561001057600080fd5b50610359806100206000396000f3fe608060405234801561001057600080fd5b50600436106100365760003560e01c80632d711e0c1461003b578063f94ac90e1461005a575b600080fd5b6100586004803603602081101561005157600080fd5b5035610077565b005b6100586004803603602081101561007057600080fd5b50356100ab565b6000610082826100e8565b905060ff811660020a821661009357fe5b60001960ff821660020a018216156100a757fe5b5050565b60006100b68261020e565b90508060ff1660020a8210156100c857fe5b8060ff1660ff14806100e257508060010160ff1660020a82105b6100a757fe5b60008082116101285760405162461bcd60e51b81526004018080602001828103825260228152602001806103026022913960400191505060405180910390fd5b5060ff6fffffffffffffffffffffffffffffffff82161561014c57607f1901610154565b608082901c91505b67ffffffffffffffff82161561016d57603f1901610175565b604082901c91505b63ffffffff82161561018a57601f1901610192565b602082901c91505b61ffff8216156101a557600f19016101ad565b601082901c91505b60ff8216156101bf57600719016101c7565b600882901c91505b600f8216156101d957600319016101e1565b600482901c91505b60038216156101f357600119016101fb565b600282901c91505b600182161561020957600019015b919050565b600080821161024e5760405162461bcd60e51b81526004018080602001828103825260218152602001806102e16021913960400191505060405180910390fd5b600160801b821061026157608091821c91015b68010000000000000000821061027957604091821c91015b640100000000821061028d57602091821c91015b62010000821061029f57601091821c91015b61010082106102b057600891821c91015b601082106102c057600491821c91015b600482106102d057600291821c91015b600282106102095760010191905056fe4269744d6174683a3a6d6f73745369676e69666963616e744269743a207a65726f4269744d6174683a3a6c656173745369676e69666963616e744269743a207a65726fa2646970667358221220da7c3bbb097e705c0faae50b40f1fa9be0dcc13e1017ab6863d899899e26c06a64736f6c634300060c0033",
  "linkReferences": {},
  "deployedLinkReferences": {}
}