{
  "_format": "hh-sol-artifact-1",
  "contractName": "AddressStringUtilTest",
  "sourceName": "contracts/library/Uniswap/lib/contracts/test/AddressStringUtilTest.sol",
  "abi": [
    {
      "inputs": [
        {
          "internalType": "address",
          "name": "addr",
          "type": "address"
        },
        {
          "internalType": "uint256",
          "name": "len",
          "type": "uint256"
        }
      ],
      "name": "toAsciiString",
      "outputs": [
        {
          "internalType": "string",
          "name": "",
          "type": "string"
        }
      ],
      "stateMutability": "pure",
      "type": "function"
    }
  ],
  "bytecode": "0x608060405234801561001057600080fd5b506102a6806100206000396000f3fe608060405234801561001057600080fd5b506004361061002b5760003560e01c80635768786e14610030575b600080fd5b61005c6004803603604081101561004657600080fd5b506001600160a01b0381351690602001356100d1565b6040805160208082528351818301528351919283929083019185019080838360005b8381101561009657818101518382015260200161007e565b50505050905090810190601f1680156100c35780820380516001836020036101000a031916815260200191505b509250505060405180910390f35b60606100dd83836100e4565b9392505050565b6060600282061580156100f75750600082115b8015610104575060288211155b610155576040805162461bcd60e51b815260206004820152601e60248201527f41646472657373537472696e675574696c3a20494e56414c49445f4c454e0000604482015290519081900360640190fd5b60008267ffffffffffffffff8111801561016e57600080fd5b506040519080825280601f01601f191660200182016040528015610199576020820181803683370190505b5090506001600160a01b03841660005b6002850481101561023d57600860138290030282901c600f600482901c1660f0821682036101d682610247565b8685600202815181106101e557fe5b60200101906001600160f81b031916908160001a90535061020581610247565b86856002026001018151811061021757fe5b60200101906001600160f81b031916908160001a90535050600190920191506101a99050565b5090949350505050565b6000600a8260ff16101561026257506030810160f81b61026b565b506037810160f81b5b91905056fea2646970667358221220459c1ca20d3455f014d1d9afed2c99496e342d51fecac36c3ba5b128d548997e64736f6c63430007060033",
  "linkReferences": {},
  "deployedLinkReferences": {}
}