{
  "_format": "hh-sol-artifact-1",
  "contractName": "TransferHelperTest",
  "sourceName": "contracts/library/Uniswap/lib/contracts/test/TransferHelperTest.sol",
  "abi": [
    {
      "inputs": [
        {
          "internalType": "address",
          "name": "token",
          "type": "address"
        },
        {
          "internalType": "address",
          "name": "to",
          "type": "address"
        },
        {
          "internalType": "uint256",
          "name": "value",
          "type": "uint256"
        }
      ],
      "name": "safeApprove",
      "outputs": [],
      "stateMutability": "nonpayable",
      "type": "function"
    },
    {
      "inputs": [
        {
          "internalType": "address",
          "name": "token",
          "type": "address"
        },
        {
          "internalType": "address",
          "name": "to",
          "type": "address"
        },
        {
          "internalType": "uint256",
          "name": "value",
          "type": "uint256"
        }
      ],
      "name": "safeTransfer",
      "outputs": [],
      "stateMutability": "nonpayable",
      "type": "function"
    },
    {
      "inputs": [
        {
          "internalType": "address",
          "name": "to",
          "type": "address"
        },
        {
          "internalType": "uint256",
          "name": "value",
          "type": "uint256"
        }
      ],
      "name": "safeTransferETH",
      "outputs": [],
      "stateMutability": "nonpayable",
      "type": "function"
    },
    {
      "inputs": [
        {
          "internalType": "address",
          "name": "token",
          "type": "address"
        },
        {
          "internalType": "address",
          "name": "from",
          "type": "address"
        },
        {
          "internalType": "address",
          "name": "to",
          "type": "address"
        },
        {
          "internalType": "uint256",
          "name": "value",
          "type": "uint256"
        }
      ],
      "name": "safeTransferFrom",
      "outputs": [],
      "stateMutability": "nonpayable",
      "type": "function"
    }
  ],
  "bytecode": "0x608060405234801561001057600080fd5b506108b0806100206000396000f3fe608060405234801561001057600080fd5b506004361061004c5760003560e01c80637c4368c114610051578063d1660f991461007f578063d9fc4b61146100b5578063eb5625d9146100f1575b600080fd5b61007d6004803603604081101561006757600080fd5b506001600160a01b038135169060200135610127565b005b61007d6004803603606081101561009557600080fd5b506001600160a01b03813581169160208101359091169060400135610135565b61007d600480360360808110156100cb57600080fd5b506001600160a01b03813581169160208101358216916040820135169060600135610145565b61007d6004803603606081101561010757600080fd5b506001600160a01b03813581169160208101359091169060400135610157565b6101318282610162565b5050565b610140838383610255565b505050565b610151848484846103a8565b50505050565b610140838383610539565b604080516000808252602082019092526001600160a01b0384169083906040518082805190602001908083835b602083106101ae5780518252601f19909201916020918201910161018f565b6001836020036101000a03801982511681845116808217855250505050505090500191505060006040518083038185875af1925050503d8060008114610210576040519150601f19603f3d011682016040523d82523d6000602084013e610215565b606091505b50509050806101405760405162461bcd60e51b81526004018080602001828103825260348152602001806107ef6034913960400191505060405180910390fd5b604080516001600160a01b038481166024830152604480830185905283518084039091018152606490920183526020820180516001600160e01b031663a9059cbb60e01b1781529251825160009485949389169392918291908083835b602083106102d15780518252601f1990920191602091820191016102b2565b6001836020036101000a0380198251168184511680821785525050505050509050019150506000604051808303816000865af19150503d8060008114610333576040519150601f19603f3d011682016040523d82523d6000602084013e610338565b606091505b5091509150818015610366575080511580610366575080806020019051602081101561036357600080fd5b50515b6103a15760405162461bcd60e51b815260040180806020018281038252602d81526020018061084e602d913960400191505060405180910390fd5b5050505050565b604080516001600160a01b0385811660248301528481166044830152606480830185905283518084039091018152608490920183526020820180516001600160e01b03166323b872dd60e01b178152925182516000948594938a169392918291908083835b6020831061042c5780518252601f19909201916020918201910161040d565b6001836020036101000a0380198251168184511680821785525050505050509050019150506000604051808303816000865af19150503d806000811461048e576040519150601f19603f3d011682016040523d82523d6000602084013e610493565b606091505b50915091506104cd60405180604001604052806012815260200171039b0b332aa3930b739b332b9233937b69d160751b8152508383610685565b8180156104f65750805115806104f657508080602001905160208110156104f357600080fd5b50515b6105315760405162461bcd60e51b81526004018080602001828103825260318152602001806107be6031913960400191505060405180910390fd5b505050505050565b604080516001600160a01b038481166024830152604480830185905283518084039091018152606490920183526020820180516001600160e01b031663095ea7b360e01b1781529251825160009485949389169392918291908083835b602083106105b55780518252601f199092019160209182019101610596565b6001836020036101000a0380198251168184511680821785525050505050509050019150506000604051808303816000865af19150503d8060008114610617576040519150601f19603f3d011682016040523d82523d6000602084013e61061c565b606091505b509150915081801561064a57508051158061064a575080806020019051602081101561064757600080fd5b50515b6103a15760405162461bcd60e51b815260040180806020018281038252602b815260200180610823602b913960400191505060405180910390fd5b6101408383836040516024018080602001841515815260200180602001838103835286818151815260200191508051906020019080838360005b838110156106d75781810151838201526020016106bf565b50505050905090810190601f1680156107045780820380516001836020036101000a031916815260200191505b50838103825284518152845160209182019186019080838360005b8381101561073757818101518382015260200161071f565b50505050905090810190601f1680156107645780820380516001836020036101000a031916815260200191505b5060408051601f198184030181529190526020810180516001600160e01b031663e298f47d60e01b179052955061079c945050505050565b80516a636f6e736f6c652e6c6f67602083016000808483855afa505050505056fe5472616e7366657248656c7065723a3a7472616e7366657246726f6d3a207472616e7366657246726f6d206661696c65645472616e7366657248656c7065723a3a736166655472616e736665724554483a20455448207472616e73666572206661696c65645472616e7366657248656c7065723a3a73616665417070726f76653a20617070726f7665206661696c65645472616e7366657248656c7065723a3a736166655472616e736665723a207472616e73666572206661696c6564a2646970667358221220ffd23b934ca8a0b650022fba02810486f34742c6077db1ee182d5838c92ffc6e64736f6c63430007060033",
  "linkReferences": {},
  "deployedLinkReferences": {}
}