{
  "_format": "hh-sol-artifact-1",
  "contractName": "TransferHelperTestFakeERC20Noncompliant",
  "sourceName": "contracts/library/Uniswap/lib/contracts/test/TransferHelperTest.sol",
  "abi": [
    {
      "inputs": [
        {
          "internalType": "address",
          "name": "",
          "type": "address"
        },
        {
          "internalType": "uint256",
          "name": "",
          "type": "uint256"
        }
      ],
      "name": "approve",
      "outputs": [],
      "stateMutability": "view",
      "type": "function"
    },
    {
      "inputs": [
        {
          "internalType": "bool",
          "name": "shouldRevert_",
          "type": "bool"
        }
      ],
      "name": "setup",
      "outputs": [],
      "stateMutability": "nonpayable",
      "type": "function"
    },
    {
      "inputs": [],
      "name": "shouldRevert",
      "outputs": [
        {
          "internalType": "bool",
          "name": "",
          "type": "bool"
        }
      ],
      "stateMutability": "view",
      "type": "function"
    },
    {
      "inputs": [
        {
          "internalType": "address",
          "name": "",
          "type": "address"
        },
        {
          "internalType": "uint256",
          "name": "",
          "type": "uint256"
        }
      ],
      "name": "transfer",
      "outputs": [],
      "stateMutability": "view",
      "type": "function"
    },
    {
      "inputs": [
        {
          "internalType": "address",
          "name": "",
          "type": "address"
        },
        {
          "internalType": "address",
          "name": "",
          "type": "address"
        },
        {
          "internalType": "uint256",
          "name": "",
          "type": "uint256"
        }
      ],
      "name": "transferFrom",
      "outputs": [],
      "stateMutability": "view",
      "type": "function"
    }
  ],
  "bytecode": "0x608060405234801561001057600080fd5b50610176806100206000396000f3fe608060405234801561001057600080fd5b50600436106100575760003560e01c8063095ea7b31461005c57806323b872dd1461008a578063a9059cbb1461005c578063d3072d82146100c0578063e2c169ec146100dc575b600080fd5b6100886004803603604081101561007257600080fd5b506001600160a01b0381351690602001356100fb565b005b610088600480360360608110156100a057600080fd5b506001600160a01b0381358116916020810135909116906040013561010f565b6100c8610124565b604080519115158252519081900360200190f35b610088600480360360208110156100f257600080fd5b5035151561012d565b60005460ff161561010b57600080fd5b5050565b60005460ff161561011f57600080fd5b505050565b60005460ff1681565b6000805460ff191691151591909117905556fea26469706673582212209f238e315ee397a52b54987c8c2a742165db96a4553fe826a72c4f77183ee67164736f6c63430007060033",
  "linkReferences": {},
  "deployedLinkReferences": {}
}