{
  "_format": "hh-sol-artifact-1",
  "contractName": "BabylonianTest",
  "sourceName": "contracts/library/Uniswap/lib/contracts/test/BabylonianTest.sol",
  "abi": [
    {
      "inputs": [
        {
          "internalType": "uint256",
          "name": "num",
          "type": "uint256"
        }
      ],
      "name": "getGasCostOfSqrt",
      "outputs": [
        {
          "internalType": "uint256",
          "name": "",
          "type": "uint256"
        }
      ],
      "stateMutability": "view",
      "type": "function"
    },
    {
      "inputs": [
        {
          "internalType": "uint256",
          "name": "num",
          "type": "uint256"
        }
      ],
      "name": "sqrt",
      "outputs": [
        {
          "internalType": "uint256",
          "name": "",
          "type": "uint256"
        }
      ],
      "stateMutability": "pure",
      "type": "function"
    }
  ],
  "bytecode": "0x608060405234801561001057600080fd5b5061022f806100206000396000f3fe608060405234801561001057600080fd5b50600436106100365760003560e01c8063677342ce1461003b578063821f49241461006a575b600080fd5b6100586004803603602081101561005157600080fd5b5035610087565b60408051918252519081900360200190f35b6100586004803603602081101561008057600080fd5b503561009a565b6000610092826100b3565b90505b919050565b6000805a90506100a9836100b3565b505a900392915050565b6000816100c257506000610095565b816001600160801b82106100db5760809190911c9060401b5b6801000000000000000082106100f65760409190911c9060201b5b640100000000821061010d5760209190911c9060101b5b6201000082106101225760109190911c9060081b5b61010082106101365760089190911c9060041b5b601082106101495760049190911c9060021b5b600882106101555760011b5b600181858161016057fe5b048201901c9050600181858161017257fe5b048201901c9050600181858161018457fe5b048201901c9050600181858161019657fe5b048201901c905060018185816101a857fe5b048201901c905060018185816101ba57fe5b048201901c905060018185816101cc57fe5b048201901c905060008185816101de57fe5b0490508082106101ee57806101f0565b815b9594505050505056fea26469706673582212201892a39e62a12ba26ac395505e0f69e6c5b11b22d4c9aa282f5bfc64f51d4dee64736f6c63430007060033",
  "linkReferences": {},
  "deployedLinkReferences": {}
}